{"contracts/Urna.sol":{"candidate":{"abi":[{"inputs":[{"internalType":"string","name":"_name","type":"string"},{"internalType":"string","name":"_describe","type":"string"},{"internalType":"string","name":"_candidatePhoto","type":"string"},{"internalType":"string","name":"_politicalPartyName","type":"string"},{"internalType":"uint256","name":"_politicalPartyNumber","type":"uint256"},{"internalType":"string","name":"_electedTo","type":"string"}],"stateMutability":"nonpayable","type":"constructor"},{"inputs":[],"name":"voteInThisCandidate","outputs":[],"stateMutability":"nonpayable","type":"function"}],"evm":{"bytecode":{"linkReferences":{},"object":"60806040523480156200001157600080fd5b50604051620009443803806200094483398181016040528101906200003791906200027a565b8560009081620000489190620005f2565b5084600190816200005a9190620005f2565b5082600390816200006c9190620005f2565b50816004819055508060059081620000859190620005f2565b508360029081620000979190620005f2565b506000600681905550505050505050620006d9565b6000604051905090565b600080fd5b600080fd5b600080fd5b600080fd5b6000601f19601f8301169050919050565b7f4e487b7100000000000000000000000000000000000000000000000000000000600052604160045260246000fd5b6200011582620000ca565b810181811067ffffffffffffffff82111715620001375762000136620000db565b5b80604052505050565b60006200014c620000ac565b90506200015a82826200010a565b919050565b600067ffffffffffffffff8211156200017d576200017c620000db565b5b6200018882620000ca565b9050602081019050919050565b60005b83811015620001b557808201518184015260208101905062000198565b60008484015250505050565b6000620001d8620001d2846200015f565b62000140565b905082815260208101848484011115620001f757620001f6620000c5565b5b6200020484828562000195565b509392505050565b600082601f830112620002245762000223620000c0565b5b815162000236848260208601620001c1565b91505092915050565b6000819050919050565b62000254816200023f565b81146200026057600080fd5b50565b600081519050620002748162000249565b92915050565b60008060008060008060c087890312156200029a5762000299620000b6565b5b600087015167ffffffffffffffff811115620002bb57620002ba620000bb565b5b620002c989828a016200020c565b965050602087015167ffffffffffffffff811115620002ed57620002ec620000bb565b5b620002fb89828a016200020c565b955050604087015167ffffffffffffffff8111156200031f576200031e620000bb565b5b6200032d89828a016200020c565b945050606087015167ffffffffffffffff811115620003515762000350620000bb565b5b6200035f89828a016200020c565b93505060806200037289828a0162000263565b92505060a087015167ffffffffffffffff811115620003965762000395620000bb565b5b620003a489828a016200020c565b9150509295509295509295565b600081519050919050565b7f4e487b7100000000000000000000000000000000000000000000000000000000600052602260045260246000fd5b600060028204905060018216806200040457607f821691505b6020821081036200041a5762000419620003bc565b5b50919050565b60008190508160005260206000209050919050565b60006020601f8301049050919050565b600082821b905092915050565b600060088302620004847fffffffffffffffffffffffffffffffffffffffffffffffffffffffffffffffff8262000445565b62000490868362000445565b95508019841693508086168417925050509392505050565b6000819050919050565b6000620004d3620004cd620004c7846200023f565b620004a8565b6200023f565b9050919050565b6000819050919050565b620004ef83620004b2565b62000507620004fe82620004da565b84845462000452565b825550505050565b600090565b6200051e6200050f565b6200052b818484620004e4565b505050565b5b8181101562000553576200054760008262000514565b60018101905062000531565b5050565b601f821115620005a2576200056c8162000420565b620005778462000435565b8101602085101562000587578190505b6200059f620005968562000435565b83018262000530565b50505b505050565b600082821c905092915050565b6000620005c760001984600802620005a7565b1980831691505092915050565b6000620005e28383620005b4565b9150826002028217905092915050565b620005fd82620003b1565b67ffffffffffffffff811115620006195762000618620000db565b5b620006258254620003eb565b6200063282828562000557565b600060209050601f8311600181146200066a576000841562000655578287015190505b620006618582620005d4565b865550620006d1565b601f1984166200067a8662000420565b60005b82811015620006a4578489015182556001820191506020850194506020810190506200067d565b86831015620006c45784890151620006c0601f891682620005b4565b8355505b6001600288020188555050505b505050505050565b61025b80620006e96000396000f3fe608060405234801561001057600080fd5b506004361061002b5760003560e01c8063a07d792d14610030575b600080fd5b61003861003a565b005b600760003373ffffffffffffffffffffffffffffffffffffffff1673ffffffffffffffffffffffffffffffffffffffff16815260200190815260200160002060009054906101000a900460ff16156100c7576040517f08c379a00000000000000000000000000000000000000000000000000000000081526004016100be90610198565b60405180910390fd5b6001600760003373ffffffffffffffffffffffffffffffffffffffff1673ffffffffffffffffffffffffffffffffffffffff16815260200190815260200160002060006101000a81548160ff02191690831515021790555060016006600082825461013291906101f1565b92505081905550565b600082825260208201905092915050565b7f4552524f523a20596f75206861766520616c726561647920766f746564210000600082015250565b6000610182601e8361013b565b915061018d8261014c565b602082019050919050565b600060208201905081810360008301526101b181610175565b9050919050565b6000819050919050565b7f4e487b7100000000000000000000000000000000000000000000000000000000600052601160045260246000fd5b60006101fc826101b8565b9150610207836101b8565b925082820190508082111561021f5761021e6101c2565b5b9291505056fea264697066735822122084bfe660296a059257d8456876c640392614b9eb09a171d246af79c47f2fd38864736f6c63430008110033","opcodes":"PUSH1 0x80 PUSH1 0x40 MSTORE CALLVALUE DUP1 ISZERO PUSH3 0x11 JUMPI PUSH1 0x0 DUP1 REVERT JUMPDEST POP PUSH1 0x40 MLOAD PUSH3 0x944 CODESIZE SUB DUP1 PUSH3 0x944 DUP4 CODECOPY DUP2 DUP2 ADD PUSH1 0x40 MSTORE DUP2 ADD SWAP1 PUSH3 0x37 SWAP2 SWAP1 PUSH3 0x27A JUMP JUMPDEST DUP6 PUSH1 0x0 SWAP1 DUP2 PUSH3 0x48 SWAP2 SWAP1 PUSH3 0x5F2 JUMP JUMPDEST POP DUP5 PUSH1 0x1 SWAP1 DUP2 PUSH3 0x5A SWAP2 SWAP1 PUSH3 0x5F2 JUMP JUMPDEST POP DUP3 PUSH1 0x3 SWAP1 DUP2 PUSH3 0x6C SWAP2 SWAP1 PUSH3 0x5F2 JUMP JUMPDEST POP DUP2 PUSH1 0x4 DUP2 SWAP1 SSTORE POP DUP1 PUSH1 0x5 SWAP1 DUP2 PUSH3 0x85 SWAP2 SWAP1 PUSH3 0x5F2 JUMP JUMPDEST POP DUP4 PUSH1 0x2 SWAP1 DUP2 PUSH3 0x97 SWAP2 SWAP1 PUSH3 0x5F2 JUMP JUMPDEST POP PUSH1 0x0 PUSH1 0x6 DUP2 SWAP1 SSTORE POP POP POP POP POP POP POP PUSH3 0x6D9 JUMP JUMPDEST PUSH1 0x0 PUSH1 0x40 MLOAD SWAP1 POP SWAP1 JUMP JUMPDEST PUSH1 0x0 DUP1 REVERT JUMPDEST PUSH1 0x0 DUP1 REVERT JUMPDEST PUSH1 0x0 DUP1 REVERT JUMPDEST PUSH1 0x0 DUP1 REVERT JUMPDEST PUSH1 0x0 PUSH1 0x1F NOT PUSH1 0x1F DUP4 ADD AND SWAP1 POP SWAP2 SWAP1 POP JUMP JUMPDEST PUSH32 0x4E487B7100000000000000000000000000000000000000000000000000000000 PUSH1 0x0 MSTORE PUSH1 0x41 PUSH1 0x4 MSTORE PUSH1 0x24 PUSH1 0x0 REVERT JUMPDEST PUSH3 0x115 DUP3 PUSH3 0xCA JUMP JUMPDEST DUP2 ADD DUP2 DUP2 LT PUSH8 0xFFFFFFFFFFFFFFFF DUP3 GT OR ISZERO PUSH3 0x137 JUMPI PUSH3 0x136 PUSH3 0xDB JUMP JUMPDEST JUMPDEST DUP1 PUSH1 0x40 MSTORE POP POP POP JUMP JUMPDEST PUSH1 0x0 PUSH3 0x14C PUSH3 0xAC JUMP JUMPDEST SWAP1 POP PUSH3 0x15A DUP3 DUP3 PUSH3 0x10A JUMP JUMPDEST SWAP2 SWAP1 POP JUMP JUMPDEST PUSH1 0x0 PUSH8 0xFFFFFFFFFFFFFFFF DUP3 GT ISZERO PUSH3 0x17D JUMPI PUSH3 0x17C PUSH3 0xDB JUMP JUMPDEST JUMPDEST PUSH3 0x188 DUP3 PUSH3 0xCA JUMP JUMPDEST SWAP1 POP PUSH1 0x20 DUP2 ADD SWAP1 POP SWAP2 SWAP1 POP JUMP JUMPDEST PUSH1 0x0 JUMPDEST DUP4 DUP2 LT ISZERO PUSH3 0x1B5 JUMPI DUP1 DUP3 ADD MLOAD DUP2 DUP5 ADD MSTORE PUSH1 0x20 DUP2 ADD SWAP1 POP PUSH3 0x198 JUMP JUMPDEST PUSH1 0x0 DUP5 DUP5 ADD MSTORE POP POP POP POP JUMP JUMPDEST PUSH1 0x0 PUSH3 0x1D8 PUSH3 0x1D2 DUP5 PUSH3 0x15F JUMP JUMPDEST PUSH3 0x140 JUMP JUMPDEST SWAP1 POP DUP3 DUP2 MSTORE PUSH1 0x20 DUP2 ADD DUP5 DUP5 DUP5 ADD GT ISZERO PUSH3 0x1F7 JUMPI PUSH3 0x1F6 PUSH3 0xC5 JUMP JUMPDEST JUMPDEST PUSH3 0x204 DUP5 DUP3 DUP6 PUSH3 0x195 JUMP JUMPDEST POP SWAP4 SWAP3 POP POP POP JUMP JUMPDEST PUSH1 0x0 DUP3 PUSH1 0x1F DUP4 ADD SLT PUSH3 0x224 JUMPI PUSH3 0x223 PUSH3 0xC0 JUMP JUMPDEST JUMPDEST DUP2 MLOAD PUSH3 0x236 DUP5 DUP3 PUSH1 0x20 DUP7 ADD PUSH3 0x1C1 JUMP JUMPDEST SWAP2 POP POP SWAP3 SWAP2 POP POP JUMP JUMPDEST PUSH1 0x0 DUP2 SWAP1 POP SWAP2 SWAP1 POP JUMP JUMPDEST PUSH3 0x254 DUP2 PUSH3 0x23F JUMP JUMPDEST DUP2 EQ PUSH3 0x260 JUMPI PUSH1 0x0 DUP1 REVERT JUMPDEST POP JUMP JUMPDEST PUSH1 0x0 DUP2 MLOAD SWAP1 POP PUSH3 0x274 DUP2 PUSH3 0x249 JUMP JUMPDEST SWAP3 SWAP2 POP POP JUMP JUMPDEST PUSH1 0x0 DUP1 PUSH1 0x0 DUP1 PUSH1 0x0 DUP1 PUSH1 0xC0 DUP8 DUP10 SUB SLT ISZERO PUSH3 0x29A JUMPI PUSH3 0x299 PUSH3 0xB6 JUMP JUMPDEST JUMPDEST PUSH1 0x0 DUP8 ADD MLOAD PUSH8 0xFFFFFFFFFFFFFFFF DUP2 GT ISZERO PUSH3 0x2BB JUMPI PUSH3 0x2BA PUSH3 0xBB JUMP JUMPDEST JUMPDEST PUSH3 0x2C9 DUP10 DUP3 DUP11 ADD PUSH3 0x20C JUMP JUMPDEST SWAP7 POP POP PUSH1 0x20 DUP8 ADD MLOAD PUSH8 0xFFFFFFFFFFFFFFFF DUP2 GT ISZERO PUSH3 0x2ED JUMPI PUSH3 0x2EC PUSH3 0xBB JUMP JUMPDEST JUMPDEST PUSH3 0x2FB DUP10 DUP3 DUP11 ADD PUSH3 0x20C JUMP JUMPDEST SWAP6 POP POP PUSH1 0x40 DUP8 ADD MLOAD PUSH8 0xFFFFFFFFFFFFFFFF DUP2 GT ISZERO PUSH3 0x31F JUMPI PUSH3 0x31E PUSH3 0xBB JUMP JUMPDEST JUMPDEST PUSH3 0x32D DUP10 DUP3 DUP11 ADD PUSH3 0x20C JUMP JUMPDEST SWAP5 POP POP PUSH1 0x60 DUP8 ADD MLOAD PUSH8 0xFFFFFFFFFFFFFFFF DUP2 GT ISZERO PUSH3 0x351 JUMPI PUSH3 0x350 PUSH3 0xBB JUMP JUMPDEST JUMPDEST PUSH3 0x35F DUP10 DUP3 DUP11 ADD PUSH3 0x20C JUMP JUMPDEST SWAP4 POP POP PUSH1 0x80 PUSH3 0x372 DUP10 DUP3 DUP11 ADD PUSH3 0x263 JUMP JUMPDEST SWAP3 POP POP PUSH1 0xA0 DUP8 ADD MLOAD PUSH8 0xFFFFFFFFFFFFFFFF DUP2 GT ISZERO PUSH3 0x396 JUMPI PUSH3 0x395 PUSH3 0xBB JUMP JUMPDEST JUMPDEST PUSH3 0x3A4 DUP10 DUP3 DUP11 ADD PUSH3 0x20C JUMP JUMPDEST SWAP2 POP POP SWAP3 SWAP6 POP SWAP3 SWAP6 POP SWAP3 SWAP6 JUMP JUMPDEST PUSH1 0x0 DUP2 MLOAD SWAP1 POP SWAP2 SWAP1 POP JUMP JUMPDEST PUSH32 0x4E487B7100000000000000000000000000000000000000000000000000000000 PUSH1 0x0 MSTORE PUSH1 0x22 PUSH1 0x4 MSTORE PUSH1 0x24 PUSH1 0x0 REVERT JUMPDEST PUSH1 0x0 PUSH1 0x2 DUP3 DIV SWAP1 POP PUSH1 0x1 DUP3 AND DUP1 PUSH3 0x404 JUMPI PUSH1 0x7F DUP3 AND SWAP2 POP JUMPDEST PUSH1 0x20 DUP3 LT DUP2 SUB PUSH3 0x41A JUMPI PUSH3 0x419 PUSH3 0x3BC JUMP JUMPDEST JUMPDEST POP SWAP2 SWAP1 POP JUMP JUMPDEST PUSH1 0x0 DUP2 SWAP1 POP DUP2 PUSH1 0x0 MSTORE PUSH1 0x20 PUSH1 0x0 KECCAK256 SWAP1 POP SWAP2 SWAP1 POP JUMP JUMPDEST PUSH1 0x0 PUSH1 0x20 PUSH1 0x1F DUP4 ADD DIV SWAP1 POP SWAP2 SWAP1 POP JUMP JUMPDEST PUSH1 0x0 DUP3 DUP3 SHL SWAP1 POP SWAP3 SWAP2 POP POP JUMP JUMPDEST PUSH1 0x0 PUSH1 0x8 DUP4 MUL PUSH3 0x484 PUSH32 0xFFFFFFFFFFFFFFFFFFFFFFFFFFFFFFFFFFFFFFFFFFFFFFFFFFFFFFFFFFFFFFFF DUP3 PUSH3 0x445 JUMP JUMPDEST PUSH3 0x490 DUP7 DUP4 PUSH3 0x445 JUMP JUMPDEST SWAP6 POP DUP1 NOT DUP5 AND SWAP4 POP DUP1 DUP7 AND DUP5 OR SWAP3 POP POP POP SWAP4 SWAP3 POP POP POP JUMP JUMPDEST PUSH1 0x0 DUP2 SWAP1 POP SWAP2 SWAP1 POP JUMP JUMPDEST PUSH1 0x0 PUSH3 0x4D3 PUSH3 0x4CD PUSH3 0x4C7 DUP5 PUSH3 0x23F JUMP JUMPDEST PUSH3 0x4A8 JUMP JUMPDEST PUSH3 0x23F JUMP JUMPDEST SWAP1 POP SWAP2 SWAP1 POP JUMP JUMPDEST PUSH1 0x0 DUP2 SWAP1 POP SWAP2 SWAP1 POP JUMP JUMPDEST PUSH3 0x4EF DUP4 PUSH3 0x4B2 JUMP JUMPDEST PUSH3 0x507 PUSH3 0x4FE DUP3 PUSH3 0x4DA JUMP JUMPDEST DUP5 DUP5 SLOAD PUSH3 0x452 JUMP JUMPDEST DUP3 SSTORE POP POP POP POP JUMP JUMPDEST PUSH1 0x0 SWAP1 JUMP JUMPDEST PUSH3 0x51E PUSH3 0x50F JUMP JUMPDEST PUSH3 0x52B DUP2 DUP5 DUP5 PUSH3 0x4E4 JUMP JUMPDEST POP POP POP JUMP JUMPDEST JUMPDEST DUP2 DUP2 LT ISZERO PUSH3 0x553 JUMPI PUSH3 0x547 PUSH1 0x0 DUP3 PUSH3 0x514 JUMP JUMPDEST PUSH1 0x1 DUP2 ADD SWAP1 POP PUSH3 0x531 JUMP JUMPDEST POP POP JUMP JUMPDEST PUSH1 0x1F DUP3 GT ISZERO PUSH3 0x5A2 JUMPI PUSH3 0x56C DUP2 PUSH3 0x420 JUMP JUMPDEST PUSH3 0x577 DUP5 PUSH3 0x435 JUMP JUMPDEST DUP2 ADD PUSH1 0x20 DUP6 LT ISZERO PUSH3 0x587 JUMPI DUP2 SWAP1 POP JUMPDEST PUSH3 0x59F PUSH3 0x596 DUP6 PUSH3 0x435 JUMP JUMPDEST DUP4 ADD DUP3 PUSH3 0x530 JUMP JUMPDEST POP POP JUMPDEST POP POP POP JUMP JUMPDEST PUSH1 0x0 DUP3 DUP3 SHR SWAP1 POP SWAP3 SWAP2 POP POP JUMP JUMPDEST PUSH1 0x0 PUSH3 0x5C7 PUSH1 0x0 NOT DUP5 PUSH1 0x8 MUL PUSH3 0x5A7 JUMP JUMPDEST NOT DUP1 DUP4 AND SWAP2 POP POP SWAP3 SWAP2 POP POP JUMP JUMPDEST PUSH1 0x0 PUSH3 0x5E2 DUP4 DUP4 PUSH3 0x5B4 JUMP JUMPDEST SWAP2 POP DUP3 PUSH1 0x2 MUL DUP3 OR SWAP1 POP SWAP3 SWAP2 POP POP JUMP JUMPDEST PUSH3 0x5FD DUP3 PUSH3 0x3B1 JUMP JUMPDEST PUSH8 0xFFFFFFFFFFFFFFFF DUP2 GT ISZERO PUSH3 0x619 JUMPI PUSH3 0x618 PUSH3 0xDB JUMP JUMPDEST JUMPDEST PUSH3 0x625 DUP3 SLOAD PUSH3 0x3EB JUMP JUMPDEST PUSH3 0x632 DUP3 DUP3 DUP6 PUSH3 0x557 JUMP JUMPDEST PUSH1 0x0 PUSH1 0x20 SWAP1 POP PUSH1 0x1F DUP4 GT PUSH1 0x1 DUP2 EQ PUSH3 0x66A JUMPI PUSH1 0x0 DUP5 ISZERO PUSH3 0x655 JUMPI DUP3 DUP8 ADD MLOAD SWAP1 POP JUMPDEST PUSH3 0x661 DUP6 DUP3 PUSH3 0x5D4 JUMP JUMPDEST DUP7 SSTORE POP PUSH3 0x6D1 JUMP JUMPDEST PUSH1 0x1F NOT DUP5 AND PUSH3 0x67A DUP7 PUSH3 0x420 JUMP JUMPDEST PUSH1 0x0 JUMPDEST DUP3 DUP2 LT ISZERO PUSH3 0x6A4 JUMPI DUP5 DUP10 ADD MLOAD DUP3 SSTORE PUSH1 0x1 DUP3 ADD SWAP2 POP PUSH1 0x20 DUP6 ADD SWAP5 POP PUSH1 0x20 DUP2 ADD SWAP1 POP PUSH3 0x67D JUMP JUMPDEST DUP7 DUP4 LT ISZERO PUSH3 0x6C4 JUMPI DUP5 DUP10 ADD MLOAD PUSH3 0x6C0 PUSH1 0x1F DUP10 AND DUP3 PUSH3 0x5B4 JUMP JUMPDEST DUP4 SSTORE POP JUMPDEST PUSH1 0x1 PUSH1 0x2 DUP9 MUL ADD DUP9 SSTORE POP POP POP JUMPDEST POP POP POP POP POP POP JUMP JUMPDEST PUSH2 0x25B DUP1 PUSH3 0x6E9 PUSH1 0x0 CODECOPY PUSH1 0x0 RETURN INVALID PUSH1 0x80 PUSH1 0x40 MSTORE CALLVALUE DUP1 ISZERO PUSH2 0x10 JUMPI PUSH1 0x0 DUP1 REVERT JUMPDEST POP PUSH1 0x4 CALLDATASIZE LT PUSH2 0x2B JUMPI PUSH1 0x0 CALLDATALOAD PUSH1 0xE0 SHR DUP1 PUSH4 0xA07D792D EQ PUSH2 0x30 JUMPI JUMPDEST PUSH1 0x0 DUP1 REVERT JUMPDEST PUSH2 0x38 PUSH2 0x3A JUMP JUMPDEST STOP JUMPDEST PUSH1 0x7 PUSH1 0x0 CALLER PUSH20 0xFFFFFFFFFFFFFFFFFFFFFFFFFFFFFFFFFFFFFFFF AND PUSH20 0xFFFFFFFFFFFFFFFFFFFFFFFFFFFFFFFFFFFFFFFF AND DUP2 MSTORE PUSH1 0x20 ADD SWAP1 DUP2 MSTORE PUSH1 0x20 ADD PUSH1 0x0 KECCAK256 PUSH1 0x0 SWAP1 SLOAD SWAP1 PUSH2 0x100 EXP SWAP1 DIV PUSH1 0xFF AND ISZERO PUSH2 0xC7 JUMPI PUSH1 0x40 MLOAD PUSH32 0x8C379A000000000000000000000000000000000000000000000000000000000 DUP2 MSTORE PUSH1 0x4 ADD PUSH2 0xBE SWAP1 PUSH2 0x198 JUMP JUMPDEST PUSH1 0x40 MLOAD DUP1 SWAP2 SUB SWAP1 REVERT JUMPDEST PUSH1 0x1 PUSH1 0x7 PUSH1 0x0 CALLER PUSH20 0xFFFFFFFFFFFFFFFFFFFFFFFFFFFFFFFFFFFFFFFF AND PUSH20 0xFFFFFFFFFFFFFFFFFFFFFFFFFFFFFFFFFFFFFFFF AND DUP2 MSTORE PUSH1 0x20 ADD SWAP1 DUP2 MSTORE PUSH1 0x20 ADD PUSH1 0x0 KECCAK256 PUSH1 0x0 PUSH2 0x100 EXP DUP2 SLOAD DUP2 PUSH1 0xFF MUL NOT AND SWAP1 DUP4 ISZERO ISZERO MUL OR SWAP1 SSTORE POP PUSH1 0x1 PUSH1 0x6 PUSH1 0x0 DUP3 DUP3 SLOAD PUSH2 0x132 SWAP2 SWAP1 PUSH2 0x1F1 JUMP JUMPDEST SWAP3 POP POP DUP2 SWAP1 SSTORE POP JUMP JUMPDEST PUSH1 0x0 DUP3 DUP3 MSTORE PUSH1 0x20 DUP3 ADD SWAP1 POP SWAP3 SWAP2 POP POP JUMP JUMPDEST PUSH32 0x4552524F523A20596F75206861766520616C726561647920766F746564210000 PUSH1 0x0 DUP3 ADD MSTORE POP JUMP JUMPDEST PUSH1 0x0 PUSH2 0x182 PUSH1 0x1E DUP4 PUSH2 0x13B JUMP JUMPDEST SWAP2 POP PUSH2 0x18D DUP3 PUSH2 0x14C JUMP JUMPDEST PUSH1 0x20 DUP3 ADD SWAP1 POP SWAP2 SWAP1 POP JUMP JUMPDEST PUSH1 0x0 PUSH1 0x20 DUP3 ADD SWAP1 POP DUP2 DUP2 SUB PUSH1 0x0 DUP4 ADD MSTORE PUSH2 0x1B1 DUP2 PUSH2 0x175 JUMP JUMPDEST SWAP1 POP SWAP2 SWAP1 POP JUMP JUMPDEST PUSH1 0x0 DUP2 SWAP1 POP SWAP2 SWAP1 POP JUMP JUMPDEST PUSH32 0x4E487B7100000000000000000000000000000000000000000000000000000000 PUSH1 0x0 MSTORE PUSH1 0x11 PUSH1 0x4 MSTORE PUSH1 0x24 PUSH1 0x0 REVERT JUMPDEST PUSH1 0x0 PUSH2 0x1FC DUP3 PUSH2 0x1B8 JUMP JUMPDEST SWAP2 POP PUSH2 0x207 DUP4 PUSH2 0x1B8 JUMP JUMPDEST SWAP3 POP DUP3 DUP3 ADD SWAP1 POP DUP1 DUP3 GT ISZERO PUSH2 0x21F JUMPI PUSH2 0x21E PUSH2 0x1C2 JUMP JUMPDEST JUMPDEST SWAP3 SWAP2 POP POP JUMP INVALID LOG2 PUSH5 0x6970667358 0x22 SLT KECCAK256 DUP5 0xBF 0xE6 PUSH1 0x29 PUSH11 0x59257D8456876C6403926 EQ 0xB9 0xEB MULMOD LOG1 PUSH18 0xD246AF79C47F2FD38864736F6C6343000811 STOP CALLER "},"methodIdentifiers":{"voteInThisCandidate()":"a07d792d"}}}}}