{
  "_format": "hh-sol-artifact-1",
  "contractName": "candidate",
  "sourceName": "contracts/Urna.sol",
  "abi": [
    {
      "inputs": [
        {
          "internalType": "string",
          "name": "_name",
          "type": "string"
        },
        {
          "internalType": "string",
          "name": "_describe",
          "type": "string"
        },
        {
          "internalType": "string",
          "name": "_candidatePhoto",
          "type": "string"
        },
        {
          "internalType": "string",
          "name": "_politicalPartyName",
          "type": "string"
        },
        {
          "internalType": "uint256",
          "name": "_politicalPartyNumber",
          "type": "uint256"
        },
        {
          "internalType": "string",
          "name": "_electedTo",
          "type": "string"
        }
      ],
      "stateMutability": "nonpayable",
      "type": "constructor"
    },
    {
      "inputs": [],
      "name": "voteInThisCandidate",
      "outputs": [],
      "stateMutability": "nonpayable",
      "type": "function"
    }
  ],
  "bytecode": "0x60806040523480156200001157600080fd5b50604051620009443803806200094483398181016040528101906200003791906200027a565b8560009081620000489190620005f2565b5084600190816200005a9190620005f2565b5082600390816200006c9190620005f2565b50816004819055508060059081620000859190620005f2565b508360029081620000979190620005f2565b506000600681905550505050505050620006d9565b6000604051905090565b600080fd5b600080fd5b600080fd5b600080fd5b6000601f19601f8301169050919050565b7f4e487b7100000000000000000000000000000000000000000000000000000000600052604160045260246000fd5b6200011582620000ca565b810181811067ffffffffffffffff82111715620001375762000136620000db565b5b80604052505050565b60006200014c620000ac565b90506200015a82826200010a565b919050565b600067ffffffffffffffff8211156200017d576200017c620000db565b5b6200018882620000ca565b9050602081019050919050565b60005b83811015620001b557808201518184015260208101905062000198565b60008484015250505050565b6000620001d8620001d2846200015f565b62000140565b905082815260208101848484011115620001f757620001f6620000c5565b5b6200020484828562000195565b509392505050565b600082601f830112620002245762000223620000c0565b5b815162000236848260208601620001c1565b91505092915050565b6000819050919050565b62000254816200023f565b81146200026057600080fd5b50565b600081519050620002748162000249565b92915050565b60008060008060008060c087890312156200029a5762000299620000b6565b5b600087015167ffffffffffffffff811115620002bb57620002ba620000bb565b5b620002c989828a016200020c565b965050602087015167ffffffffffffffff811115620002ed57620002ec620000bb565b5b620002fb89828a016200020c565b955050604087015167ffffffffffffffff8111156200031f576200031e620000bb565b5b6200032d89828a016200020c565b945050606087015167ffffffffffffffff811115620003515762000350620000bb565b5b6200035f89828a016200020c565b93505060806200037289828a0162000263565b92505060a087015167ffffffffffffffff811115620003965762000395620000bb565b5b620003a489828a016200020c565b9150509295509295509295565b600081519050919050565b7f4e487b7100000000000000000000000000000000000000000000000000000000600052602260045260246000fd5b600060028204905060018216806200040457607f821691505b6020821081036200041a5762000419620003bc565b5b50919050565b60008190508160005260206000209050919050565b60006020601f8301049050919050565b600082821b905092915050565b600060088302620004847fffffffffffffffffffffffffffffffffffffffffffffffffffffffffffffffff8262000445565b62000490868362000445565b95508019841693508086168417925050509392505050565b6000819050919050565b6000620004d3620004cd620004c7846200023f565b620004a8565b6200023f565b9050919050565b6000819050919050565b620004ef83620004b2565b62000507620004fe82620004da565b84845462000452565b825550505050565b600090565b6200051e6200050f565b6200052b818484620004e4565b505050565b5b8181101562000553576200054760008262000514565b60018101905062000531565b5050565b601f821115620005a2576200056c8162000420565b620005778462000435565b8101602085101562000587578190505b6200059f620005968562000435565b83018262000530565b50505b505050565b600082821c905092915050565b6000620005c760001984600802620005a7565b1980831691505092915050565b6000620005e28383620005b4565b9150826002028217905092915050565b620005fd82620003b1565b67ffffffffffffffff811115620006195762000618620000db565b5b620006258254620003eb565b6200063282828562000557565b600060209050601f8311600181146200066a576000841562000655578287015190505b620006618582620005d4565b865550620006d1565b601f1984166200067a8662000420565b60005b82811015620006a4578489015182556001820191506020850194506020810190506200067d565b86831015620006c45784890151620006c0601f891682620005b4565b8355505b6001600288020188555050505b505050505050565b61025b80620006e96000396000f3fe608060405234801561001057600080fd5b506004361061002b5760003560e01c8063a07d792d14610030575b600080fd5b61003861003a565b005b600760003373ffffffffffffffffffffffffffffffffffffffff1673ffffffffffffffffffffffffffffffffffffffff16815260200190815260200160002060009054906101000a900460ff16156100c7576040517f08c379a00000000000000000000000000000000000000000000000000000000081526004016100be90610198565b60405180910390fd5b6001600760003373ffffffffffffffffffffffffffffffffffffffff1673ffffffffffffffffffffffffffffffffffffffff16815260200190815260200160002060006101000a81548160ff02191690831515021790555060016006600082825461013291906101f1565b92505081905550565b600082825260208201905092915050565b7f4552524f523a20596f75206861766520616c726561647920766f746564210000600082015250565b6000610182601e8361013b565b915061018d8261014c565b602082019050919050565b600060208201905081810360008301526101b181610175565b9050919050565b6000819050919050565b7f4e487b7100000000000000000000000000000000000000000000000000000000600052601160045260246000fd5b60006101fc826101b8565b9150610207836101b8565b925082820190508082111561021f5761021e6101c2565b5b9291505056fea264697066735822122084bfe660296a059257d8456876c640392614b9eb09a171d246af79c47f2fd38864736f6c63430008110033",
  "linkReferences": {},
  "deployedLinkReferences": {}
}