{
  "_format": "hh-sol-artifact-1",
  "contractName": "candidate",
  "sourceName": "contracts/Urna.sol",
  "abi": [
    {
      "inputs": [
        {
          "internalType": "string",
          "name": "_name",
          "type": "string"
        },
        {
          "internalType": "string",
          "name": "_describe",
          "type": "string"
        },
        {
          "internalType": "string",
          "name": "_candidatePhoto",
          "type": "string"
        },
        {
          "internalType": "string",
          "name": "_politicalPartyName",
          "type": "string"
        },
        {
          "internalType": "uint256",
          "name": "_politicalPartyNumber",
          "type": "uint256"
        },
        {
          "internalType": "string",
          "name": "_electedTo",
          "type": "string"
        },
        {
          "internalType": "address",
          "name": "_urnaAddress",
          "type": "address"
        }
      ],
      "stateMutability": "nonpayable",
      "type": "constructor"
    },
    {
      "inputs": [],
      "name": "returnDescribe",
      "outputs": [
        {
          "internalType": "string",
          "name": "",
          "type": "string"
        }
      ],
      "stateMutability": "view",
      "type": "function"
    },
    {
      "inputs": [],
      "name": "returnElectedTo",
      "outputs": [
        {
          "internalType": "string",
          "name": "",
          "type": "string"
        }
      ],
      "stateMutability": "view",
      "type": "function"
    },
    {
      "inputs": [],
      "name": "returnName",
      "outputs": [
        {
          "internalType": "string",
          "name": "",
          "type": "string"
        }
      ],
      "stateMutability": "view",
      "type": "function"
    },
    {
      "inputs": [],
      "name": "returnPhote",
      "outputs": [
        {
          "internalType": "string",
          "name": "",
          "type": "string"
        }
      ],
      "stateMutability": "view",
      "type": "function"
    },
    {
      "inputs": [],
      "name": "returnPoliticalPartyName",
      "outputs": [
        {
          "internalType": "string",
          "name": "",
          "type": "string"
        }
      ],
      "stateMutability": "view",
      "type": "function"
    },
    {
      "inputs": [],
      "name": "returnPoliticalPartyNumber",
      "outputs": [
        {
          "internalType": "uint256",
          "name": "",
          "type": "uint256"
        }
      ],
      "stateMutability": "view",
      "type": "function"
    },
    {
      "inputs": [],
      "name": "returnTotalVotes",
      "outputs": [
        {
          "internalType": "uint256",
          "name": "",
          "type": "uint256"
        }
      ],
      "stateMutability": "view",
      "type": "function"
    },
    {
      "inputs": [],
      "name": "voteInThisCandidate",
      "outputs": [],
      "stateMutability": "nonpayable",
      "type": "function"
    }
  ],
  "bytecode": "0x60806040523480156200001157600080fd5b50604051620011f9380380620011f9833981810160405281019062000037919062000321565b8660009081620000489190620006b0565b5085600190816200005a9190620006b0565b5083600390816200006c9190620006b0565b50826004819055508160059081620000859190620006b0565b508460029081620000979190620006b0565b5080600660006101000a81548173ffffffffffffffffffffffffffffffffffffffff021916908373ffffffffffffffffffffffffffffffffffffffff16021790555060006007819055505050505050505062000797565b6000604051905090565b600080fd5b600080fd5b600080fd5b600080fd5b6000601f19601f8301169050919050565b7f4e487b7100000000000000000000000000000000000000000000000000000000600052604160045260246000fd5b62000157826200010c565b810181811067ffffffffffffffff821117156200017957620001786200011d565b5b80604052505050565b60006200018e620000ee565b90506200019c82826200014c565b919050565b600067ffffffffffffffff821115620001bf57620001be6200011d565b5b620001ca826200010c565b9050602081019050919050565b60005b83811015620001f7578082015181840152602081019050620001da565b60008484015250505050565b60006200021a6200021484620001a1565b62000182565b90508281526020810184848401111562000239576200023862000107565b5b62000246848285620001d7565b509392505050565b600082601f83011262000266576200026562000102565b5b81516200027884826020860162000203565b91505092915050565b6000819050919050565b620002968162000281565b8114620002a257600080fd5b50565b600081519050620002b6816200028b565b92915050565b600073ffffffffffffffffffffffffffffffffffffffff82169050919050565b6000620002e982620002bc565b9050919050565b620002fb81620002dc565b81146200030757600080fd5b50565b6000815190506200031b81620002f0565b92915050565b600080600080600080600060e0888a031215620003435762000342620000f8565b5b600088015167ffffffffffffffff811115620003645762000363620000fd565b5b620003728a828b016200024e565b975050602088015167ffffffffffffffff811115620003965762000395620000fd565b5b620003a48a828b016200024e565b965050604088015167ffffffffffffffff811115620003c857620003c7620000fd565b5b620003d68a828b016200024e565b955050606088015167ffffffffffffffff811115620003fa57620003f9620000fd565b5b620004088a828b016200024e565b94505060806200041b8a828b01620002a5565b93505060a088015167ffffffffffffffff8111156200043f576200043e620000fd565b5b6200044d8a828b016200024e565b92505060c0620004608a828b016200030a565b91505092959891949750929550565b600081519050919050565b7f4e487b7100000000000000000000000000000000000000000000000000000000600052602260045260246000fd5b60006002820490506001821680620004c257607f821691505b602082108103620004d857620004d76200047a565b5b50919050565b60008190508160005260206000209050919050565b60006020601f8301049050919050565b600082821b905092915050565b600060088302620005427fffffffffffffffffffffffffffffffffffffffffffffffffffffffffffffffff8262000503565b6200054e868362000503565b95508019841693508086168417925050509392505050565b6000819050919050565b6000620005916200058b620005858462000281565b62000566565b62000281565b9050919050565b6000819050919050565b620005ad8362000570565b620005c5620005bc8262000598565b84845462000510565b825550505050565b600090565b620005dc620005cd565b620005e9818484620005a2565b505050565b5b81811015620006115762000605600082620005d2565b600181019050620005ef565b5050565b601f82111562000660576200062a81620004de565b6200063584620004f3565b8101602085101562000645578190505b6200065d6200065485620004f3565b830182620005ee565b50505b505050565b600082821c905092915050565b6000620006856000198460080262000665565b1980831691505092915050565b6000620006a0838362000672565b9150826002028217905092915050565b620006bb826200046f565b67ffffffffffffffff811115620006d757620006d66200011d565b5b620006e38254620004a9565b620006f082828562000615565b600060209050601f83116001811462000728576000841562000713578287015190505b6200071f858262000692565b8655506200078f565b601f1984166200073886620004de565b60005b8281101562000762578489015182556001820191506020850194506020810190506200073b565b868310156200078257848901516200077e601f89168262000672565b8355505b6001600288020188555050505b505050505050565b610a5280620007a76000396000f3fe608060405234801561001057600080fd5b50600436106100885760003560e01c8063a07d792d1161005b578063a07d792d14610105578063b8c270b21461010f578063bb1920331461012d578063e36fccc91461014b57610088565b806305e0a53e1461008d5780632270ae65146100ab5780635ea5cabe146100c95780637ae31c5c146100e7575b600080fd5b610095610169565b6040516100a29190610727565b60405180910390f35b6100b36101fb565b6040516100c09190610762565b60405180910390f35b6100d1610205565b6040516100de9190610727565b60405180910390f35b6100ef610297565b6040516100fc9190610727565b60405180910390f35b61010d610329565b005b610117610569565b6040516101249190610727565b60405180910390f35b6101356105fb565b6040516101429190610727565b60405180910390f35b61015361068d565b6040516101609190610762565b60405180910390f35b606060038054610178906107ac565b80601f01602080910402602001604051908101604052809291908181526020018280546101a4906107ac565b80156101f15780601f106101c6576101008083540402835291602001916101f1565b820191906000526020600020905b8154815290600101906020018083116101d457829003601f168201915b5050505050905090565b6000600454905090565b606060008054610214906107ac565b80601f0160208091040260200160405190810160405280929190818152602001828054610240906107ac565b801561028d5780601f106102625761010080835404028352916020019161028d565b820191906000526020600020905b81548152906001019060200180831161027057829003601f168201915b5050505050905090565b6060600280546102a6906107ac565b80601f01602080910402602001604051908101604052809291908181526020018280546102d2906107ac565b801561031f5780601f106102f45761010080835404028352916020019161031f565b820191906000526020600020905b81548152906001019060200180831161030257829003601f168201915b5050505050905090565b600860003373ffffffffffffffffffffffffffffffffffffffff1673ffffffffffffffffffffffffffffffffffffffff16815260200190815260200160002060009054906101000a900460ff16156103b6576040517f08c379a00000000000000000000000000000000000000000000000000000000081526004016103ad90610829565b60405180910390fd5b6000600660009054906101000a900473ffffffffffffffffffffffffffffffffffffffff16905060008173ffffffffffffffffffffffffffffffffffffffff16634ddc4e86336040518263ffffffff1660e01b815260040161041891906108c8565b602060405180830381865afa158015610435573d6000803e3d6000fd5b505050506040513d601f19601f820116820180604052508101906104599190610920565b90508061049b576040517f08c379a000000000000000000000000000000000000000000000000000000000815260040161049290610999565b60405180910390fd5b6001600860003373ffffffffffffffffffffffffffffffffffffffff1673ffffffffffffffffffffffffffffffffffffffff16815260200190815260200160002060006101000a81548160ff0219169083151502179055506001600860003273ffffffffffffffffffffffffffffffffffffffff1673ffffffffffffffffffffffffffffffffffffffff16815260200190815260200160002060006101000a81548160ff02191690831515021790555060016007600082825461055e91906109e8565b925050819055505050565b606060018054610578906107ac565b80601f01602080910402602001604051908101604052809291908181526020018280546105a4906107ac565b80156105f15780601f106105c6576101008083540402835291602001916105f1565b820191906000526020600020905b8154815290600101906020018083116105d457829003601f168201915b5050505050905090565b60606005805461060a906107ac565b80601f0160208091040260200160405190810160405280929190818152602001828054610636906107ac565b80156106835780601f1061065857610100808354040283529160200191610683565b820191906000526020600020905b81548152906001019060200180831161066657829003601f168201915b5050505050905090565b6000600754905090565b600081519050919050565b600082825260208201905092915050565b60005b838110156106d15780820151818401526020810190506106b6565b60008484015250505050565b6000601f19601f8301169050919050565b60006106f982610697565b61070381856106a2565b93506107138185602086016106b3565b61071c816106dd565b840191505092915050565b6000602082019050818103600083015261074181846106ee565b905092915050565b6000819050919050565b61075c81610749565b82525050565b60006020820190506107776000830184610753565b92915050565b7f4e487b7100000000000000000000000000000000000000000000000000000000600052602260045260246000fd5b600060028204905060018216806107c457607f821691505b6020821081036107d7576107d661077d565b5b50919050565b7f4552524f523a20596f75206861766520616c726561647920766f746564210000600082015250565b6000610813601e836106a2565b915061081e826107dd565b602082019050919050565b6000602082019050818103600083015261084281610806565b9050919050565b600073ffffffffffffffffffffffffffffffffffffffff82169050919050565b6000819050919050565b600061088e61088961088484610849565b610869565b610849565b9050919050565b60006108a082610873565b9050919050565b60006108b282610895565b9050919050565b6108c2816108a7565b82525050565b60006020820190506108dd60008301846108b9565b92915050565b600080fd5b60008115159050919050565b6108fd816108e8565b811461090857600080fd5b50565b60008151905061091a816108f4565b92915050565b600060208284031215610936576109356108e3565b5b60006109448482850161090b565b91505092915050565b7f4552524f523a20596f75206e6f742061726520456c6563746f72210000000000600082015250565b6000610983601b836106a2565b915061098e8261094d565b602082019050919050565b600060208201905081810360008301526109b281610976565b9050919050565b7f4e487b7100000000000000000000000000000000000000000000000000000000600052601160045260246000fd5b60006109f382610749565b91506109fe83610749565b9250828201905080821115610a1657610a156109b9565b5b9291505056fea26469706673582212206b21ffc17f7dae90c52be3f3edab3402ff6a6ac3d7bdbbe11a333b889879aa3864736f6c63430008110033",
  "linkReferences": {},
  "deployedLinkReferences": {}
}