{
  "_format": "hh-sol-artifact-1",
  "contractName": "candidateFactory",
  "sourceName": "contracts/Urna.sol",
  "abi": [
    {
      "inputs": [],
      "stateMutability": "nonpayable",
      "type": "constructor"
    },
    {
      "inputs": [
        {
          "internalType": "uint256",
          "name": "",
          "type": "uint256"
        }
      ],
      "name": "federalDeputies",
      "outputs": [
        {
          "internalType": "contract candidate",
          "name": "",
          "type": "address"
        }
      ],
      "stateMutability": "view",
      "type": "function"
    },
    {
      "inputs": [
        {
          "internalType": "uint256",
          "name": "",
          "type": "uint256"
        }
      ],
      "name": "governors",
      "outputs": [
        {
          "internalType": "contract candidate",
          "name": "",
          "type": "address"
        }
      ],
      "stateMutability": "view",
      "type": "function"
    },
    {
      "inputs": [
        {
          "internalType": "string",
          "name": "_name",
          "type": "string"
        },
        {
          "internalType": "string",
          "name": "_describe",
          "type": "string"
        },
        {
          "internalType": "string",
          "name": "_candidatePhoto",
          "type": "string"
        },
        {
          "internalType": "string",
          "name": "_politicalPartyName",
          "type": "string"
        },
        {
          "internalType": "uint256",
          "name": "_politicalPartyNumber",
          "type": "uint256"
        },
        {
          "internalType": "string",
          "name": "_electedTo",
          "type": "string"
        }
      ],
      "name": "newCandidateFederalDeputie",
      "outputs": [],
      "stateMutability": "nonpayable",
      "type": "function"
    },
    {
      "inputs": [
        {
          "internalType": "string",
          "name": "_name",
          "type": "string"
        },
        {
          "internalType": "string",
          "name": "_describe",
          "type": "string"
        },
        {
          "internalType": "string",
          "name": "_candidatePhoto",
          "type": "string"
        },
        {
          "internalType": "string",
          "name": "_politicalPartyName",
          "type": "string"
        },
        {
          "internalType": "uint256",
          "name": "_politicalPartyNumber",
          "type": "uint256"
        },
        {
          "internalType": "string",
          "name": "_electedTo",
          "type": "string"
        }
      ],
      "name": "newCandidateGovernor",
      "outputs": [],
      "stateMutability": "nonpayable",
      "type": "function"
    },
    {
      "inputs": [
        {
          "internalType": "string",
          "name": "_name",
          "type": "string"
        },
        {
          "internalType": "string",
          "name": "_describe",
          "type": "string"
        },
        {
          "internalType": "string",
          "name": "_candidatePhoto",
          "type": "string"
        },
        {
          "internalType": "string",
          "name": "_politicalPartyName",
          "type": "string"
        },
        {
          "internalType": "uint256",
          "name": "_politicalPartyNumber",
          "type": "uint256"
        },
        {
          "internalType": "string",
          "name": "_electedTo",
          "type": "string"
        }
      ],
      "name": "newCandidatePresident",
      "outputs": [],
      "stateMutability": "nonpayable",
      "type": "function"
    },
    {
      "inputs": [
        {
          "internalType": "string",
          "name": "_name",
          "type": "string"
        },
        {
          "internalType": "string",
          "name": "_describe",
          "type": "string"
        },
        {
          "internalType": "string",
          "name": "_candidatePhoto",
          "type": "string"
        },
        {
          "internalType": "string",
          "name": "_politicalPartyName",
          "type": "string"
        },
        {
          "internalType": "uint256",
          "name": "_politicalPartyNumber",
          "type": "uint256"
        },
        {
          "internalType": "string",
          "name": "_electedTo",
          "type": "string"
        }
      ],
      "name": "newCandidateSenator",
      "outputs": [],
      "stateMutability": "nonpayable",
      "type": "function"
    },
    {
      "inputs": [
        {
          "internalType": "string",
          "name": "_name",
          "type": "string"
        },
        {
          "internalType": "string",
          "name": "_describe",
          "type": "string"
        },
        {
          "internalType": "string",
          "name": "_candidatePhoto",
          "type": "string"
        },
        {
          "internalType": "string",
          "name": "_politicalPartyName",
          "type": "string"
        },
        {
          "internalType": "uint256",
          "name": "_politicalPartyNumber",
          "type": "uint256"
        },
        {
          "internalType": "string",
          "name": "_electedTo",
          "type": "string"
        }
      ],
      "name": "newCandidateStateDeputie",
      "outputs": [],
      "stateMutability": "nonpayable",
      "type": "function"
    },
    {
      "inputs": [
        {
          "internalType": "uint256",
          "name": "",
          "type": "uint256"
        }
      ],
      "name": "presidents",
      "outputs": [
        {
          "internalType": "contract candidate",
          "name": "",
          "type": "address"
        }
      ],
      "stateMutability": "view",
      "type": "function"
    },
    {
      "inputs": [
        {
          "internalType": "uint256",
          "name": "",
          "type": "uint256"
        }
      ],
      "name": "senators",
      "outputs": [
        {
          "internalType": "contract candidate",
          "name": "",
          "type": "address"
        }
      ],
      "stateMutability": "view",
      "type": "function"
    },
    {
      "inputs": [
        {
          "internalType": "uint256",
          "name": "",
          "type": "uint256"
        }
      ],
      "name": "stateDeputies",
      "outputs": [
        {
          "internalType": "contract candidate",
          "name": "",
          "type": "address"
        }
      ],
      "stateMutability": "view",
      "type": "function"
    },
    {
      "inputs": [],
      "name": "viewCandidatesFederalDeputies",
      "outputs": [
        {
          "internalType": "contract candidate[]",
          "name": "",
          "type": "address[]"
        }
      ],
      "stateMutability": "view",
      "type": "function"
    },
    {
      "inputs": [],
      "name": "viewCandidatesGovernors",
      "outputs": [
        {
          "internalType": "contract candidate[]",
          "name": "",
          "type": "address[]"
        }
      ],
      "stateMutability": "view",
      "type": "function"
    },
    {
      "inputs": [],
      "name": "viewCandidatesPresidents",
      "outputs": [
        {
          "internalType": "contract candidate[]",
          "name": "",
          "type": "address[]"
        }
      ],
      "stateMutability": "view",
      "type": "function"
    },
    {
      "inputs": [],
      "name": "viewCandidatesSenators",
      "outputs": [
        {
          "internalType": "contract candidate[]",
          "name": "",
          "type": "address[]"
        }
      ],
      "stateMutability": "view",
      "type": "function"
    },
    {
      "inputs": [],
      "name": "viewCandidatesStateDeputies",
      "outputs": [
        {
          "internalType": "contract candidate[]",
          "name": "",
          "type": "address[]"
        }
      ],
      "stateMutability": "view",
      "type": "function"
    }
  ],
  "bytecode": "0x608060405234801561001057600080fd5b5033600560006101000a81548173ffffffffffffffffffffffffffffffffffffffff021916908373ffffffffffffffffffffffffffffffffffffffff160217905550611daf806100616000396000f3fe60806040523480156200001157600080fd5b50600436106200010c5760003560e01c80636e16dc0111620000a5578063a22c7aff116200006f578063a22c7aff14620002b9578063a7277b0014620002ef578063b5295aa41462000325578063f989755d1462000347576200010c565b80636e16dc01146200021f578063818c59a1146200023f578063856ebb061462000261578063863d26031462000297576200010c565b80631372d26511620000e75780631372d265146200017157806344eaf38e14620001a7578063539be77614620001c757806367fb30dd14620001fd576200010c565b806307ae61ee14620001115780630fb4cdd8146200013157806310d4bf2f1462000151575b600080fd5b6200012f600480360381019062000129919062000f96565b62000369565b005b6200014f600480360381019062000149919062000f96565b620004af565b005b6200016f600480360381019062000169919062000f96565b620005f5565b005b6200018f6004803603810190620001899190620010cd565b6200073b565b6040516200019e91906200118a565b60405180910390f35b620001c56004803603810190620001bf919062000f96565b6200077b565b005b620001e56004803603810190620001df9190620010cd565b620008c1565b604051620001f491906200118a565b60405180910390f35b6200020762000901565b60405162000216919062001275565b60405180910390f35b6200023d600480360381019062000237919062000f96565b62000991565b005b6200024962000ad7565b60405162000258919062001275565b60405180910390f35b6200027f6004803603810190620002799190620010cd565b62000b67565b6040516200028e91906200118a565b60405180910390f35b620002a162000ba7565b604051620002b0919062001275565b60405180910390f35b620002d76004803603810190620002d19190620010cd565b62000c37565b604051620002e691906200118a565b60405180910390f35b6200030d6004803603810190620003079190620010cd565b62000c77565b6040516200031c91906200118a565b60405180910390f35b6200032f62000cb7565b6040516200033e919062001275565b60405180910390f35b6200035162000d47565b60405162000360919062001275565b60405180910390f35b600560009054906101000a900473ffffffffffffffffffffffffffffffffffffffff1673ffffffffffffffffffffffffffffffffffffffff163373ffffffffffffffffffffffffffffffffffffffff1614620003fc576040517f08c379a0000000000000000000000000000000000000000000000000000000008152600401620003f390620012fa565b60405180910390fd5b6000868686868686604051620004129062000dd7565b6200042396959493929190620013a5565b604051809103906000f08015801562000440573d6000803e3d6000fd5b5090506003819080600181540180825580915050600190039060005260206000200160009091909190916101000a81548173ffffffffffffffffffffffffffffffffffffffff021916908373ffffffffffffffffffffffffffffffffffffffff16021790555050505050505050565b600560009054906101000a900473ffffffffffffffffffffffffffffffffffffffff1673ffffffffffffffffffffffffffffffffffffffff163373ffffffffffffffffffffffffffffffffffffffff161462000542576040517f08c379a00000000000000000000000000000000000000000000000000000000081526004016200053990620012fa565b60405180910390fd5b6000868686868686604051620005589062000dd7565b6200056996959493929190620013a5565b604051809103906000f08015801562000586573d6000803e3d6000fd5b5090506000819080600181540180825580915050600190039060005260206000200160009091909190916101000a81548173ffffffffffffffffffffffffffffffffffffffff021916908373ffffffffffffffffffffffffffffffffffffffff16021790555050505050505050565b600560009054906101000a900473ffffffffffffffffffffffffffffffffffffffff1673ffffffffffffffffffffffffffffffffffffffff163373ffffffffffffffffffffffffffffffffffffffff161462000688576040517f08c379a00000000000000000000000000000000000000000000000000000000081526004016200067f90620012fa565b60405180910390fd5b60008686868686866040516200069e9062000dd7565b620006af96959493929190620013a5565b604051809103906000f080158015620006cc573d6000803e3d6000fd5b5090506001819080600181540180825580915050600190039060005260206000200160009091909190916101000a81548173ffffffffffffffffffffffffffffffffffffffff021916908373ffffffffffffffffffffffffffffffffffffffff16021790555050505050505050565b600081815481106200074c57600080fd5b906000526020600020016000915054906101000a900473ffffffffffffffffffffffffffffffffffffffff1681565b600560009054906101000a900473ffffffffffffffffffffffffffffffffffffffff1673ffffffffffffffffffffffffffffffffffffffff163373ffffffffffffffffffffffffffffffffffffffff16146200080e576040517f08c379a00000000000000000000000000000000000000000000000000000000081526004016200080590620012fa565b60405180910390fd5b6000868686868686604051620008249062000dd7565b6200083596959493929190620013a5565b604051809103906000f08015801562000852573d6000803e3d6000fd5b5090506002819080600181540180825580915050600190039060005260206000200160009091909190916101000a81548173ffffffffffffffffffffffffffffffffffffffff021916908373ffffffffffffffffffffffffffffffffffffffff16021790555050505050505050565b60018181548110620008d257600080fd5b906000526020600020016000915054906101000a900473ffffffffffffffffffffffffffffffffffffffff1681565b606060008054806020026020016040519081016040528092919081815260200182805480156200098757602002820191906000526020600020905b8160009054906101000a900473ffffffffffffffffffffffffffffffffffffffff1673ffffffffffffffffffffffffffffffffffffffff16815260200190600101908083116200093c575b5050505050905090565b600560009054906101000a900473ffffffffffffffffffffffffffffffffffffffff1673ffffffffffffffffffffffffffffffffffffffff163373ffffffffffffffffffffffffffffffffffffffff161462000a24576040517f08c379a000000000000000000000000000000000000000000000000000000000815260040162000a1b90620012fa565b60405180910390fd5b600086868686868660405162000a3a9062000dd7565b62000a4b96959493929190620013a5565b604051809103906000f08015801562000a68573d6000803e3d6000fd5b5090506004819080600181540180825580915050600190039060005260206000200160009091909190916101000a81548173ffffffffffffffffffffffffffffffffffffffff021916908373ffffffffffffffffffffffffffffffffffffffff16021790555050505050505050565b6060600380548060200260200160405190810160405280929190818152602001828054801562000b5d57602002820191906000526020600020905b8160009054906101000a900473ffffffffffffffffffffffffffffffffffffffff1673ffffffffffffffffffffffffffffffffffffffff168152602001906001019080831162000b12575b5050505050905090565b6002818154811062000b7857600080fd5b906000526020600020016000915054906101000a900473ffffffffffffffffffffffffffffffffffffffff1681565b6060600280548060200260200160405190810160405280929190818152602001828054801562000c2d57602002820191906000526020600020905b8160009054906101000a900473ffffffffffffffffffffffffffffffffffffffff1673ffffffffffffffffffffffffffffffffffffffff168152602001906001019080831162000be2575b5050505050905090565b6004818154811062000c4857600080fd5b906000526020600020016000915054906101000a900473ffffffffffffffffffffffffffffffffffffffff1681565b6003818154811062000c8857600080fd5b906000526020600020016000915054906101000a900473ffffffffffffffffffffffffffffffffffffffff1681565b6060600180548060200260200160405190810160405280929190818152602001828054801562000d3d57602002820191906000526020600020905b8160009054906101000a900473ffffffffffffffffffffffffffffffffffffffff1673ffffffffffffffffffffffffffffffffffffffff168152602001906001019080831162000cf2575b5050505050905090565b6060600480548060200260200160405190810160405280929190818152602001828054801562000dcd57602002820191906000526020600020905b8160009054906101000a900473ffffffffffffffffffffffffffffffffffffffff1673ffffffffffffffffffffffffffffffffffffffff168152602001906001019080831162000d82575b5050505050905090565b610944806200143683390190565b6000604051905090565b600080fd5b600080fd5b600080fd5b600080fd5b6000601f19601f8301169050919050565b7f4e487b7100000000000000000000000000000000000000000000000000000000600052604160045260246000fd5b62000e4e8262000e03565b810181811067ffffffffffffffff8211171562000e705762000e6f62000e14565b5b80604052505050565b600062000e8562000de5565b905062000e93828262000e43565b919050565b600067ffffffffffffffff82111562000eb65762000eb562000e14565b5b62000ec18262000e03565b9050602081019050919050565b82818337600083830152505050565b600062000ef462000eee8462000e98565b62000e79565b90508281526020810184848401111562000f135762000f1262000dfe565b5b62000f2084828562000ece565b509392505050565b600082601f83011262000f405762000f3f62000df9565b5b813562000f5284826020860162000edd565b91505092915050565b6000819050919050565b62000f708162000f5b565b811462000f7c57600080fd5b50565b60008135905062000f908162000f65565b92915050565b60008060008060008060c0878903121562000fb65762000fb562000def565b5b600087013567ffffffffffffffff81111562000fd75762000fd662000df4565b5b62000fe589828a0162000f28565b965050602087013567ffffffffffffffff81111562001009576200100862000df4565b5b6200101789828a0162000f28565b955050604087013567ffffffffffffffff8111156200103b576200103a62000df4565b5b6200104989828a0162000f28565b945050606087013567ffffffffffffffff8111156200106d576200106c62000df4565b5b6200107b89828a0162000f28565b93505060806200108e89828a0162000f7f565b92505060a087013567ffffffffffffffff811115620010b257620010b162000df4565b5b620010c089828a0162000f28565b9150509295509295509295565b600060208284031215620010e657620010e562000def565b5b6000620010f68482850162000f7f565b91505092915050565b600073ffffffffffffffffffffffffffffffffffffffff82169050919050565b6000819050919050565b60006200114a620011446200113e84620010ff565b6200111f565b620010ff565b9050919050565b60006200115e8262001129565b9050919050565b6000620011728262001151565b9050919050565b620011848162001165565b82525050565b6000602082019050620011a1600083018462001179565b92915050565b600081519050919050565b600082825260208201905092915050565b6000819050602082019050919050565b620011de8162001165565b82525050565b6000620011f28383620011d3565b60208301905092915050565b6000602082019050919050565b60006200121882620011a7565b620012248185620011b2565b93506200123183620011c3565b8060005b83811015620012685781516200124c8882620011e4565b97506200125983620011fe565b92505060018101905062001235565b5085935050505092915050565b600060208201905081810360008301526200129181846200120b565b905092915050565b600082825260208201905092915050565b7f4552524f523a20596f75277265206e6f7420746865206f776e65722100000000600082015250565b6000620012e2601c8362001299565b9150620012ef82620012aa565b602082019050919050565b600060208201905081810360008301526200131581620012d3565b9050919050565b600081519050919050565b60005b83811015620013475780820151818401526020810190506200132a565b60008484015250505050565b600062001360826200131c565b6200136c818562001299565b93506200137e81856020860162001327565b620013898162000e03565b840191505092915050565b6200139f8162000f5b565b82525050565b600060c0820190508181036000830152620013c1818962001353565b90508181036020830152620013d7818862001353565b90508181036040830152620013ed818762001353565b9050818103606083015262001403818662001353565b905062001414608083018562001394565b81810360a083015262001428818462001353565b905097965050505050505056fe60806040523480156200001157600080fd5b50604051620009443803806200094483398181016040528101906200003791906200027a565b8560009081620000489190620005f2565b5084600190816200005a9190620005f2565b5082600390816200006c9190620005f2565b50816004819055508060059081620000859190620005f2565b508360029081620000979190620005f2565b506000600681905550505050505050620006d9565b6000604051905090565b600080fd5b600080fd5b600080fd5b600080fd5b6000601f19601f8301169050919050565b7f4e487b7100000000000000000000000000000000000000000000000000000000600052604160045260246000fd5b6200011582620000ca565b810181811067ffffffffffffffff82111715620001375762000136620000db565b5b80604052505050565b60006200014c620000ac565b90506200015a82826200010a565b919050565b600067ffffffffffffffff8211156200017d576200017c620000db565b5b6200018882620000ca565b9050602081019050919050565b60005b83811015620001b557808201518184015260208101905062000198565b60008484015250505050565b6000620001d8620001d2846200015f565b62000140565b905082815260208101848484011115620001f757620001f6620000c5565b5b6200020484828562000195565b509392505050565b600082601f830112620002245762000223620000c0565b5b815162000236848260208601620001c1565b91505092915050565b6000819050919050565b62000254816200023f565b81146200026057600080fd5b50565b600081519050620002748162000249565b92915050565b60008060008060008060c087890312156200029a5762000299620000b6565b5b600087015167ffffffffffffffff811115620002bb57620002ba620000bb565b5b620002c989828a016200020c565b965050602087015167ffffffffffffffff811115620002ed57620002ec620000bb565b5b620002fb89828a016200020c565b955050604087015167ffffffffffffffff8111156200031f576200031e620000bb565b5b6200032d89828a016200020c565b945050606087015167ffffffffffffffff811115620003515762000350620000bb565b5b6200035f89828a016200020c565b93505060806200037289828a0162000263565b92505060a087015167ffffffffffffffff811115620003965762000395620000bb565b5b620003a489828a016200020c565b9150509295509295509295565b600081519050919050565b7f4e487b7100000000000000000000000000000000000000000000000000000000600052602260045260246000fd5b600060028204905060018216806200040457607f821691505b6020821081036200041a5762000419620003bc565b5b50919050565b60008190508160005260206000209050919050565b60006020601f8301049050919050565b600082821b905092915050565b600060088302620004847fffffffffffffffffffffffffffffffffffffffffffffffffffffffffffffffff8262000445565b62000490868362000445565b95508019841693508086168417925050509392505050565b6000819050919050565b6000620004d3620004cd620004c7846200023f565b620004a8565b6200023f565b9050919050565b6000819050919050565b620004ef83620004b2565b62000507620004fe82620004da565b84845462000452565b825550505050565b600090565b6200051e6200050f565b6200052b818484620004e4565b505050565b5b8181101562000553576200054760008262000514565b60018101905062000531565b5050565b601f821115620005a2576200056c8162000420565b620005778462000435565b8101602085101562000587578190505b6200059f620005968562000435565b83018262000530565b50505b505050565b600082821c905092915050565b6000620005c760001984600802620005a7565b1980831691505092915050565b6000620005e28383620005b4565b9150826002028217905092915050565b620005fd82620003b1565b67ffffffffffffffff811115620006195762000618620000db565b5b620006258254620003eb565b6200063282828562000557565b600060209050601f8311600181146200066a576000841562000655578287015190505b620006618582620005d4565b865550620006d1565b601f1984166200067a8662000420565b60005b82811015620006a4578489015182556001820191506020850194506020810190506200067d565b86831015620006c45784890151620006c0601f891682620005b4565b8355505b6001600288020188555050505b505050505050565b61025b80620006e96000396000f3fe608060405234801561001057600080fd5b506004361061002b5760003560e01c8063a07d792d14610030575b600080fd5b61003861003a565b005b600760003373ffffffffffffffffffffffffffffffffffffffff1673ffffffffffffffffffffffffffffffffffffffff16815260200190815260200160002060009054906101000a900460ff16156100c7576040517f08c379a00000000000000000000000000000000000000000000000000000000081526004016100be90610198565b60405180910390fd5b6001600760003373ffffffffffffffffffffffffffffffffffffffff1673ffffffffffffffffffffffffffffffffffffffff16815260200190815260200160002060006101000a81548160ff02191690831515021790555060016006600082825461013291906101f1565b92505081905550565b600082825260208201905092915050565b7f4552524f523a20596f75206861766520616c726561647920766f746564210000600082015250565b6000610182601e8361013b565b915061018d8261014c565b602082019050919050565b600060208201905081810360008301526101b181610175565b9050919050565b6000819050919050565b7f4e487b7100000000000000000000000000000000000000000000000000000000600052601160045260246000fd5b60006101fc826101b8565b9150610207836101b8565b925082820190508082111561021f5761021e6101c2565b5b9291505056fea264697066735822122084bfe660296a059257d8456876c640392614b9eb09a171d246af79c47f2fd38864736f6c63430008110033a2646970667358221220cea592a6c709a320b543c674cb1fb16b79c43b28fb4ca7671285dbae9e84f82664736f6c63430008110033",
  "linkReferences": {},
  "deployedLinkReferences": {}
}