{
  "_format": "hh-sol-artifact-1",
  "contractName": "urna",
  "sourceName": "contracts/Urna.sol",
  "abi": [
    {
      "inputs": [
        {
          "internalType": "uint256",
          "name": "time_",
          "type": "uint256"
        }
      ],
      "stateMutability": "nonpayable",
      "type": "constructor"
    },
    {
      "inputs": [
        {
          "internalType": "uint256",
          "name": "",
          "type": "uint256"
        }
      ],
      "name": "electors",
      "outputs": [
        {
          "internalType": "contract elector",
          "name": "",
          "type": "address"
        }
      ],
      "stateMutability": "view",
      "type": "function"
    },
    {
      "inputs": [
        {
          "internalType": "uint256",
          "name": "",
          "type": "uint256"
        }
      ],
      "name": "federalDeputies",
      "outputs": [
        {
          "internalType": "contract candidate",
          "name": "",
          "type": "address"
        }
      ],
      "stateMutability": "view",
      "type": "function"
    },
    {
      "inputs": [
        {
          "internalType": "uint256",
          "name": "",
          "type": "uint256"
        }
      ],
      "name": "governors",
      "outputs": [
        {
          "internalType": "contract candidate",
          "name": "",
          "type": "address"
        }
      ],
      "stateMutability": "view",
      "type": "function"
    },
    {
      "inputs": [
        {
          "internalType": "string",
          "name": "_name",
          "type": "string"
        },
        {
          "internalType": "string",
          "name": "_describe",
          "type": "string"
        },
        {
          "internalType": "string",
          "name": "_candidatePhoto",
          "type": "string"
        },
        {
          "internalType": "string",
          "name": "_politicalPartyName",
          "type": "string"
        },
        {
          "internalType": "uint256",
          "name": "_politicalPartyNumber",
          "type": "uint256"
        }
      ],
      "name": "newCandidateFederalDeputie",
      "outputs": [],
      "stateMutability": "nonpayable",
      "type": "function"
    },
    {
      "inputs": [
        {
          "internalType": "string",
          "name": "_name",
          "type": "string"
        },
        {
          "internalType": "string",
          "name": "_describe",
          "type": "string"
        },
        {
          "internalType": "string",
          "name": "_candidatePhoto",
          "type": "string"
        },
        {
          "internalType": "string",
          "name": "_politicalPartyName",
          "type": "string"
        },
        {
          "internalType": "uint256",
          "name": "_politicalPartyNumber",
          "type": "uint256"
        }
      ],
      "name": "newCandidateGovernor",
      "outputs": [],
      "stateMutability": "nonpayable",
      "type": "function"
    },
    {
      "inputs": [
        {
          "internalType": "string",
          "name": "_name",
          "type": "string"
        },
        {
          "internalType": "string",
          "name": "_describe",
          "type": "string"
        },
        {
          "internalType": "string",
          "name": "_candidatePhoto",
          "type": "string"
        },
        {
          "internalType": "string",
          "name": "_politicalPartyName",
          "type": "string"
        },
        {
          "internalType": "uint256",
          "name": "_politicalPartyNumber",
          "type": "uint256"
        }
      ],
      "name": "newCandidatePresident",
      "outputs": [],
      "stateMutability": "nonpayable",
      "type": "function"
    },
    {
      "inputs": [
        {
          "internalType": "string",
          "name": "_name",
          "type": "string"
        },
        {
          "internalType": "string",
          "name": "_describe",
          "type": "string"
        },
        {
          "internalType": "string",
          "name": "_candidatePhoto",
          "type": "string"
        },
        {
          "internalType": "string",
          "name": "_politicalPartyName",
          "type": "string"
        },
        {
          "internalType": "uint256",
          "name": "_politicalPartyNumber",
          "type": "uint256"
        }
      ],
      "name": "newCandidateSenator",
      "outputs": [],
      "stateMutability": "nonpayable",
      "type": "function"
    },
    {
      "inputs": [
        {
          "internalType": "string",
          "name": "_name",
          "type": "string"
        },
        {
          "internalType": "string",
          "name": "_describe",
          "type": "string"
        },
        {
          "internalType": "string",
          "name": "_candidatePhoto",
          "type": "string"
        },
        {
          "internalType": "string",
          "name": "_politicalPartyName",
          "type": "string"
        },
        {
          "internalType": "uint256",
          "name": "_politicalPartyNumber",
          "type": "uint256"
        }
      ],
      "name": "newCandidateStateDeputie",
      "outputs": [],
      "stateMutability": "nonpayable",
      "type": "function"
    },
    {
      "inputs": [
        {
          "internalType": "string",
          "name": "_name",
          "type": "string"
        },
        {
          "internalType": "string",
          "name": "_cpf",
          "type": "string"
        },
        {
          "internalType": "address",
          "name": "_owner",
          "type": "address"
        }
      ],
      "name": "newElector",
      "outputs": [],
      "stateMutability": "nonpayable",
      "type": "function"
    },
    {
      "inputs": [
        {
          "internalType": "uint256",
          "name": "",
          "type": "uint256"
        }
      ],
      "name": "presidents",
      "outputs": [
        {
          "internalType": "contract candidate",
          "name": "",
          "type": "address"
        }
      ],
      "stateMutability": "view",
      "type": "function"
    },
    {
      "inputs": [],
      "name": "returnElectorAddressKey",
      "outputs": [
        {
          "internalType": "contract elector",
          "name": "",
          "type": "address"
        }
      ],
      "stateMutability": "view",
      "type": "function"
    },
    {
      "inputs": [
        {
          "internalType": "contract elector",
          "name": "_address",
          "type": "address"
        }
      ],
      "name": "returnElectorPerm",
      "outputs": [
        {
          "internalType": "bool",
          "name": "",
          "type": "bool"
        }
      ],
      "stateMutability": "view",
      "type": "function"
    },
    {
      "inputs": [
        {
          "internalType": "uint256",
          "name": "",
          "type": "uint256"
        }
      ],
      "name": "senators",
      "outputs": [
        {
          "internalType": "contract candidate",
          "name": "",
          "type": "address"
        }
      ],
      "stateMutability": "view",
      "type": "function"
    },
    {
      "inputs": [
        {
          "internalType": "uint256",
          "name": "",
          "type": "uint256"
        }
      ],
      "name": "stateDeputies",
      "outputs": [
        {
          "internalType": "contract candidate",
          "name": "",
          "type": "address"
        }
      ],
      "stateMutability": "view",
      "type": "function"
    },
    {
      "inputs": [],
      "name": "time",
      "outputs": [
        {
          "internalType": "uint256",
          "name": "",
          "type": "uint256"
        }
      ],
      "stateMutability": "view",
      "type": "function"
    },
    {
      "inputs": [],
      "name": "viewCandidatesFederalDeputies",
      "outputs": [
        {
          "internalType": "contract candidate[]",
          "name": "",
          "type": "address[]"
        }
      ],
      "stateMutability": "view",
      "type": "function"
    },
    {
      "inputs": [],
      "name": "viewCandidatesGovernors",
      "outputs": [
        {
          "internalType": "contract candidate[]",
          "name": "",
          "type": "address[]"
        }
      ],
      "stateMutability": "view",
      "type": "function"
    },
    {
      "inputs": [],
      "name": "viewCandidatesPresidents",
      "outputs": [
        {
          "internalType": "contract candidate[]",
          "name": "",
          "type": "address[]"
        }
      ],
      "stateMutability": "view",
      "type": "function"
    },
    {
      "inputs": [],
      "name": "viewCandidatesSenators",
      "outputs": [
        {
          "internalType": "contract candidate[]",
          "name": "",
          "type": "address[]"
        }
      ],
      "stateMutability": "view",
      "type": "function"
    },
    {
      "inputs": [],
      "name": "viewCandidatesStateDeputies",
      "outputs": [
        {
          "internalType": "contract candidate[]",
          "name": "",
          "type": "address[]"
        }
      ],
      "stateMutability": "view",
      "type": "function"
    },
    {
      "inputs": [],
      "name": "viewElectors",
      "outputs": [
        {
          "internalType": "contract elector[]",
          "name": "",
          "type": "address[]"
        }
      ],
      "stateMutability": "view",
      "type": "function"
    },
    {
      "inputs": [
        {
          "internalType": "address",
          "name": "candidate_",
          "type": "address"
        }
      ],
      "name": "viewTotalVotes",
      "outputs": [
        {
          "internalType": "uint256",
          "name": "",
          "type": "uint256"
        }
      ],
      "stateMutability": "view",
      "type": "function"
    }
  ],
  "bytecode": "0x60806040523480156200001157600080fd5b50604051620053e6380380620053e68339818101604052810190620000379190620000e3565b33600960006101000a81548173ffffffffffffffffffffffffffffffffffffffff021916908373ffffffffffffffffffffffffffffffffffffffff160217905550620151808162000089919062000144565b426200009691906200018f565b600a8190555050620001ca565b600080fd5b6000819050919050565b620000bd81620000a8565b8114620000c957600080fd5b50565b600081519050620000dd81620000b2565b92915050565b600060208284031215620000fc57620000fb620000a3565b5b60006200010c84828501620000cc565b91505092915050565b7f4e487b7100000000000000000000000000000000000000000000000000000000600052601160045260246000fd5b60006200015182620000a8565b91506200015e83620000a8565b92508282026200016e81620000a8565b9150828204841483151762000188576200018762000115565b5b5092915050565b60006200019c82620000a8565b9150620001a983620000a8565b9250828201905080821115620001c457620001c362000115565b5b92915050565b61520c80620001da6000396000f3fe60806040523480156200001157600080fd5b5060043610620001605760003560e01c80638a2e0fc411620000c9578063b39138a31162000087578063b39138a3146200041d578063b5295aa4146200043d578063c23b3ccc146200045f578063c71813b4146200047f578063d5db3fa614620004a1578063f989755d14620004c35762000160565b80638a2e0fc414620003255780638ed9a7511462000345578063a22c7aff146200037b578063a7277b0014620003b1578063ac9b923014620003e75762000160565b8063540012c81162000123578063540012c8146200024957806367fb30dd14620002695780636e9a7d4d146200028b578063818c59a114620002ab578063856ebb0614620002cd578063863d260314620003035762000160565b8063035d359614620001655780631372d265146200018557806316ada54714620001bb5780634ddc4e8614620001dd578063539be7761462000213575b600080fd5b6200018360048036038101906200017d9190620015eb565b620004e5565b005b620001a360048036038101906200019d9190620016ef565b6200062a565b604051620001b29190620017ac565b60405180910390f35b620001c56200066a565b604051620001d49190620017da565b60405180910390f35b620001fb6004803603810190620001f5919062001850565b62000670565b6040516200020a91906200189f565b60405180910390f35b6200023160048036038101906200022b9190620016ef565b620006c6565b604051620002409190620017ac565b60405180910390f35b620002676004803603810190620002619190620015eb565b62000706565b005b620002736200084b565b6040516200028291906200198a565b60405180910390f35b620002a96004803603810190620002a39190620015eb565b620008db565b005b620002b562000a20565b604051620002c491906200198a565b60405180910390f35b620002eb6004803603810190620002e59190620016ef565b62000ab0565b604051620002fa9190620017ac565b60405180910390f35b6200030d62000af0565b6040516200031c91906200198a565b60405180910390f35b6200034360048036038101906200033d9190620019df565b62000b80565b005b6200036360048036038101906200035d919062001a79565b62000e3d565b604051620003729190620017da565b60405180910390f35b620003996004803603810190620003939190620016ef565b62000ebd565b604051620003a89190620017ac565b60405180910390f35b620003cf6004803603810190620003c99190620016ef565b62000efd565b604051620003de9190620017ac565b60405180910390f35b620004056004803603810190620003ff9190620016ef565b62000f3d565b60405162000414919062001ad0565b60405180910390f35b6200043b6004803603810190620004359190620015eb565b62000f7d565b005b62000447620010c2565b6040516200045691906200198a565b60405180910390f35b6200047d6004803603810190620004779190620015eb565b62001152565b005b6200048962001297565b60405162000498919062001ad0565b60405180910390f35b620004ab620012fe565b604051620004ba919062001baa565b60405180910390f35b620004cd6200138e565b604051620004dc91906200198a565b60405180910390f35b600960009054906101000a900473ffffffffffffffffffffffffffffffffffffffff1673ffffffffffffffffffffffffffffffffffffffff163373ffffffffffffffffffffffffffffffffffffffff161462000578576040517f08c379a00000000000000000000000000000000000000000000000000000000081526004016200056f9062001c2f565b60405180910390fd5b60008585858585306040516200058e906200141e565b6200059f9695949392919062001d2a565b604051809103906000f080158015620005bc573d6000803e3d6000fd5b5090506004819080600181540180825580915050600190039060005260206000200160009091909190916101000a81548173ffffffffffffffffffffffffffffffffffffffff021916908373ffffffffffffffffffffffffffffffffffffffff160217905550505050505050565b600081815481106200063b57600080fd5b906000526020600020016000915054906101000a900473ffffffffffffffffffffffffffffffffffffffff1681565b600a5481565b6000600660008373ffffffffffffffffffffffffffffffffffffffff1673ffffffffffffffffffffffffffffffffffffffff16815260200190815260200160002060009054906101000a900460ff169050919050565b60018181548110620006d757600080fd5b906000526020600020016000915054906101000a900473ffffffffffffffffffffffffffffffffffffffff1681565b600960009054906101000a900473ffffffffffffffffffffffffffffffffffffffff1673ffffffffffffffffffffffffffffffffffffffff163373ffffffffffffffffffffffffffffffffffffffff161462000799576040517f08c379a0000000000000000000000000000000000000000000000000000000008152600401620007909062001c2f565b60405180910390fd5b6000858585858530604051620007af906200141e565b620007c09695949392919062001e18565b604051809103906000f080158015620007dd573d6000803e3d6000fd5b5090506000819080600181540180825580915050600190039060005260206000200160009091909190916101000a81548173ffffffffffffffffffffffffffffffffffffffff021916908373ffffffffffffffffffffffffffffffffffffffff160217905550505050505050565b60606000805480602002602001604051908101604052809291908181526020018280548015620008d157602002820191906000526020600020905b8160009054906101000a900473ffffffffffffffffffffffffffffffffffffffff1673ffffffffffffffffffffffffffffffffffffffff168152602001906001019080831162000886575b5050505050905090565b600960009054906101000a900473ffffffffffffffffffffffffffffffffffffffff1673ffffffffffffffffffffffffffffffffffffffff163373ffffffffffffffffffffffffffffffffffffffff16146200096e576040517f08c379a0000000000000000000000000000000000000000000000000000000008152600401620009659062001c2f565b60405180910390fd5b600085858585853060405162000984906200141e565b620009959695949392919062001f06565b604051809103906000f080158015620009b2573d6000803e3d6000fd5b5090506003819080600181540180825580915050600190039060005260206000200160009091909190916101000a81548173ffffffffffffffffffffffffffffffffffffffff021916908373ffffffffffffffffffffffffffffffffffffffff160217905550505050505050565b6060600380548060200260200160405190810160405280929190818152602001828054801562000aa657602002820191906000526020600020905b8160009054906101000a900473ffffffffffffffffffffffffffffffffffffffff1673ffffffffffffffffffffffffffffffffffffffff168152602001906001019080831162000a5b575b5050505050905090565b6002818154811062000ac157600080fd5b906000526020600020016000915054906101000a900473ffffffffffffffffffffffffffffffffffffffff1681565b6060600280548060200260200160405190810160405280929190818152602001828054801562000b7657602002820191906000526020600020905b8160009054906101000a900473ffffffffffffffffffffffffffffffffffffffff1673ffffffffffffffffffffffffffffffffffffffff168152602001906001019080831162000b2b575b5050505050905090565b600960009054906101000a900473ffffffffffffffffffffffffffffffffffffffff1673ffffffffffffffffffffffffffffffffffffffff163373ffffffffffffffffffffffffffffffffffffffff161462000c13576040517f08c379a000000000000000000000000000000000000000000000000000000000815260040162000c0a9062001c2f565b60405180910390fd5b60078260405162000c25919062001fe6565b908152602001604051809103902060009054906101000a900460ff161562000c84576040517f08c379a000000000000000000000000000000000000000000000000000000000815260040162000c7b906200204f565b60405180910390fd5b600160078360405162000c98919062001fe6565b908152602001604051809103902060006101000a81548160ff021916908315150217905550600083838360405162000cd0906200142c565b62000cde9392919062002071565b604051809103906000f08015801562000cfb573d6000803e3d6000fd5b5090506001600660008373ffffffffffffffffffffffffffffffffffffffff1673ffffffffffffffffffffffffffffffffffffffff16815260200190815260200160002060006101000a81548160ff02191690831515021790555080600860008473ffffffffffffffffffffffffffffffffffffffff1673ffffffffffffffffffffffffffffffffffffffff16815260200190815260200160002060006101000a81548173ffffffffffffffffffffffffffffffffffffffff021916908373ffffffffffffffffffffffffffffffffffffffff1602179055506005819080600181540180825580915050600190039060005260206000200160009091909190916101000a81548173ffffffffffffffffffffffffffffffffffffffff021916908373ffffffffffffffffffffffffffffffffffffffff16021790555050505050565b6000808290508073ffffffffffffffffffffffffffffffffffffffff16630d15fd776040518163ffffffff1660e01b8152600401602060405180830381865afa15801562000e8f573d6000803e3d6000fd5b505050506040513d601f19601f8201168201806040525081019062000eb59190620020d3565b915050919050565b6004818154811062000ece57600080fd5b906000526020600020016000915054906101000a900473ffffffffffffffffffffffffffffffffffffffff1681565b6003818154811062000f0e57600080fd5b906000526020600020016000915054906101000a900473ffffffffffffffffffffffffffffffffffffffff1681565b6005818154811062000f4e57600080fd5b906000526020600020016000915054906101000a900473ffffffffffffffffffffffffffffffffffffffff1681565b600960009054906101000a900473ffffffffffffffffffffffffffffffffffffffff1673ffffffffffffffffffffffffffffffffffffffff163373ffffffffffffffffffffffffffffffffffffffff161462001010576040517f08c379a0000000000000000000000000000000000000000000000000000000008152600401620010079062001c2f565b60405180910390fd5b600085858585853060405162001026906200141e565b620010379695949392919062002155565b604051809103906000f08015801562001054573d6000803e3d6000fd5b5090506002819080600181540180825580915050600190039060005260206000200160009091909190916101000a81548173ffffffffffffffffffffffffffffffffffffffff021916908373ffffffffffffffffffffffffffffffffffffffff160217905550505050505050565b606060018054806020026020016040519081016040528092919081815260200182805480156200114857602002820191906000526020600020905b8160009054906101000a900473ffffffffffffffffffffffffffffffffffffffff1673ffffffffffffffffffffffffffffffffffffffff1681526020019060010190808311620010fd575b5050505050905090565b600960009054906101000a900473ffffffffffffffffffffffffffffffffffffffff1673ffffffffffffffffffffffffffffffffffffffff163373ffffffffffffffffffffffffffffffffffffffff1614620011e5576040517f08c379a0000000000000000000000000000000000000000000000000000000008152600401620011dc9062001c2f565b60405180910390fd5b6000858585858530604051620011fb906200141e565b6200120c9695949392919062002243565b604051809103906000f08015801562001229573d6000803e3d6000fd5b5090506001819080600181540180825580915050600190039060005260206000200160009091909190916101000a81548173ffffffffffffffffffffffffffffffffffffffff021916908373ffffffffffffffffffffffffffffffffffffffff160217905550505050505050565b6000600860003373ffffffffffffffffffffffffffffffffffffffff1673ffffffffffffffffffffffffffffffffffffffff16815260200190815260200160002060009054906101000a900473ffffffffffffffffffffffffffffffffffffffff16905090565b606060058054806020026020016040519081016040528092919081815260200182805480156200138457602002820191906000526020600020905b8160009054906101000a900473ffffffffffffffffffffffffffffffffffffffff1673ffffffffffffffffffffffffffffffffffffffff168152602001906001019080831162001339575b5050505050905090565b606060048054806020026020016040519081016040528092919081815260200182805480156200141457602002820191906000526020600020905b8160009054906101000a900473ffffffffffffffffffffffffffffffffffffffff1673ffffffffffffffffffffffffffffffffffffffff1681526020019060010190808311620013c9575b5050505050905090565b6113c680620022e283390190565b611b2f80620036a883390190565b6000604051905090565b600080fd5b600080fd5b600080fd5b600080fd5b6000601f19601f8301169050919050565b7f4e487b7100000000000000000000000000000000000000000000000000000000600052604160045260246000fd5b620014a38262001458565b810181811067ffffffffffffffff82111715620014c557620014c462001469565b5b80604052505050565b6000620014da6200143a565b9050620014e8828262001498565b919050565b600067ffffffffffffffff8211156200150b576200150a62001469565b5b620015168262001458565b9050602081019050919050565b82818337600083830152505050565b6000620015496200154384620014ed565b620014ce565b90508281526020810184848401111562001568576200156762001453565b5b6200157584828562001523565b509392505050565b600082601f8301126200159557620015946200144e565b5b8135620015a784826020860162001532565b91505092915050565b6000819050919050565b620015c581620015b0565b8114620015d157600080fd5b50565b600081359050620015e581620015ba565b92915050565b600080600080600060a086880312156200160a576200160962001444565b5b600086013567ffffffffffffffff8111156200162b576200162a62001449565b5b62001639888289016200157d565b955050602086013567ffffffffffffffff8111156200165d576200165c62001449565b5b6200166b888289016200157d565b945050604086013567ffffffffffffffff8111156200168f576200168e62001449565b5b6200169d888289016200157d565b935050606086013567ffffffffffffffff811115620016c157620016c062001449565b5b620016cf888289016200157d565b9250506080620016e288828901620015d4565b9150509295509295909350565b60006020828403121562001708576200170762001444565b5b60006200171884828501620015d4565b91505092915050565b600073ffffffffffffffffffffffffffffffffffffffff82169050919050565b6000819050919050565b60006200176c62001766620017608462001721565b62001741565b62001721565b9050919050565b600062001780826200174b565b9050919050565b6000620017948262001773565b9050919050565b620017a68162001787565b82525050565b6000602082019050620017c360008301846200179b565b92915050565b620017d481620015b0565b82525050565b6000602082019050620017f16000830184620017c9565b92915050565b6000620018048262001721565b9050919050565b60006200181882620017f7565b9050919050565b6200182a816200180b565b81146200183657600080fd5b50565b6000813590506200184a816200181f565b92915050565b60006020828403121562001869576200186862001444565b5b6000620018798482850162001839565b91505092915050565b60008115159050919050565b620018998162001882565b82525050565b6000602082019050620018b660008301846200188e565b92915050565b600081519050919050565b600082825260208201905092915050565b6000819050602082019050919050565b620018f38162001787565b82525050565b6000620019078383620018e8565b60208301905092915050565b6000602082019050919050565b60006200192d82620018bc565b620019398185620018c7565b93506200194683620018d8565b8060005b838110156200197d578151620019618882620018f9565b97506200196e8362001913565b9250506001810190506200194a565b5085935050505092915050565b60006020820190508181036000830152620019a6818462001920565b905092915050565b620019b981620017f7565b8114620019c557600080fd5b50565b600081359050620019d981620019ae565b92915050565b600080600060608486031215620019fb57620019fa62001444565b5b600084013567ffffffffffffffff81111562001a1c5762001a1b62001449565b5b62001a2a868287016200157d565b935050602084013567ffffffffffffffff81111562001a4e5762001a4d62001449565b5b62001a5c868287016200157d565b925050604062001a6f86828701620019c8565b9150509250925092565b60006020828403121562001a925762001a9162001444565b5b600062001aa284828501620019c8565b91505092915050565b600062001ab88262001773565b9050919050565b62001aca8162001aab565b82525050565b600060208201905062001ae7600083018462001abf565b92915050565b600081519050919050565b6000819050602082019050919050565b62001b138162001aab565b82525050565b600062001b27838362001b08565b60208301905092915050565b6000602082019050919050565b600062001b4d8262001aed565b62001b598185620018c7565b935062001b668362001af8565b8060005b8381101562001b9d57815162001b81888262001b19565b975062001b8e8362001b33565b92505060018101905062001b6a565b5085935050505092915050565b6000602082019050818103600083015262001bc6818462001b40565b905092915050565b600082825260208201905092915050565b7f4552524f523a20596f75277265206e6f7420746865206f776e65722100000000600082015250565b600062001c17601c8362001bce565b915062001c248262001bdf565b602082019050919050565b6000602082019050818103600083015262001c4a8162001c08565b9050919050565b600081519050919050565b60005b8381101562001c7c57808201518184015260208101905062001c5f565b60008484015250505050565b600062001c958262001c51565b62001ca1818562001bce565b935062001cb381856020860162001c5c565b62001cbe8162001458565b840191505092915050565b7f507265736964656e740000000000000000000000000000000000000000000000600082015250565b600062001d0160098362001bce565b915062001d0e8262001cc9565b602082019050919050565b62001d2481620017f7565b82525050565b600060e082019050818103600083015262001d46818962001c88565b9050818103602083015262001d5c818862001c88565b9050818103604083015262001d72818762001c88565b9050818103606083015262001d88818662001c88565b905062001d996080830185620017c9565b81810360a083015262001dac8162001cf2565b905062001dbd60c083018462001d19565b979650505050505050565b7f4665646572616c20446570757469650000000000000000000000000000000000600082015250565b600062001e00600f8362001bce565b915062001e0d8262001dc8565b602082019050919050565b600060e082019050818103600083015262001e34818962001c88565b9050818103602083015262001e4a818862001c88565b9050818103604083015262001e60818762001c88565b9050818103606083015262001e76818662001c88565b905062001e876080830185620017c9565b81810360a083015262001e9a8162001df1565b905062001eab60c083018462001d19565b979650505050505050565b7f476f7665726e6f72000000000000000000000000000000000000000000000000600082015250565b600062001eee60088362001bce565b915062001efb8262001eb6565b602082019050919050565b600060e082019050818103600083015262001f22818962001c88565b9050818103602083015262001f38818862001c88565b9050818103604083015262001f4e818762001c88565b9050818103606083015262001f64818662001c88565b905062001f756080830185620017c9565b81810360a083015262001f888162001edf565b905062001f9960c083018462001d19565b979650505050505050565b600081905092915050565b600062001fbc8262001c51565b62001fc8818562001fa4565b935062001fda81856020860162001c5c565b80840191505092915050565b600062001ff4828462001faf565b915081905092915050565b7f4552524f523a2063706620616c72656164792072656769737465726564210000600082015250565b600062002037601e8362001bce565b9150620020448262001fff565b602082019050919050565b600060208201905081810360008301526200206a8162002028565b9050919050565b600060608201905081810360008301526200208d818662001c88565b90508181036020830152620020a3818562001c88565b9050620020b4604083018462001d19565b949350505050565b600081519050620020cd81620015ba565b92915050565b600060208284031215620020ec57620020eb62001444565b5b6000620020fc84828501620020bc565b91505092915050565b7f53656e61746f7200000000000000000000000000000000000000000000000000600082015250565b60006200213d60078362001bce565b91506200214a8262002105565b602082019050919050565b600060e082019050818103600083015262002171818962001c88565b9050818103602083015262002187818862001c88565b905081810360408301526200219d818762001c88565b90508181036060830152620021b3818662001c88565b9050620021c46080830185620017c9565b81810360a0830152620021d7816200212e565b9050620021e860c083018462001d19565b979650505050505050565b7f5374617465204465707574696500000000000000000000000000000000000000600082015250565b60006200222b600d8362001bce565b91506200223882620021f3565b602082019050919050565b600060e08201905081810360008301526200225f818962001c88565b9050818103602083015262002275818862001c88565b905081810360408301526200228b818762001c88565b90508181036060830152620022a1818662001c88565b9050620022b26080830185620017c9565b81810360a0830152620022c5816200221c565b9050620022d660c083018462001d19565b97965050505050505056fe60806040523480156200001157600080fd5b50604051620013c6380380620013c6833981810160405281019062000037919062000321565b8660009081620000489190620006b0565b5085600190816200005a9190620006b0565b5083600390816200006c9190620006b0565b50826004819055508160059081620000859190620006b0565b508460029081620000979190620006b0565b5080600660006101000a81548173ffffffffffffffffffffffffffffffffffffffff021916908373ffffffffffffffffffffffffffffffffffffffff16021790555060006007819055505050505050505062000797565b6000604051905090565b600080fd5b600080fd5b600080fd5b600080fd5b6000601f19601f8301169050919050565b7f4e487b7100000000000000000000000000000000000000000000000000000000600052604160045260246000fd5b62000157826200010c565b810181811067ffffffffffffffff821117156200017957620001786200011d565b5b80604052505050565b60006200018e620000ee565b90506200019c82826200014c565b919050565b600067ffffffffffffffff821115620001bf57620001be6200011d565b5b620001ca826200010c565b9050602081019050919050565b60005b83811015620001f7578082015181840152602081019050620001da565b60008484015250505050565b60006200021a6200021484620001a1565b62000182565b90508281526020810184848401111562000239576200023862000107565b5b62000246848285620001d7565b509392505050565b600082601f83011262000266576200026562000102565b5b81516200027884826020860162000203565b91505092915050565b6000819050919050565b620002968162000281565b8114620002a257600080fd5b50565b600081519050620002b6816200028b565b92915050565b600073ffffffffffffffffffffffffffffffffffffffff82169050919050565b6000620002e982620002bc565b9050919050565b620002fb81620002dc565b81146200030757600080fd5b50565b6000815190506200031b81620002f0565b92915050565b600080600080600080600060e0888a031215620003435762000342620000f8565b5b600088015167ffffffffffffffff811115620003645762000363620000fd565b5b620003728a828b016200024e565b975050602088015167ffffffffffffffff811115620003965762000395620000fd565b5b620003a48a828b016200024e565b965050604088015167ffffffffffffffff811115620003c857620003c7620000fd565b5b620003d68a828b016200024e565b955050606088015167ffffffffffffffff811115620003fa57620003f9620000fd565b5b620004088a828b016200024e565b94505060806200041b8a828b01620002a5565b93505060a088015167ffffffffffffffff8111156200043f576200043e620000fd565b5b6200044d8a828b016200024e565b92505060c0620004608a828b016200030a565b91505092959891949750929550565b600081519050919050565b7f4e487b7100000000000000000000000000000000000000000000000000000000600052602260045260246000fd5b60006002820490506001821680620004c257607f821691505b602082108103620004d857620004d76200047a565b5b50919050565b60008190508160005260206000209050919050565b60006020601f8301049050919050565b600082821b905092915050565b600060088302620005427fffffffffffffffffffffffffffffffffffffffffffffffffffffffffffffffff8262000503565b6200054e868362000503565b95508019841693508086168417925050509392505050565b6000819050919050565b6000620005916200058b620005858462000281565b62000566565b62000281565b9050919050565b6000819050919050565b620005ad8362000570565b620005c5620005bc8262000598565b84845462000510565b825550505050565b600090565b620005dc620005cd565b620005e9818484620005a2565b505050565b5b81811015620006115762000605600082620005d2565b600181019050620005ef565b5050565b601f82111562000660576200062a81620004de565b6200063584620004f3565b8101602085101562000645578190505b6200065d6200065485620004f3565b830182620005ee565b50505b505050565b600082821c905092915050565b6000620006856000198460080262000665565b1980831691505092915050565b6000620006a0838362000672565b9150826002028217905092915050565b620006bb826200046f565b67ffffffffffffffff811115620006d757620006d66200011d565b5b620006e38254620004a9565b620006f082828562000615565b600060209050601f83116001811462000728576000841562000713578287015190505b6200071f858262000692565b8655506200078f565b601f1984166200073886620004de565b60005b8281101562000762578489015182556001820191506020850194506020810190506200073b565b868310156200078257848901516200077e601f89168262000672565b8355505b6001600288020188555050505b505050505050565b610c1f80620007a76000396000f3fe608060405234801561001057600080fd5b50600436106100935760003560e01c80637ae31c5c116100665780637ae31c5c14610110578063a07d792d1461012e578063b8c270b214610138578063bb19203314610156578063e36fccc91461017457610093565b806305e0a53e146100985780630d15fd77146100b65780632270ae65146100d45780635ea5cabe146100f2575b600080fd5b6100a0610192565b6040516100ad919061082f565b60405180910390f35b6100be610224565b6040516100cb919061086a565b60405180910390f35b6100dc61022a565b6040516100e9919061086a565b60405180910390f35b6100fa610234565b604051610107919061082f565b60405180910390f35b6101186102c6565b604051610125919061082f565b60405180910390f35b610136610358565b005b610140610671565b60405161014d919061082f565b60405180910390f35b61015e610703565b60405161016b919061082f565b60405180910390f35b61017c610795565b604051610189919061086a565b60405180910390f35b6060600380546101a1906108b4565b80601f01602080910402602001604051908101604052809291908181526020018280546101cd906108b4565b801561021a5780601f106101ef5761010080835404028352916020019161021a565b820191906000526020600020905b8154815290600101906020018083116101fd57829003601f168201915b5050505050905090565b60075481565b6000600454905090565b606060008054610243906108b4565b80601f016020809104026020016040519081016040528092919081815260200182805461026f906108b4565b80156102bc5780601f10610291576101008083540402835291602001916102bc565b820191906000526020600020905b81548152906001019060200180831161029f57829003601f168201915b5050505050905090565b6060600280546102d5906108b4565b80601f0160208091040260200160405190810160405280929190818152602001828054610301906108b4565b801561034e5780601f106103235761010080835404028352916020019161034e565b820191906000526020600020905b81548152906001019060200180831161033157829003601f168201915b5050505050905090565b600860003373ffffffffffffffffffffffffffffffffffffffff1673ffffffffffffffffffffffffffffffffffffffff16815260200190815260200160002060009054906101000a900460ff16156103e5576040517f08c379a00000000000000000000000000000000000000000000000000000000081526004016103dc90610931565b60405180910390fd5b6000600660009054906101000a900473ffffffffffffffffffffffffffffffffffffffff16905060008173ffffffffffffffffffffffffffffffffffffffff16634ddc4e86336040518263ffffffff1660e01b815260040161044791906109d0565b602060405180830381865afa158015610464573d6000803e3d6000fd5b505050506040513d601f19601f820116820180604052508101906104889190610a28565b9050806104ca576040517f08c379a00000000000000000000000000000000000000000000000000000000081526004016104c190610aa1565b60405180910390fd5b6000600660009054906101000a900473ffffffffffffffffffffffffffffffffffffffff1690508073ffffffffffffffffffffffffffffffffffffffff166316ada5476040518163ffffffff1660e01b8152600401602060405180830381865afa15801561053c573d6000803e3d6000fd5b505050506040513d601f19601f820116820180604052508101906105609190610aed565b4211156105a2576040517f08c379a000000000000000000000000000000000000000000000000000000000815260040161059990610b66565b60405180910390fd5b6001600860003373ffffffffffffffffffffffffffffffffffffffff1673ffffffffffffffffffffffffffffffffffffffff16815260200190815260200160002060006101000a81548160ff0219169083151502179055506001600860003273ffffffffffffffffffffffffffffffffffffffff1673ffffffffffffffffffffffffffffffffffffffff16815260200190815260200160002060006101000a81548160ff0219169083151502179055506001600760008282546106659190610bb5565b92505081905550505050565b606060018054610680906108b4565b80601f01602080910402602001604051908101604052809291908181526020018280546106ac906108b4565b80156106f95780601f106106ce576101008083540402835291602001916106f9565b820191906000526020600020905b8154815290600101906020018083116106dc57829003601f168201915b5050505050905090565b606060058054610712906108b4565b80601f016020809104026020016040519081016040528092919081815260200182805461073e906108b4565b801561078b5780601f106107605761010080835404028352916020019161078b565b820191906000526020600020905b81548152906001019060200180831161076e57829003601f168201915b5050505050905090565b6000600754905090565b600081519050919050565b600082825260208201905092915050565b60005b838110156107d95780820151818401526020810190506107be565b60008484015250505050565b6000601f19601f8301169050919050565b60006108018261079f565b61080b81856107aa565b935061081b8185602086016107bb565b610824816107e5565b840191505092915050565b6000602082019050818103600083015261084981846107f6565b905092915050565b6000819050919050565b61086481610851565b82525050565b600060208201905061087f600083018461085b565b92915050565b7f4e487b7100000000000000000000000000000000000000000000000000000000600052602260045260246000fd5b600060028204905060018216806108cc57607f821691505b6020821081036108df576108de610885565b5b50919050565b7f4552524f523a20596f75206861766520616c726561647920766f746564210000600082015250565b600061091b601e836107aa565b9150610926826108e5565b602082019050919050565b6000602082019050818103600083015261094a8161090e565b9050919050565b600073ffffffffffffffffffffffffffffffffffffffff82169050919050565b6000819050919050565b600061099661099161098c84610951565b610971565b610951565b9050919050565b60006109a88261097b565b9050919050565b60006109ba8261099d565b9050919050565b6109ca816109af565b82525050565b60006020820190506109e560008301846109c1565b92915050565b600080fd5b60008115159050919050565b610a05816109f0565b8114610a1057600080fd5b50565b600081519050610a22816109fc565b92915050565b600060208284031215610a3e57610a3d6109eb565b5b6000610a4c84828501610a13565b91505092915050565b7f4552524f523a20596f75206e6f742061726520456c6563746f72210000000000600082015250565b6000610a8b601b836107aa565b9150610a9682610a55565b602082019050919050565b60006020820190508181036000830152610aba81610a7e565b9050919050565b610aca81610851565b8114610ad557600080fd5b50565b600081519050610ae781610ac1565b92915050565b600060208284031215610b0357610b026109eb565b5b6000610b1184828501610ad8565b91505092915050565b7f4552524f523a2054696d65206973206f76657221000000000000000000000000600082015250565b6000610b506014836107aa565b9150610b5b82610b1a565b602082019050919050565b60006020820190508181036000830152610b7f81610b43565b9050919050565b7f4e487b7100000000000000000000000000000000000000000000000000000000600052601160045260246000fd5b6000610bc082610851565b9150610bcb83610851565b9250828201905080821115610be357610be2610b86565b5b9291505056fea264697066735822122049d58e114828895b1af97ad28f6c8608250ddd302cd13396479e280bd08bbe9d64736f6c6343000811003360806040523480156200001157600080fd5b5060405162001b2f38038062001b2f83398181016040528101906200003791906200029d565b826000908162000048919062000582565b5081600190816200005a919062000582565b5080600260006101000a81548173ffffffffffffffffffffffffffffffffffffffff021916908373ffffffffffffffffffffffffffffffffffffffff16021790555050505062000669565b6000604051905090565b600080fd5b600080fd5b600080fd5b600080fd5b6000601f19601f8301169050919050565b7f4e487b7100000000000000000000000000000000000000000000000000000000600052604160045260246000fd5b6200010e82620000c3565b810181811067ffffffffffffffff8211171562000130576200012f620000d4565b5b80604052505050565b600062000145620000a5565b905062000153828262000103565b919050565b600067ffffffffffffffff821115620001765762000175620000d4565b5b6200018182620000c3565b9050602081019050919050565b60005b83811015620001ae57808201518184015260208101905062000191565b60008484015250505050565b6000620001d1620001cb8462000158565b62000139565b905082815260208101848484011115620001f057620001ef620000be565b5b620001fd8482856200018e565b509392505050565b600082601f8301126200021d576200021c620000b9565b5b81516200022f848260208601620001ba565b91505092915050565b600073ffffffffffffffffffffffffffffffffffffffff82169050919050565b6000620002658262000238565b9050919050565b620002778162000258565b81146200028357600080fd5b50565b60008151905062000297816200026c565b92915050565b600080600060608486031215620002b957620002b8620000af565b5b600084015167ffffffffffffffff811115620002da57620002d9620000b4565b5b620002e88682870162000205565b935050602084015167ffffffffffffffff8111156200030c576200030b620000b4565b5b6200031a8682870162000205565b92505060406200032d8682870162000286565b9150509250925092565b600081519050919050565b7f4e487b7100000000000000000000000000000000000000000000000000000000600052602260045260246000fd5b600060028204905060018216806200038a57607f821691505b602082108103620003a0576200039f62000342565b5b50919050565b60008190508160005260206000209050919050565b60006020601f8301049050919050565b600082821b905092915050565b6000600883026200040a7fffffffffffffffffffffffffffffffffffffffffffffffffffffffffffffffff82620003cb565b620004168683620003cb565b95508019841693508086168417925050509392505050565b6000819050919050565b6000819050919050565b6000620004636200045d62000457846200042e565b62000438565b6200042e565b9050919050565b6000819050919050565b6200047f8362000442565b620004976200048e826200046a565b848454620003d8565b825550505050565b600090565b620004ae6200049f565b620004bb81848462000474565b505050565b5b81811015620004e357620004d7600082620004a4565b600181019050620004c1565b5050565b601f8211156200053257620004fc81620003a6565b6200050784620003bb565b8101602085101562000517578190505b6200052f6200052685620003bb565b830182620004c0565b50505b505050565b600082821c905092915050565b6000620005576000198460080262000537565b1980831691505092915050565b600062000572838362000544565b9150826002028217905092915050565b6200058d8262000337565b67ffffffffffffffff811115620005a957620005a8620000d4565b5b620005b5825462000371565b620005c2828285620004e7565b600060209050601f831160018114620005fa5760008415620005e5578287015190505b620005f1858262000564565b86555062000661565b601f1984166200060a86620003a6565b60005b8281101562000634578489015182556001820191506020850194506020810190506200060d565b8683101562000654578489015162000650601f89168262000544565b8355505b6001600288020188555050505b505050505050565b6114b680620006796000396000f3fe608060405234801561001057600080fd5b50600436106100935760003560e01c8063680465a711610066578063680465a71461011e5780636951988e1461013a57806394a927fe14610156578063a0d1722314610174578063cfb82a251461019057610093565b80631b2b67c71461009857806351d9a224146100c857806361dd7f77146100e45780636454fca114610100575b600080fd5b6100b260048036038101906100ad9190611114565b6101ae565b6040516100bf91906111c0565b60405180910390f35b6100e260048036038101906100dd9190611219565b610340565b005b6100fe60048036038101906100f99190611219565b61055f565b005b61010861077e565b60405161011591906112d6565b60405180910390f35b61013860048036038101906101339190611219565b6108a0565b005b610154600480360381019061014f9190611219565b610abf565b005b61015e610cde565b60405161016b9190611307565b60405180910390f35b61018e60048036038101906101899190611219565b610d98565b005b610198610fb7565b6040516101a591906112d6565b60405180910390f35b6000600260009054906101000a900473ffffffffffffffffffffffffffffffffffffffff1673ffffffffffffffffffffffffffffffffffffffff163373ffffffffffffffffffffffffffffffffffffffff1614610240576040517f08c379a00000000000000000000000000000000000000000000000000000000081526004016102379061136e565b60405180910390fd5b6001820361027257600360009054906101000a900473ffffffffffffffffffffffffffffffffffffffff16905061033b565b600282036102a457600460009054906101000a900473ffffffffffffffffffffffffffffffffffffffff16905061033b565b600382036102d657600560009054906101000a900473ffffffffffffffffffffffffffffffffffffffff16905061033b565b6004820361030857600660009054906101000a900473ffffffffffffffffffffffffffffffffffffffff16905061033b565b6005820361033a57600760009054906101000a900473ffffffffffffffffffffffffffffffffffffffff16905061033b565b5b919050565b600260009054906101000a900473ffffffffffffffffffffffffffffffffffffffff1673ffffffffffffffffffffffffffffffffffffffff163373ffffffffffffffffffffffffffffffffffffffff16146103d0576040517f08c379a00000000000000000000000000000000000000000000000000000000081526004016103c79061136e565b60405180910390fd5b600c60003373ffffffffffffffffffffffffffffffffffffffff1673ffffffffffffffffffffffffffffffffffffffff16815260200190815260200160002060009054906101000a900460ff161561045d576040517f08c379a000000000000000000000000000000000000000000000000000000000815260040161045490611400565b60405180910390fd5b6001600c60003373ffffffffffffffffffffffffffffffffffffffff1673ffffffffffffffffffffffffffffffffffffffff16815260200190815260200160002060006101000a81548160ff021916908315150217905550600081905080600760006101000a81548173ffffffffffffffffffffffffffffffffffffffff021916908373ffffffffffffffffffffffffffffffffffffffff1602179055508073ffffffffffffffffffffffffffffffffffffffff1663a07d792d6040518163ffffffff1660e01b8152600401600060405180830381600087803b15801561054357600080fd5b505af1158015610557573d6000803e3d6000fd5b505050505050565b600260009054906101000a900473ffffffffffffffffffffffffffffffffffffffff1673ffffffffffffffffffffffffffffffffffffffff163373ffffffffffffffffffffffffffffffffffffffff16146105ef576040517f08c379a00000000000000000000000000000000000000000000000000000000081526004016105e69061136e565b60405180910390fd5b600b60003373ffffffffffffffffffffffffffffffffffffffff1673ffffffffffffffffffffffffffffffffffffffff16815260200190815260200160002060009054906101000a900460ff161561067c576040517f08c379a000000000000000000000000000000000000000000000000000000000815260040161067390611400565b60405180910390fd5b6001600b60003373ffffffffffffffffffffffffffffffffffffffff1673ffffffffffffffffffffffffffffffffffffffff16815260200190815260200160002060006101000a81548160ff021916908315150217905550600081905080600660006101000a81548173ffffffffffffffffffffffffffffffffffffffff021916908373ffffffffffffffffffffffffffffffffffffffff1602179055508073ffffffffffffffffffffffffffffffffffffffff1663a07d792d6040518163ffffffff1660e01b8152600401600060405180830381600087803b15801561076257600080fd5b505af1158015610776573d6000803e3d6000fd5b505050505050565b6060600260009054906101000a900473ffffffffffffffffffffffffffffffffffffffff1673ffffffffffffffffffffffffffffffffffffffff163373ffffffffffffffffffffffffffffffffffffffff1614610810576040517f08c379a00000000000000000000000000000000000000000000000000000000081526004016108079061136e565b60405180910390fd5b6001805461081d9061144f565b80601f01602080910402602001604051908101604052809291908181526020018280546108499061144f565b80156108965780601f1061086b57610100808354040283529160200191610896565b820191906000526020600020905b81548152906001019060200180831161087957829003601f168201915b5050505050905090565b600260009054906101000a900473ffffffffffffffffffffffffffffffffffffffff1673ffffffffffffffffffffffffffffffffffffffff163373ffffffffffffffffffffffffffffffffffffffff1614610930576040517f08c379a00000000000000000000000000000000000000000000000000000000081526004016109279061136e565b60405180910390fd5b600a60003373ffffffffffffffffffffffffffffffffffffffff1673ffffffffffffffffffffffffffffffffffffffff16815260200190815260200160002060009054906101000a900460ff16156109bd576040517f08c379a00000000000000000000000000000000000000000000000000000000081526004016109b490611400565b60405180910390fd5b6001600a60003373ffffffffffffffffffffffffffffffffffffffff1673ffffffffffffffffffffffffffffffffffffffff16815260200190815260200160002060006101000a81548160ff021916908315150217905550600081905080600560006101000a81548173ffffffffffffffffffffffffffffffffffffffff021916908373ffffffffffffffffffffffffffffffffffffffff1602179055508073ffffffffffffffffffffffffffffffffffffffff1663a07d792d6040518163ffffffff1660e01b8152600401600060405180830381600087803b158015610aa357600080fd5b505af1158015610ab7573d6000803e3d6000fd5b505050505050565b600260009054906101000a900473ffffffffffffffffffffffffffffffffffffffff1673ffffffffffffffffffffffffffffffffffffffff163373ffffffffffffffffffffffffffffffffffffffff1614610b4f576040517f08c379a0000000000000000000000000000000000000000000000000000000008152600401610b469061136e565b60405180910390fd5b600a60003373ffffffffffffffffffffffffffffffffffffffff1673ffffffffffffffffffffffffffffffffffffffff16815260200190815260200160002060009054906101000a900460ff1615610bdc576040517f08c379a0000000000000000000000000000000000000000000000000000000008152600401610bd390611400565b60405180910390fd5b6001600960003373ffffffffffffffffffffffffffffffffffffffff1673ffffffffffffffffffffffffffffffffffffffff16815260200190815260200160002060006101000a81548160ff021916908315150217905550600081905080600460006101000a81548173ffffffffffffffffffffffffffffffffffffffff021916908373ffffffffffffffffffffffffffffffffffffffff1602179055508073ffffffffffffffffffffffffffffffffffffffff1663a07d792d6040518163ffffffff1660e01b8152600401600060405180830381600087803b158015610cc257600080fd5b505af1158015610cd6573d6000803e3d6000fd5b505050505050565b6000600260009054906101000a900473ffffffffffffffffffffffffffffffffffffffff1673ffffffffffffffffffffffffffffffffffffffff163373ffffffffffffffffffffffffffffffffffffffff1614610d70576040517f08c379a0000000000000000000000000000000000000000000000000000000008152600401610d679061136e565b60405180910390fd5b600260009054906101000a900473ffffffffffffffffffffffffffffffffffffffff16905090565b600260009054906101000a900473ffffffffffffffffffffffffffffffffffffffff1673ffffffffffffffffffffffffffffffffffffffff163373ffffffffffffffffffffffffffffffffffffffff1614610e28576040517f08c379a0000000000000000000000000000000000000000000000000000000008152600401610e1f9061136e565b60405180910390fd5b600860003373ffffffffffffffffffffffffffffffffffffffff1673ffffffffffffffffffffffffffffffffffffffff16815260200190815260200160002060009054906101000a900460ff1615610eb5576040517f08c379a0000000000000000000000000000000000000000000000000000000008152600401610eac90611400565b60405180910390fd5b6001600860003373ffffffffffffffffffffffffffffffffffffffff1673ffffffffffffffffffffffffffffffffffffffff16815260200190815260200160002060006101000a81548160ff021916908315150217905550600081905080600360006101000a81548173ffffffffffffffffffffffffffffffffffffffff021916908373ffffffffffffffffffffffffffffffffffffffff1602179055508073ffffffffffffffffffffffffffffffffffffffff1663a07d792d6040518163ffffffff1660e01b8152600401600060405180830381600087803b158015610f9b57600080fd5b505af1158015610faf573d6000803e3d6000fd5b505050505050565b6060600260009054906101000a900473ffffffffffffffffffffffffffffffffffffffff1673ffffffffffffffffffffffffffffffffffffffff163373ffffffffffffffffffffffffffffffffffffffff1614611049576040517f08c379a00000000000000000000000000000000000000000000000000000000081526004016110409061136e565b60405180910390fd5b600080546110569061144f565b80601f01602080910402602001604051908101604052809291908181526020018280546110829061144f565b80156110cf5780601f106110a4576101008083540402835291602001916110cf565b820191906000526020600020905b8154815290600101906020018083116110b257829003601f168201915b5050505050905090565b600080fd5b6000819050919050565b6110f1816110de565b81146110fc57600080fd5b50565b60008135905061110e816110e8565b92915050565b60006020828403121561112a576111296110d9565b5b6000611138848285016110ff565b91505092915050565b600073ffffffffffffffffffffffffffffffffffffffff82169050919050565b6000819050919050565b600061118661118161117c84611141565b611161565b611141565b9050919050565b60006111988261116b565b9050919050565b60006111aa8261118d565b9050919050565b6111ba8161119f565b82525050565b60006020820190506111d560008301846111b1565b92915050565b60006111e682611141565b9050919050565b6111f6816111db565b811461120157600080fd5b50565b600081359050611213816111ed565b92915050565b60006020828403121561122f5761122e6110d9565b5b600061123d84828501611204565b91505092915050565b600081519050919050565b600082825260208201905092915050565b60005b83811015611280578082015181840152602081019050611265565b60008484015250505050565b6000601f19601f8301169050919050565b60006112a882611246565b6112b28185611251565b93506112c2818560208601611262565b6112cb8161128c565b840191505092915050565b600060208201905081810360008301526112f0818461129d565b905092915050565b611301816111db565b82525050565b600060208201905061131c60008301846112f8565b92915050565b7f4552524f523a20596f75277265206e6f7420746865206f776e65722100000000600082015250565b6000611358601c83611251565b915061136382611322565b602082019050919050565b600060208201905081810360008301526113878161134b565b9050919050565b7f4552524f523a20596f7520616c726561647920766f74656420666f722074686960008201527f7320706f736974696f6e00000000000000000000000000000000000000000000602082015250565b60006113ea602a83611251565b91506113f58261138e565b604082019050919050565b60006020820190508181036000830152611419816113dd565b9050919050565b7f4e487b7100000000000000000000000000000000000000000000000000000000600052602260045260246000fd5b6000600282049050600182168061146757607f821691505b60208210810361147a57611479611420565b5b5091905056fea2646970667358221220c2fff5b9e6594b1c13d61aba6b153ba2e6054ea6363415a9432be3e74bceea2564736f6c63430008110033a264697066735822122058ad7751506f541af147427bbbd15ca8bbe767db7a9d0812e4779620032fc00364736f6c63430008110033",
  "linkReferences": {},
  "deployedLinkReferences": {}
}