{
  "_format": "hh-sol-artifact-1",
  "contractName": "Urna",
  "sourceName": "contracts/Urna.sol",
  "abi": [
    {
      "inputs": [
        {
          "internalType": "address",
          "name": "_TSE",
          "type": "address"
        }
      ],
      "stateMutability": "nonpayable",
      "type": "constructor"
    },
    {
      "inputs": [
        {
          "internalType": "address",
          "name": "owner",
          "type": "address"
        }
      ],
      "name": "OwnableInvalidOwner",
      "type": "error"
    },
    {
      "inputs": [
        {
          "internalType": "address",
          "name": "account",
          "type": "address"
        }
      ],
      "name": "OwnableUnauthorizedAccount",
      "type": "error"
    },
    {
      "inputs": [
        {
          "internalType": "address",
          "name": "elector",
          "type": "address"
        },
        {
          "internalType": "uint256",
          "name": "position",
          "type": "uint256"
        }
      ],
      "name": "alreadyVoted_",
      "type": "error"
    },
    {
      "inputs": [
        {
          "internalType": "address",
          "name": "candidate",
          "type": "address"
        }
      ],
      "name": "candidadeNotFound",
      "type": "error"
    },
    {
      "inputs": [
        {
          "internalType": "address",
          "name": "elector",
          "type": "address"
        }
      ],
      "name": "electorNotFound",
      "type": "error"
    },
    {
      "anonymous": false,
      "inputs": [
        {
          "indexed": true,
          "internalType": "address",
          "name": "previousOwner",
          "type": "address"
        },
        {
          "indexed": true,
          "internalType": "address",
          "name": "newOwner",
          "type": "address"
        }
      ],
      "name": "OwnershipTransferred",
      "type": "event"
    },
    {
      "anonymous": false,
      "inputs": [
        {
          "indexed": false,
          "internalType": "address",
          "name": "elector",
          "type": "address"
        },
        {
          "indexed": false,
          "internalType": "address",
          "name": "candidate",
          "type": "address"
        },
        {
          "indexed": false,
          "internalType": "uint256",
          "name": "candidate_total_votes",
          "type": "uint256"
        }
      ],
      "name": "voted",
      "type": "event"
    },
    {
      "inputs": [
        {
          "components": [
            {
              "internalType": "string",
              "name": "name",
              "type": "string"
            },
            {
              "internalType": "string",
              "name": "describe",
              "type": "string"
            },
            {
              "internalType": "string",
              "name": "candidatePhoto",
              "type": "string"
            },
            {
              "internalType": "string",
              "name": "politicalPartyName",
              "type": "string"
            },
            {
              "internalType": "string",
              "name": "politicalPartyNumber",
              "type": "string"
            }
          ],
          "internalType": "struct CandidateStructs.candidateData",
          "name": "data_",
          "type": "tuple"
        },
        {
          "internalType": "uint256",
          "name": "position_",
          "type": "uint256"
        }
      ],
      "name": "createCandidate",
      "outputs": [],
      "stateMutability": "nonpayable",
      "type": "function"
    },
    {
      "inputs": [
        {
          "components": [
            {
              "internalType": "string",
              "name": "name",
              "type": "string"
            },
            {
              "internalType": "string",
              "name": "cpf",
              "type": "string"
            }
          ],
          "internalType": "struct ElectorStructs.electorData",
          "name": "data_",
          "type": "tuple"
        },
        {
          "internalType": "address",
          "name": "owner_",
          "type": "address"
        }
      ],
      "name": "createElector",
      "outputs": [],
      "stateMutability": "nonpayable",
      "type": "function"
    },
    {
      "inputs": [],
      "name": "owner",
      "outputs": [
        {
          "internalType": "address",
          "name": "",
          "type": "address"
        }
      ],
      "stateMutability": "view",
      "type": "function"
    },
    {
      "inputs": [],
      "name": "renounceOwnership",
      "outputs": [],
      "stateMutability": "nonpayable",
      "type": "function"
    },
    {
      "inputs": [
        {
          "internalType": "address",
          "name": "newOwner",
          "type": "address"
        }
      ],
      "name": "transferOwnership",
      "outputs": [],
      "stateMutability": "nonpayable",
      "type": "function"
    },
    {
      "inputs": [
        {
          "internalType": "uint256",
          "name": "position_",
          "type": "uint256"
        }
      ],
      "name": "verifyCandidates",
      "outputs": [
        {
          "internalType": "address[]",
          "name": "",
          "type": "address[]"
        }
      ],
      "stateMutability": "view",
      "type": "function"
    },
    {
      "inputs": [],
      "name": "verifyElectors",
      "outputs": [
        {
          "internalType": "address[]",
          "name": "",
          "type": "address[]"
        }
      ],
      "stateMutability": "view",
      "type": "function"
    },
    {
      "inputs": [
        {
          "internalType": "address",
          "name": "candidate",
          "type": "address"
        }
      ],
      "name": "verifyVotes",
      "outputs": [
        {
          "internalType": "uint256",
          "name": "",
          "type": "uint256"
        }
      ],
      "stateMutability": "view",
      "type": "function"
    },
    {
      "inputs": [
        {
          "internalType": "address",
          "name": "candidate",
          "type": "address"
        },
        {
          "internalType": "uint256",
          "name": "position",
          "type": "uint256"
        }
      ],
      "name": "vote",
      "outputs": [],
      "stateMutability": "nonpayable",
      "type": "function"
    }
  ],
  "bytecode": "0x608060405234801561001057600080fd5b50604051613231380380613231833981810160405281019061003291906101e2565b80600073ffffffffffffffffffffffffffffffffffffffff168173ffffffffffffffffffffffffffffffffffffffff16036100a55760006040517f1e4fbdf700000000000000000000000000000000000000000000000000000000815260040161009c919061021e565b60405180910390fd5b6100b4816100bb60201b60201c565b5050610239565b60008060009054906101000a900473ffffffffffffffffffffffffffffffffffffffff169050816000806101000a81548173ffffffffffffffffffffffffffffffffffffffff021916908373ffffffffffffffffffffffffffffffffffffffff1602179055508173ffffffffffffffffffffffffffffffffffffffff168173ffffffffffffffffffffffffffffffffffffffff167f8be0079c531659141344cd1fd0a4f28419497f9722a3daafe3b4186f6b6457e060405160405180910390a35050565b600080fd5b600073ffffffffffffffffffffffffffffffffffffffff82169050919050565b60006101af82610184565b9050919050565b6101bf816101a4565b81146101ca57600080fd5b50565b6000815190506101dc816101b6565b92915050565b6000602082840312156101f8576101f761017f565b5b6000610206848285016101cd565b91505092915050565b610218816101a4565b82525050565b6000602082019050610233600083018461020f565b92915050565b612fe9806102486000396000f3fe608060405234801561001057600080fd5b50600436106100935760003560e01c80639231a92b116100665780639231a92b146100f857806393e7280814610116578063b00d2b1614610146578063e5f28a9314610176578063f2fde38b1461019257610093565b80635b3fde96146100985780635f74bbde146100b4578063715018a6146100d05780638da5cb5b146100da575b600080fd5b6100b260048036038101906100ad9190610db0565b6101ae565b005b6100ce60048036038101906100c99190610e42565b6101c4565b005b6100d8610396565b005b6100e26103aa565b6040516100ef9190610e91565b60405180910390f35b6101006103d3565b60405161010d9190610f6a565b60405180910390f35b610130600480360381019061012b9190610f8c565b610461565b60405161013d9190610f6a565b60405180910390f35b610160600480360381019061015b9190610fb9565b610502565b60405161016d9190610ff5565b60405180910390f35b610190600480360381019061018b9190611128565b61054b565b005b6101ac60048036038101906101a79190610fb9565b610561565b005b6101b66105e7565b6101c0828261066e565b5050565b60006101d03383610790565b905080156102175733826040517fd21e877b00000000000000000000000000000000000000000000000000000000815260040161020e929190611184565b60405180910390fd5b600061022384846107f8565b90508061026757836040517f491788ad00000000000000000000000000000000000000000000000000000000815260040161025e9190610e91565b60405180910390fd5b600061027233610860565b9050806102b657336040517f6d7807a90000000000000000000000000000000000000000000000000000000081526004016102ad9190610e91565b60405180910390fd5b6102c033856108f8565b600560008673ffffffffffffffffffffffffffffffffffffffff1673ffffffffffffffffffffffffffffffffffffffff1681526020019081526020016000206000815480929190610310906111dc565b91905055507f9df1db5c4300ffb6c360aa6a41d9a19de3d9ab685fb2fff2782a64204e8d7f433386600560008973ffffffffffffffffffffffffffffffffffffffff1673ffffffffffffffffffffffffffffffffffffffff1681526020019081526020016000205460405161038793929190611224565b60405180910390a15050505050565b61039e6105e7565b6103a86000610965565b565b60008060009054906101000a900473ffffffffffffffffffffffffffffffffffffffff16905090565b6060600480548060200260200160405190810160405280929190818152602001828054801561045757602002820191906000526020600020905b8160009054906101000a900473ffffffffffffffffffffffffffffffffffffffff1673ffffffffffffffffffffffffffffffffffffffff168152602001906001019080831161040d575b5050505050905090565b6060600260008381526020019081526020016000208054806020026020016040519081016040528092919081815260200182805480156104f657602002820191906000526020600020905b8160009054906101000a900473ffffffffffffffffffffffffffffffffffffffff1673ffffffffffffffffffffffffffffffffffffffff16815260200190600101908083116104ac575b50505050509050919050565b6000600560008373ffffffffffffffffffffffffffffffffffffffff1673ffffffffffffffffffffffffffffffffffffffff168152602001908152602001600020549050919050565b6105536105e7565b61055d8282610a29565b5050565b6105696105e7565b600073ffffffffffffffffffffffffffffffffffffffff168173ffffffffffffffffffffffffffffffffffffffff16036105db5760006040517f1e4fbdf70000000000000000000000000000000000000000000000000000000081526004016105d29190610e91565b60405180910390fd5b6105e481610965565b50565b6105ef610b44565b73ffffffffffffffffffffffffffffffffffffffff1661060d6103aa565b73ffffffffffffffffffffffffffffffffffffffff161461066c57610630610b44565b6040517f118cdaa70000000000000000000000000000000000000000000000000000000081526004016106639190610e91565b60405180910390fd5b565b600082823060405161067f90610b4c565b61068b9392919061131e565b604051809103906000f0801580156106a7573d6000803e3d6000fd5b50905080600360008473ffffffffffffffffffffffffffffffffffffffff1673ffffffffffffffffffffffffffffffffffffffff16815260200190815260200160002060006101000a81548173ffffffffffffffffffffffffffffffffffffffff021916908373ffffffffffffffffffffffffffffffffffffffff1602179055506004819080600181540180825580915050600190039060005260206000200160009091909190916101000a81548173ffffffffffffffffffffffffffffffffffffffff021916908373ffffffffffffffffffffffffffffffffffffffff160217905550505050565b6000600660008473ffffffffffffffffffffffffffffffffffffffff1673ffffffffffffffffffffffffffffffffffffffff168152602001908152602001600020600083815260200190815260200160002060009054906101000a900460ff16905092915050565b60006001600083815260200190815260200160002060008473ffffffffffffffffffffffffffffffffffffffff1673ffffffffffffffffffffffffffffffffffffffff16815260200190815260200160002060009054906101000a900460ff16905092915050565b60008073ffffffffffffffffffffffffffffffffffffffff16600360008473ffffffffffffffffffffffffffffffffffffffff1673ffffffffffffffffffffffffffffffffffffffff16815260200190815260200160002060009054906101000a900473ffffffffffffffffffffffffffffffffffffffff1673ffffffffffffffffffffffffffffffffffffffff1614159050919050565b6001600660008473ffffffffffffffffffffffffffffffffffffffff1673ffffffffffffffffffffffffffffffffffffffff168152602001908152602001600020600083815260200190815260200160002060006101000a81548160ff0219169083151502179055505050565b60008060009054906101000a900473ffffffffffffffffffffffffffffffffffffffff169050816000806101000a81548173ffffffffffffffffffffffffffffffffffffffff021916908373ffffffffffffffffffffffffffffffffffffffff1602179055508173ffffffffffffffffffffffffffffffffffffffff168173ffffffffffffffffffffffffffffffffffffffff167f8be0079c531659141344cd1fd0a4f28419497f9722a3daafe3b4186f6b6457e060405160405180910390a35050565b60008230604051610a3990610b59565b610a449291906113ee565b604051809103906000f080158015610a60573d6000803e3d6000fd5b509050600180600084815260200190815260200160002060008373ffffffffffffffffffffffffffffffffffffffff1673ffffffffffffffffffffffffffffffffffffffff16815260200190815260200160002060006101000a81548160ff02191690831515021790555060026000838152602001908152602001600020819080600181540180825580915050600190039060005260206000200160009091909190916101000a81548173ffffffffffffffffffffffffffffffffffffffff021916908373ffffffffffffffffffffffffffffffffffffffff160217905550505050565b600033905090565b610e5b8061141f83390190565b610d3a8061227a83390190565b6000604051905090565b600080fd5b600080fd5b600080fd5b6000601f19601f8301169050919050565b7f4e487b7100000000000000000000000000000000000000000000000000000000600052604160045260246000fd5b610bc882610b7f565b810181811067ffffffffffffffff82111715610be757610be6610b90565b5b80604052505050565b6000610bfa610b66565b9050610c068282610bbf565b919050565b600080fd5b600080fd5b600080fd5b600067ffffffffffffffff821115610c3557610c34610b90565b5b610c3e82610b7f565b9050602081019050919050565b82818337600083830152505050565b6000610c6d610c6884610c1a565b610bf0565b905082815260208101848484011115610c8957610c88610c15565b5b610c94848285610c4b565b509392505050565b600082601f830112610cb157610cb0610c10565b5b8135610cc1848260208601610c5a565b91505092915050565b600060408284031215610ce057610cdf610b7a565b5b610cea6040610bf0565b9050600082013567ffffffffffffffff811115610d0a57610d09610c0b565b5b610d1684828501610c9c565b600083015250602082013567ffffffffffffffff811115610d3a57610d39610c0b565b5b610d4684828501610c9c565b60208301525092915050565b600073ffffffffffffffffffffffffffffffffffffffff82169050919050565b6000610d7d82610d52565b9050919050565b610d8d81610d72565b8114610d9857600080fd5b50565b600081359050610daa81610d84565b92915050565b60008060408385031215610dc757610dc6610b70565b5b600083013567ffffffffffffffff811115610de557610de4610b75565b5b610df185828601610cca565b9250506020610e0285828601610d9b565b9150509250929050565b6000819050919050565b610e1f81610e0c565b8114610e2a57600080fd5b50565b600081359050610e3c81610e16565b92915050565b60008060408385031215610e5957610e58610b70565b5b6000610e6785828601610d9b565b9250506020610e7885828601610e2d565b9150509250929050565b610e8b81610d72565b82525050565b6000602082019050610ea66000830184610e82565b92915050565b600081519050919050565b600082825260208201905092915050565b6000819050602082019050919050565b610ee181610d72565b82525050565b6000610ef38383610ed8565b60208301905092915050565b6000602082019050919050565b6000610f1782610eac565b610f218185610eb7565b9350610f2c83610ec8565b8060005b83811015610f5d578151610f448882610ee7565b9750610f4f83610eff565b925050600181019050610f30565b5085935050505092915050565b60006020820190508181036000830152610f848184610f0c565b905092915050565b600060208284031215610fa257610fa1610b70565b5b6000610fb084828501610e2d565b91505092915050565b600060208284031215610fcf57610fce610b70565b5b6000610fdd84828501610d9b565b91505092915050565b610fef81610e0c565b82525050565b600060208201905061100a6000830184610fe6565b92915050565b600060a0828403121561102657611025610b7a565b5b61103060a0610bf0565b9050600082013567ffffffffffffffff8111156110505761104f610c0b565b5b61105c84828501610c9c565b600083015250602082013567ffffffffffffffff8111156110805761107f610c0b565b5b61108c84828501610c9c565b602083015250604082013567ffffffffffffffff8111156110b0576110af610c0b565b5b6110bc84828501610c9c565b604083015250606082013567ffffffffffffffff8111156110e0576110df610c0b565b5b6110ec84828501610c9c565b606083015250608082013567ffffffffffffffff8111156111105761110f610c0b565b5b61111c84828501610c9c565b60808301525092915050565b6000806040838503121561113f5761113e610b70565b5b600083013567ffffffffffffffff81111561115d5761115c610b75565b5b61116985828601611010565b925050602061117a85828601610e2d565b9150509250929050565b60006040820190506111996000830185610e82565b6111a66020830184610fe6565b9392505050565b7f4e487b7100000000000000000000000000000000000000000000000000000000600052601160045260246000fd5b60006111e782610e0c565b91507fffffffffffffffffffffffffffffffffffffffffffffffffffffffffffffffff8203611219576112186111ad565b5b600182019050919050565b60006060820190506112396000830186610e82565b6112466020830185610e82565b6112536040830184610fe6565b949350505050565b600081519050919050565b600082825260208201905092915050565b60005b8381101561129557808201518184015260208101905061127a565b60008484015250505050565b60006112ac8261125b565b6112b68185611266565b93506112c6818560208601611277565b6112cf81610b7f565b840191505092915050565b600060408301600083015184820360008601526112f782826112a1565b9150506020830151848203602086015261131182826112a1565b9150508091505092915050565b6000606082019050818103600083015261133881866112da565b90506113476020830185610e82565b6113546040830184610e82565b949350505050565b600060a083016000830151848203600086015261137982826112a1565b9150506020830151848203602086015261139382826112a1565b915050604083015184820360408601526113ad82826112a1565b915050606083015184820360608601526113c782826112a1565b915050608083015184820360808601526113e182826112a1565b9150508091505092915050565b60006040820190508181036000830152611408818561135c565b90506114176020830184610e82565b939250505056fe608060405234801561001057600080fd5b50604051610e5b380380610e5b83398181016040528101906100329190610459565b81600073ffffffffffffffffffffffffffffffffffffffff168173ffffffffffffffffffffffffffffffffffffffff16036100a55760006040517f1e4fbdf700000000000000000000000000000000000000000000000000000000815260040161009c91906104d7565b60405180910390fd5b6100b48161013060201b60201c565b5082600160008201518160000190816100cd9190610713565b5060208201518160010190816100e39190610713565b5090505080600360006101000a81548173ffffffffffffffffffffffffffffffffffffffff021916908373ffffffffffffffffffffffffffffffffffffffff1602179055505050506107e5565b60008060009054906101000a900473ffffffffffffffffffffffffffffffffffffffff169050816000806101000a81548173ffffffffffffffffffffffffffffffffffffffff021916908373ffffffffffffffffffffffffffffffffffffffff1602179055508173ffffffffffffffffffffffffffffffffffffffff168173ffffffffffffffffffffffffffffffffffffffff167f8be0079c531659141344cd1fd0a4f28419497f9722a3daafe3b4186f6b6457e060405160405180910390a35050565b6000604051905090565b600080fd5b600080fd5b600080fd5b6000601f19601f8301169050919050565b7f4e487b7100000000000000000000000000000000000000000000000000000000600052604160045260246000fd5b6102568261020d565b810181811067ffffffffffffffff821117156102755761027461021e565b5b80604052505050565b60006102886101f4565b9050610294828261024d565b919050565b600080fd5b600080fd5b600080fd5b600067ffffffffffffffff8211156102c3576102c261021e565b5b6102cc8261020d565b9050602081019050919050565b60005b838110156102f75780820151818401526020810190506102dc565b60008484015250505050565b6000610316610311846102a8565b61027e565b905082815260208101848484011115610332576103316102a3565b5b61033d8482856102d9565b509392505050565b600082601f83011261035a5761035961029e565b5b815161036a848260208601610303565b91505092915050565b60006040828403121561038957610388610208565b5b610393604061027e565b9050600082015167ffffffffffffffff8111156103b3576103b2610299565b5b6103bf84828501610345565b600083015250602082015167ffffffffffffffff8111156103e3576103e2610299565b5b6103ef84828501610345565b60208301525092915050565b600073ffffffffffffffffffffffffffffffffffffffff82169050919050565b6000610426826103fb565b9050919050565b6104368161041b565b811461044157600080fd5b50565b6000815190506104538161042d565b92915050565b600080600060608486031215610472576104716101fe565b5b600084015167ffffffffffffffff8111156104905761048f610203565b5b61049c86828701610373565b93505060206104ad86828701610444565b92505060406104be86828701610444565b9150509250925092565b6104d18161041b565b82525050565b60006020820190506104ec60008301846104c8565b92915050565b600081519050919050565b7f4e487b7100000000000000000000000000000000000000000000000000000000600052602260045260246000fd5b6000600282049050600182168061054457607f821691505b602082108103610557576105566104fd565b5b50919050565b60008190508160005260206000209050919050565b60006020601f8301049050919050565b600082821b905092915050565b6000600883026105bf7fffffffffffffffffffffffffffffffffffffffffffffffffffffffffffffffff82610582565b6105c98683610582565b95508019841693508086168417925050509392505050565b6000819050919050565b6000819050919050565b600061061061060b610606846105e1565b6105eb565b6105e1565b9050919050565b6000819050919050565b61062a836105f5565b61063e61063682610617565b84845461058f565b825550505050565b600090565b610653610646565b61065e818484610621565b505050565b5b818110156106825761067760008261064b565b600181019050610664565b5050565b601f8211156106c7576106988161055d565b6106a184610572565b810160208510156106b0578190505b6106c46106bc85610572565b830182610663565b50505b505050565b600082821c905092915050565b60006106ea600019846008026106cc565b1980831691505092915050565b600061070383836106d9565b9150826002028217905092915050565b61071c826104f2565b67ffffffffffffffff8111156107355761073461021e565b5b61073f825461052c565b61074a828285610686565b600060209050601f83116001811461077d576000841561076b578287015190505b61077585826106f7565b8655506107dd565b601f19841661078b8661055d565b60005b828110156107b35784890151825560018201915060208501945060208101905061078e565b868310156107d057848901516107cc601f8916826106d9565b8355505b6001600288020188555050505b505050505050565b610667806107f46000396000f3fe608060405234801561001057600080fd5b506004361061004c5760003560e01c80631fb662e614610051578063715018a61461006f5780638da5cb5b14610079578063f2fde38b14610097575b600080fd5b6100596100b3565b60405161006691906104f5565b60405180910390f35b6100776101f1565b005b610081610205565b60405161008e9190610558565b60405180910390f35b6100b160048036038101906100ac91906105a4565b61022e565b005b6100bb610407565b60016040518060400160405290816000820180546100d890610600565b80601f016020809104026020016040519081016040528092919081815260200182805461010490610600565b80156101515780601f1061012657610100808354040283529160200191610151565b820191906000526020600020905b81548152906001019060200180831161013457829003601f168201915b5050505050815260200160018201805461016a90610600565b80601f016020809104026020016040519081016040528092919081815260200182805461019690610600565b80156101e35780601f106101b8576101008083540402835291602001916101e3565b820191906000526020600020905b8154815290600101906020018083116101c657829003601f168201915b505050505081525050905090565b6101f96102b4565b610203600061033b565b565b60008060009054906101000a900473ffffffffffffffffffffffffffffffffffffffff16905090565b6102366102b4565b600073ffffffffffffffffffffffffffffffffffffffff168173ffffffffffffffffffffffffffffffffffffffff16036102a85760006040517f1e4fbdf700000000000000000000000000000000000000000000000000000000815260040161029f9190610558565b60405180910390fd5b6102b18161033b565b50565b6102bc6103ff565b73ffffffffffffffffffffffffffffffffffffffff166102da610205565b73ffffffffffffffffffffffffffffffffffffffff1614610339576102fd6103ff565b6040517f118cdaa70000000000000000000000000000000000000000000000000000000081526004016103309190610558565b60405180910390fd5b565b60008060009054906101000a900473ffffffffffffffffffffffffffffffffffffffff169050816000806101000a81548173ffffffffffffffffffffffffffffffffffffffff021916908373ffffffffffffffffffffffffffffffffffffffff1602179055508173ffffffffffffffffffffffffffffffffffffffff168173ffffffffffffffffffffffffffffffffffffffff167f8be0079c531659141344cd1fd0a4f28419497f9722a3daafe3b4186f6b6457e060405160405180910390a35050565b600033905090565b604051806040016040528060608152602001606081525090565b600081519050919050565b600082825260208201905092915050565b60005b8381101561045b578082015181840152602081019050610440565b60008484015250505050565b6000601f19601f8301169050919050565b600061048382610421565b61048d818561042c565b935061049d81856020860161043d565b6104a681610467565b840191505092915050565b600060408301600083015184820360008601526104ce8282610478565b915050602083015184820360208601526104e88282610478565b9150508091505092915050565b6000602082019050818103600083015261050f81846104b1565b905092915050565b600073ffffffffffffffffffffffffffffffffffffffff82169050919050565b600061054282610517565b9050919050565b61055281610537565b82525050565b600060208201905061056d6000830184610549565b92915050565b600080fd5b61058181610537565b811461058c57600080fd5b50565b60008135905061059e81610578565b92915050565b6000602082840312156105ba576105b9610573565b5b60006105c88482850161058f565b91505092915050565b7f4e487b7100000000000000000000000000000000000000000000000000000000600052602260045260246000fd5b6000600282049050600182168061061857607f821691505b60208210810361062b5761062a6105d1565b5b5091905056fea26469706673582212207c4275fd95dff7e602ef76b099b0f172467b8b68388f5179305dc9cb5a9515c364736f6c634300081b0033608060405234801561001057600080fd5b50604051610d3a380380610d3a833981810160405281019061003291906103e2565b81600080820151816000019081610049919061065f565b50602082015181600101908161005f919061065f565b506040820151816002019081610075919061065f565b50606082015181600301908161008b919061065f565b5060808201518160040190816100a1919061065f565b5090505080600560006101000a81548173ffffffffffffffffffffffffffffffffffffffff021916908373ffffffffffffffffffffffffffffffffffffffff1602179055505050610731565b6000604051905090565b600080fd5b600080fd5b600080fd5b6000601f19601f8301169050919050565b7f4e487b7100000000000000000000000000000000000000000000000000000000600052604160045260246000fd5b61014f82610106565b810181811067ffffffffffffffff8211171561016e5761016d610117565b5b80604052505050565b60006101816100ed565b905061018d8282610146565b919050565b600080fd5b600080fd5b600080fd5b600067ffffffffffffffff8211156101bc576101bb610117565b5b6101c582610106565b9050602081019050919050565b60005b838110156101f05780820151818401526020810190506101d5565b60008484015250505050565b600061020f61020a846101a1565b610177565b90508281526020810184848401111561022b5761022a61019c565b5b6102368482856101d2565b509392505050565b600082601f83011261025357610252610197565b5b81516102638482602086016101fc565b91505092915050565b600060a0828403121561028257610281610101565b5b61028c60a0610177565b9050600082015167ffffffffffffffff8111156102ac576102ab610192565b5b6102b88482850161023e565b600083015250602082015167ffffffffffffffff8111156102dc576102db610192565b5b6102e88482850161023e565b602083015250604082015167ffffffffffffffff81111561030c5761030b610192565b5b6103188482850161023e565b604083015250606082015167ffffffffffffffff81111561033c5761033b610192565b5b6103488482850161023e565b606083015250608082015167ffffffffffffffff81111561036c5761036b610192565b5b6103788482850161023e565b60808301525092915050565b600073ffffffffffffffffffffffffffffffffffffffff82169050919050565b60006103af82610384565b9050919050565b6103bf816103a4565b81146103ca57600080fd5b50565b6000815190506103dc816103b6565b92915050565b600080604083850312156103f9576103f86100f7565b5b600083015167ffffffffffffffff811115610417576104166100fc565b5b6104238582860161026c565b9250506020610434858286016103cd565b9150509250929050565b600081519050919050565b7f4e487b7100000000000000000000000000000000000000000000000000000000600052602260045260246000fd5b6000600282049050600182168061049057607f821691505b6020821081036104a3576104a2610449565b5b50919050565b60008190508160005260206000209050919050565b60006020601f8301049050919050565b600082821b905092915050565b60006008830261050b7fffffffffffffffffffffffffffffffffffffffffffffffffffffffffffffffff826104ce565b61051586836104ce565b95508019841693508086168417925050509392505050565b6000819050919050565b6000819050919050565b600061055c6105576105528461052d565b610537565b61052d565b9050919050565b6000819050919050565b61057683610541565b61058a61058282610563565b8484546104db565b825550505050565b600090565b61059f610592565b6105aa81848461056d565b505050565b5b818110156105ce576105c3600082610597565b6001810190506105b0565b5050565b601f821115610613576105e4816104a9565b6105ed846104be565b810160208510156105fc578190505b610610610608856104be565b8301826105af565b50505b505050565b600082821c905092915050565b600061063660001984600802610618565b1980831691505092915050565b600061064f8383610625565b9150826002028217905092915050565b6106688261043e565b67ffffffffffffffff81111561068157610680610117565b5b61068b8254610478565b6106968282856105d2565b600060209050601f8311600181146106c957600084156106b7578287015190505b6106c18582610643565b865550610729565b601f1984166106d7866104a9565b60005b828110156106ff578489015182556001820191506020850194506020810190506106da565b8683101561071c5784890151610718601f891682610625565b8355505b6001600288020188555050505b505050505050565b6105fa806107406000396000f3fe608060405234801561001057600080fd5b50600436106100365760003560e01c806373e55b2f1461003b578063bb93d50014610059575b600080fd5b610043610077565b60405161005091906104e6565b60405180910390f35b61006161036b565b60405161006e9190610549565b60405180910390f35b61007f610395565b60006040518060a001604052908160008201805461009c90610593565b80601f01602080910402602001604051908101604052809291908181526020018280546100c890610593565b80156101155780601f106100ea57610100808354040283529160200191610115565b820191906000526020600020905b8154815290600101906020018083116100f857829003601f168201915b5050505050815260200160018201805461012e90610593565b80601f016020809104026020016040519081016040528092919081815260200182805461015a90610593565b80156101a75780601f1061017c576101008083540402835291602001916101a7565b820191906000526020600020905b81548152906001019060200180831161018a57829003601f168201915b505050505081526020016002820180546101c090610593565b80601f01602080910402602001604051908101604052809291908181526020018280546101ec90610593565b80156102395780601f1061020e57610100808354040283529160200191610239565b820191906000526020600020905b81548152906001019060200180831161021c57829003601f168201915b5050505050815260200160038201805461025290610593565b80601f016020809104026020016040519081016040528092919081815260200182805461027e90610593565b80156102cb5780601f106102a0576101008083540402835291602001916102cb565b820191906000526020600020905b8154815290600101906020018083116102ae57829003601f168201915b505050505081526020016004820180546102e490610593565b80601f016020809104026020016040519081016040528092919081815260200182805461031090610593565b801561035d5780601f106103325761010080835404028352916020019161035d565b820191906000526020600020905b81548152906001019060200180831161034057829003601f168201915b505050505081525050905090565b6000600560009054906101000a900473ffffffffffffffffffffffffffffffffffffffff16905090565b6040518060a0016040528060608152602001606081526020016060815260200160608152602001606081525090565b600081519050919050565b600082825260208201905092915050565b60005b838110156103fe5780820151818401526020810190506103e3565b60008484015250505050565b6000601f19601f8301169050919050565b6000610426826103c4565b61043081856103cf565b93506104408185602086016103e0565b6104498161040a565b840191505092915050565b600060a0830160008301518482036000860152610471828261041b565b9150506020830151848203602086015261048b828261041b565b915050604083015184820360408601526104a5828261041b565b915050606083015184820360608601526104bf828261041b565b915050608083015184820360808601526104d9828261041b565b9150508091505092915050565b600060208201905081810360008301526105008184610454565b905092915050565b600073ffffffffffffffffffffffffffffffffffffffff82169050919050565b600061053382610508565b9050919050565b61054381610528565b82525050565b600060208201905061055e600083018461053a565b92915050565b7f4e487b7100000000000000000000000000000000000000000000000000000000600052602260045260246000fd5b600060028204905060018216806105ab57607f821691505b6020821081036105be576105bd610564565b5b5091905056fea2646970667358221220abdbaa77c5374415cfffa682edd27ed4694c1976424a07e60f2a4a07ccc5b83064736f6c634300081b0033a2646970667358221220c510d0b8f97c6f860cdbfe31965c09131aa811b7fd880496de9222738602d49a64736f6c634300081b0033",
  "linkReferences": {},
  "deployedLinkReferences": {}
}