{
  "_format": "hh-sol-artifact-1",
  "contractName": "Urna",
  "sourceName": "contracts/Urna.sol",
  "abi": [
    {
      "inputs": [
        {
          "internalType": "address",
          "name": "_TSE",
          "type": "address"
        }
      ],
      "stateMutability": "nonpayable",
      "type": "constructor"
    },
    {
      "inputs": [
        {
          "internalType": "address",
          "name": "owner",
          "type": "address"
        }
      ],
      "name": "OwnableInvalidOwner",
      "type": "error"
    },
    {
      "inputs": [
        {
          "internalType": "address",
          "name": "account",
          "type": "address"
        }
      ],
      "name": "OwnableUnauthorizedAccount",
      "type": "error"
    },
    {
      "inputs": [
        {
          "internalType": "address",
          "name": "elector",
          "type": "address"
        },
        {
          "internalType": "uint256",
          "name": "position",
          "type": "uint256"
        }
      ],
      "name": "alreadyVoted_",
      "type": "error"
    },
    {
      "inputs": [
        {
          "internalType": "address",
          "name": "candidate",
          "type": "address"
        }
      ],
      "name": "candidadeNotFound",
      "type": "error"
    },
    {
      "inputs": [
        {
          "internalType": "address",
          "name": "elector",
          "type": "address"
        }
      ],
      "name": "electorNotFound",
      "type": "error"
    },
    {
      "anonymous": false,
      "inputs": [
        {
          "indexed": true,
          "internalType": "address",
          "name": "previousOwner",
          "type": "address"
        },
        {
          "indexed": true,
          "internalType": "address",
          "name": "newOwner",
          "type": "address"
        }
      ],
      "name": "OwnershipTransferred",
      "type": "event"
    },
    {
      "anonymous": false,
      "inputs": [
        {
          "indexed": false,
          "internalType": "address",
          "name": "elector",
          "type": "address"
        },
        {
          "indexed": false,
          "internalType": "address",
          "name": "candidate",
          "type": "address"
        },
        {
          "indexed": false,
          "internalType": "uint256",
          "name": "candidate_total_votes",
          "type": "uint256"
        }
      ],
      "name": "voted",
      "type": "event"
    },
    {
      "inputs": [
        {
          "components": [
            {
              "internalType": "string",
              "name": "name",
              "type": "string"
            },
            {
              "internalType": "string",
              "name": "describe",
              "type": "string"
            },
            {
              "internalType": "string",
              "name": "candidatePhoto",
              "type": "string"
            },
            {
              "internalType": "string",
              "name": "politicalPartyName",
              "type": "string"
            },
            {
              "internalType": "uint256",
              "name": "politicalPartyNumber",
              "type": "uint256"
            }
          ],
          "internalType": "struct CandidateStructs.candidateData",
          "name": "data_",
          "type": "tuple"
        },
        {
          "internalType": "uint256",
          "name": "position_",
          "type": "uint256"
        }
      ],
      "name": "createCandidate",
      "outputs": [],
      "stateMutability": "nonpayable",
      "type": "function"
    },
    {
      "inputs": [
        {
          "components": [
            {
              "internalType": "string",
              "name": "name",
              "type": "string"
            },
            {
              "internalType": "string",
              "name": "cpf",
              "type": "string"
            }
          ],
          "internalType": "struct ElectorStructs.electorData",
          "name": "data_",
          "type": "tuple"
        },
        {
          "internalType": "address",
          "name": "owner_",
          "type": "address"
        }
      ],
      "name": "createElector",
      "outputs": [],
      "stateMutability": "nonpayable",
      "type": "function"
    },
    {
      "inputs": [],
      "name": "owner",
      "outputs": [
        {
          "internalType": "address",
          "name": "",
          "type": "address"
        }
      ],
      "stateMutability": "view",
      "type": "function"
    },
    {
      "inputs": [],
      "name": "renounceOwnership",
      "outputs": [],
      "stateMutability": "nonpayable",
      "type": "function"
    },
    {
      "inputs": [
        {
          "internalType": "address",
          "name": "newOwner",
          "type": "address"
        }
      ],
      "name": "transferOwnership",
      "outputs": [],
      "stateMutability": "nonpayable",
      "type": "function"
    },
    {
      "inputs": [
        {
          "internalType": "address",
          "name": "candidate",
          "type": "address"
        }
      ],
      "name": "verifyVotes",
      "outputs": [
        {
          "internalType": "uint256",
          "name": "",
          "type": "uint256"
        }
      ],
      "stateMutability": "view",
      "type": "function"
    },
    {
      "inputs": [
        {
          "internalType": "address",
          "name": "candidate",
          "type": "address"
        },
        {
          "internalType": "uint256",
          "name": "position",
          "type": "uint256"
        }
      ],
      "name": "vote",
      "outputs": [],
      "stateMutability": "nonpayable",
      "type": "function"
    }
  ],
  "bytecode": "0x608060405234801561001057600080fd5b50604051612e34380380612e34833981810160405281019061003291906101e2565b80600073ffffffffffffffffffffffffffffffffffffffff168173ffffffffffffffffffffffffffffffffffffffff16036100a55760006040517f1e4fbdf700000000000000000000000000000000000000000000000000000000815260040161009c919061021e565b60405180910390fd5b6100b4816100bb60201b60201c565b5050610239565b60008060009054906101000a900473ffffffffffffffffffffffffffffffffffffffff169050816000806101000a81548173ffffffffffffffffffffffffffffffffffffffff021916908373ffffffffffffffffffffffffffffffffffffffff1602179055508173ffffffffffffffffffffffffffffffffffffffff168173ffffffffffffffffffffffffffffffffffffffff167f8be0079c531659141344cd1fd0a4f28419497f9722a3daafe3b4186f6b6457e060405160405180910390a35050565b600080fd5b600073ffffffffffffffffffffffffffffffffffffffff82169050919050565b60006101af82610184565b9050919050565b6101bf816101a4565b81146101ca57600080fd5b50565b6000815190506101dc816101b6565b92915050565b6000602082840312156101f8576101f761017f565b5b6000610206848285016101cd565b91505092915050565b610218816101a4565b82525050565b6000602082019050610233600083018461020f565b92915050565b612bec806102486000396000f3fe608060405234801561001057600080fd5b506004361061007d5760003560e01c80638da5cb5b1161005b5780638da5cb5b146100c4578063b00d2b16146100e2578063f2fde38b14610112578063fb2b2b5a1461012e5761007d565b80635b3fde96146100825780635f74bbde1461009e578063715018a6146100ba575b600080fd5b61009c60048036038101906100979190610b46565b61014a565b005b6100b860048036038101906100b39190610bd8565b610160565b005b6100c2610332565b005b6100cc610346565b6040516100d99190610c27565b60405180910390f35b6100fc60048036038101906100f79190610c42565b61036f565b6040516101099190610c7e565b60405180910390f35b61012c60048036038101906101279190610c42565b6103b8565b005b61014860048036038101906101439190610d95565b61043e565b005b610152610454565b61015c82826104db565b5050565b600061016c338361059a565b905080156101b35733826040517fd21e877b0000000000000000000000000000000000000000000000000000000081526004016101aa929190610df1565b60405180910390fd5b60006101bf8484610602565b90508061020357836040517f491788ad0000000000000000000000000000000000000000000000000000000081526004016101fa9190610c27565b60405180910390fd5b600061020e3361066a565b90508061025257336040517f6d7807a90000000000000000000000000000000000000000000000000000000081526004016102499190610c27565b60405180910390fd5b61025c3385610702565b600360008673ffffffffffffffffffffffffffffffffffffffff1673ffffffffffffffffffffffffffffffffffffffff16815260200190815260200160002060008154809291906102ac90610e49565b91905055507f9df1db5c4300ffb6c360aa6a41d9a19de3d9ab685fb2fff2782a64204e8d7f433386600360008973ffffffffffffffffffffffffffffffffffffffff1673ffffffffffffffffffffffffffffffffffffffff1681526020019081526020016000205460405161032393929190610e91565b60405180910390a15050505050565b61033a610454565b610344600061076f565b565b60008060009054906101000a900473ffffffffffffffffffffffffffffffffffffffff16905090565b6000600360008373ffffffffffffffffffffffffffffffffffffffff1673ffffffffffffffffffffffffffffffffffffffff168152602001908152602001600020549050919050565b6103c0610454565b600073ffffffffffffffffffffffffffffffffffffffff168173ffffffffffffffffffffffffffffffffffffffff16036104325760006040517f1e4fbdf70000000000000000000000000000000000000000000000000000000081526004016104299190610c27565b60405180910390fd5b61043b8161076f565b50565b610446610454565b6104508282610833565b5050565b61045c6108da565b73ffffffffffffffffffffffffffffffffffffffff1661047a610346565b73ffffffffffffffffffffffffffffffffffffffff16146104d95761049d6108da565b6040517f118cdaa70000000000000000000000000000000000000000000000000000000081526004016104d09190610c27565b60405180910390fd5b565b60008282306040516104ec906108e2565b6104f893929190610f8b565b604051809103906000f080158015610514573d6000803e3d6000fd5b50905080600260008473ffffffffffffffffffffffffffffffffffffffff1673ffffffffffffffffffffffffffffffffffffffff16815260200190815260200160002060006101000a81548173ffffffffffffffffffffffffffffffffffffffff021916908373ffffffffffffffffffffffffffffffffffffffff160217905550505050565b6000600460008473ffffffffffffffffffffffffffffffffffffffff1673ffffffffffffffffffffffffffffffffffffffff168152602001908152602001600020600083815260200190815260200160002060009054906101000a900460ff16905092915050565b60006001600083815260200190815260200160002060008473ffffffffffffffffffffffffffffffffffffffff1673ffffffffffffffffffffffffffffffffffffffff16815260200190815260200160002060009054906101000a900460ff16905092915050565b60008073ffffffffffffffffffffffffffffffffffffffff16600260008473ffffffffffffffffffffffffffffffffffffffff1673ffffffffffffffffffffffffffffffffffffffff16815260200190815260200160002060009054906101000a900473ffffffffffffffffffffffffffffffffffffffff1673ffffffffffffffffffffffffffffffffffffffff1614159050919050565b6001600460008473ffffffffffffffffffffffffffffffffffffffff1673ffffffffffffffffffffffffffffffffffffffff168152602001908152602001600020600083815260200190815260200160002060006101000a81548160ff0219169083151502179055505050565b60008060009054906101000a900473ffffffffffffffffffffffffffffffffffffffff169050816000806101000a81548173ffffffffffffffffffffffffffffffffffffffff021916908373ffffffffffffffffffffffffffffffffffffffff1602179055508173ffffffffffffffffffffffffffffffffffffffff168173ffffffffffffffffffffffffffffffffffffffff167f8be0079c531659141344cd1fd0a4f28419497f9722a3daafe3b4186f6b6457e060405160405180910390a35050565b60008230604051610843906108ef565b61084e929190611063565b604051809103906000f08015801561086a573d6000803e3d6000fd5b509050600180600084815260200190815260200160002060008373ffffffffffffffffffffffffffffffffffffffff1673ffffffffffffffffffffffffffffffffffffffff16815260200190815260200160002060006101000a81548160ff021916908315150217905550505050565b600033905090565b610e5b8061109483390190565b610cc880611eef83390190565b6000604051905090565b600080fd5b600080fd5b600080fd5b6000601f19601f8301169050919050565b7f4e487b7100000000000000000000000000000000000000000000000000000000600052604160045260246000fd5b61095e82610915565b810181811067ffffffffffffffff8211171561097d5761097c610926565b5b80604052505050565b60006109906108fc565b905061099c8282610955565b919050565b600080fd5b600080fd5b600080fd5b600067ffffffffffffffff8211156109cb576109ca610926565b5b6109d482610915565b9050602081019050919050565b82818337600083830152505050565b6000610a036109fe846109b0565b610986565b905082815260208101848484011115610a1f57610a1e6109ab565b5b610a2a8482856109e1565b509392505050565b600082601f830112610a4757610a466109a6565b5b8135610a578482602086016109f0565b91505092915050565b600060408284031215610a7657610a75610910565b5b610a806040610986565b9050600082013567ffffffffffffffff811115610aa057610a9f6109a1565b5b610aac84828501610a32565b600083015250602082013567ffffffffffffffff811115610ad057610acf6109a1565b5b610adc84828501610a32565b60208301525092915050565b600073ffffffffffffffffffffffffffffffffffffffff82169050919050565b6000610b1382610ae8565b9050919050565b610b2381610b08565b8114610b2e57600080fd5b50565b600081359050610b4081610b1a565b92915050565b60008060408385031215610b5d57610b5c610906565b5b600083013567ffffffffffffffff811115610b7b57610b7a61090b565b5b610b8785828601610a60565b9250506020610b9885828601610b31565b9150509250929050565b6000819050919050565b610bb581610ba2565b8114610bc057600080fd5b50565b600081359050610bd281610bac565b92915050565b60008060408385031215610bef57610bee610906565b5b6000610bfd85828601610b31565b9250506020610c0e85828601610bc3565b9150509250929050565b610c2181610b08565b82525050565b6000602082019050610c3c6000830184610c18565b92915050565b600060208284031215610c5857610c57610906565b5b6000610c6684828501610b31565b91505092915050565b610c7881610ba2565b82525050565b6000602082019050610c936000830184610c6f565b92915050565b600060a08284031215610caf57610cae610910565b5b610cb960a0610986565b9050600082013567ffffffffffffffff811115610cd957610cd86109a1565b5b610ce584828501610a32565b600083015250602082013567ffffffffffffffff811115610d0957610d086109a1565b5b610d1584828501610a32565b602083015250604082013567ffffffffffffffff811115610d3957610d386109a1565b5b610d4584828501610a32565b604083015250606082013567ffffffffffffffff811115610d6957610d686109a1565b5b610d7584828501610a32565b6060830152506080610d8984828501610bc3565b60808301525092915050565b60008060408385031215610dac57610dab610906565b5b600083013567ffffffffffffffff811115610dca57610dc961090b565b5b610dd685828601610c99565b9250506020610de785828601610bc3565b9150509250929050565b6000604082019050610e066000830185610c18565b610e136020830184610c6f565b9392505050565b7f4e487b7100000000000000000000000000000000000000000000000000000000600052601160045260246000fd5b6000610e5482610ba2565b91507fffffffffffffffffffffffffffffffffffffffffffffffffffffffffffffffff8203610e8657610e85610e1a565b5b600182019050919050565b6000606082019050610ea66000830186610c18565b610eb36020830185610c18565b610ec06040830184610c6f565b949350505050565b600081519050919050565b600082825260208201905092915050565b60005b83811015610f02578082015181840152602081019050610ee7565b60008484015250505050565b6000610f1982610ec8565b610f238185610ed3565b9350610f33818560208601610ee4565b610f3c81610915565b840191505092915050565b60006040830160008301518482036000860152610f648282610f0e565b91505060208301518482036020860152610f7e8282610f0e565b9150508091505092915050565b60006060820190508181036000830152610fa58186610f47565b9050610fb46020830185610c18565b610fc16040830184610c18565b949350505050565b610fd281610ba2565b82525050565b600060a0830160008301518482036000860152610ff58282610f0e565b9150506020830151848203602086015261100f8282610f0e565b915050604083015184820360408601526110298282610f0e565b915050606083015184820360608601526110438282610f0e565b91505060808301516110586080860182610fc9565b508091505092915050565b6000604082019050818103600083015261107d8185610fd8565b905061108c6020830184610c18565b939250505056fe608060405234801561001057600080fd5b50604051610e5b380380610e5b83398181016040528101906100329190610459565b81600073ffffffffffffffffffffffffffffffffffffffff168173ffffffffffffffffffffffffffffffffffffffff16036100a55760006040517f1e4fbdf700000000000000000000000000000000000000000000000000000000815260040161009c91906104d7565b60405180910390fd5b6100b48161013060201b60201c565b5082600160008201518160000190816100cd9190610713565b5060208201518160010190816100e39190610713565b5090505080600360006101000a81548173ffffffffffffffffffffffffffffffffffffffff021916908373ffffffffffffffffffffffffffffffffffffffff1602179055505050506107e5565b60008060009054906101000a900473ffffffffffffffffffffffffffffffffffffffff169050816000806101000a81548173ffffffffffffffffffffffffffffffffffffffff021916908373ffffffffffffffffffffffffffffffffffffffff1602179055508173ffffffffffffffffffffffffffffffffffffffff168173ffffffffffffffffffffffffffffffffffffffff167f8be0079c531659141344cd1fd0a4f28419497f9722a3daafe3b4186f6b6457e060405160405180910390a35050565b6000604051905090565b600080fd5b600080fd5b600080fd5b6000601f19601f8301169050919050565b7f4e487b7100000000000000000000000000000000000000000000000000000000600052604160045260246000fd5b6102568261020d565b810181811067ffffffffffffffff821117156102755761027461021e565b5b80604052505050565b60006102886101f4565b9050610294828261024d565b919050565b600080fd5b600080fd5b600080fd5b600067ffffffffffffffff8211156102c3576102c261021e565b5b6102cc8261020d565b9050602081019050919050565b60005b838110156102f75780820151818401526020810190506102dc565b60008484015250505050565b6000610316610311846102a8565b61027e565b905082815260208101848484011115610332576103316102a3565b5b61033d8482856102d9565b509392505050565b600082601f83011261035a5761035961029e565b5b815161036a848260208601610303565b91505092915050565b60006040828403121561038957610388610208565b5b610393604061027e565b9050600082015167ffffffffffffffff8111156103b3576103b2610299565b5b6103bf84828501610345565b600083015250602082015167ffffffffffffffff8111156103e3576103e2610299565b5b6103ef84828501610345565b60208301525092915050565b600073ffffffffffffffffffffffffffffffffffffffff82169050919050565b6000610426826103fb565b9050919050565b6104368161041b565b811461044157600080fd5b50565b6000815190506104538161042d565b92915050565b600080600060608486031215610472576104716101fe565b5b600084015167ffffffffffffffff8111156104905761048f610203565b5b61049c86828701610373565b93505060206104ad86828701610444565b92505060406104be86828701610444565b9150509250925092565b6104d18161041b565b82525050565b60006020820190506104ec60008301846104c8565b92915050565b600081519050919050565b7f4e487b7100000000000000000000000000000000000000000000000000000000600052602260045260246000fd5b6000600282049050600182168061054457607f821691505b602082108103610557576105566104fd565b5b50919050565b60008190508160005260206000209050919050565b60006020601f8301049050919050565b600082821b905092915050565b6000600883026105bf7fffffffffffffffffffffffffffffffffffffffffffffffffffffffffffffffff82610582565b6105c98683610582565b95508019841693508086168417925050509392505050565b6000819050919050565b6000819050919050565b600061061061060b610606846105e1565b6105eb565b6105e1565b9050919050565b6000819050919050565b61062a836105f5565b61063e61063682610617565b84845461058f565b825550505050565b600090565b610653610646565b61065e818484610621565b505050565b5b818110156106825761067760008261064b565b600181019050610664565b5050565b601f8211156106c7576106988161055d565b6106a184610572565b810160208510156106b0578190505b6106c46106bc85610572565b830182610663565b50505b505050565b600082821c905092915050565b60006106ea600019846008026106cc565b1980831691505092915050565b600061070383836106d9565b9150826002028217905092915050565b61071c826104f2565b67ffffffffffffffff8111156107355761073461021e565b5b61073f825461052c565b61074a828285610686565b600060209050601f83116001811461077d576000841561076b578287015190505b61077585826106f7565b8655506107dd565b601f19841661078b8661055d565b60005b828110156107b35784890151825560018201915060208501945060208101905061078e565b868310156107d057848901516107cc601f8916826106d9565b8355505b6001600288020188555050505b505050505050565b610667806107f46000396000f3fe608060405234801561001057600080fd5b506004361061004c5760003560e01c80631fb662e614610051578063715018a61461006f5780638da5cb5b14610079578063f2fde38b14610097575b600080fd5b6100596100b3565b60405161006691906104f5565b60405180910390f35b6100776101f1565b005b610081610205565b60405161008e9190610558565b60405180910390f35b6100b160048036038101906100ac91906105a4565b61022e565b005b6100bb610407565b60016040518060400160405290816000820180546100d890610600565b80601f016020809104026020016040519081016040528092919081815260200182805461010490610600565b80156101515780601f1061012657610100808354040283529160200191610151565b820191906000526020600020905b81548152906001019060200180831161013457829003601f168201915b5050505050815260200160018201805461016a90610600565b80601f016020809104026020016040519081016040528092919081815260200182805461019690610600565b80156101e35780601f106101b8576101008083540402835291602001916101e3565b820191906000526020600020905b8154815290600101906020018083116101c657829003601f168201915b505050505081525050905090565b6101f96102b4565b610203600061033b565b565b60008060009054906101000a900473ffffffffffffffffffffffffffffffffffffffff16905090565b6102366102b4565b600073ffffffffffffffffffffffffffffffffffffffff168173ffffffffffffffffffffffffffffffffffffffff16036102a85760006040517f1e4fbdf700000000000000000000000000000000000000000000000000000000815260040161029f9190610558565b60405180910390fd5b6102b18161033b565b50565b6102bc6103ff565b73ffffffffffffffffffffffffffffffffffffffff166102da610205565b73ffffffffffffffffffffffffffffffffffffffff1614610339576102fd6103ff565b6040517f118cdaa70000000000000000000000000000000000000000000000000000000081526004016103309190610558565b60405180910390fd5b565b60008060009054906101000a900473ffffffffffffffffffffffffffffffffffffffff169050816000806101000a81548173ffffffffffffffffffffffffffffffffffffffff021916908373ffffffffffffffffffffffffffffffffffffffff1602179055508173ffffffffffffffffffffffffffffffffffffffff168173ffffffffffffffffffffffffffffffffffffffff167f8be0079c531659141344cd1fd0a4f28419497f9722a3daafe3b4186f6b6457e060405160405180910390a35050565b600033905090565b604051806040016040528060608152602001606081525090565b600081519050919050565b600082825260208201905092915050565b60005b8381101561045b578082015181840152602081019050610440565b60008484015250505050565b6000601f19601f8301169050919050565b600061048382610421565b61048d818561042c565b935061049d81856020860161043d565b6104a681610467565b840191505092915050565b600060408301600083015184820360008601526104ce8282610478565b915050602083015184820360208601526104e88282610478565b9150508091505092915050565b6000602082019050818103600083015261050f81846104b1565b905092915050565b600073ffffffffffffffffffffffffffffffffffffffff82169050919050565b600061054282610517565b9050919050565b61055281610537565b82525050565b600060208201905061056d6000830184610549565b92915050565b600080fd5b61058181610537565b811461058c57600080fd5b50565b60008135905061059e81610578565b92915050565b6000602082840312156105ba576105b9610573565b5b60006105c88482850161058f565b91505092915050565b7f4e487b7100000000000000000000000000000000000000000000000000000000600052602260045260246000fd5b6000600282049050600182168061061857607f821691505b60208210810361062b5761062a6105d1565b5b5091905056fea26469706673582212207c4275fd95dff7e602ef76b099b0f172467b8b68388f5179305dc9cb5a9515c364736f6c634300081b0033608060405234801561001057600080fd5b50604051610cc8380380610cc8833981810160405281019061003291906103f0565b816000808201518160000190816100499190610663565b50602082015181600101908161005f9190610663565b5060408201518160020190816100759190610663565b50606082015181600301908161008b9190610663565b506080820151816004015590505080600560006101000a81548173ffffffffffffffffffffffffffffffffffffffff021916908373ffffffffffffffffffffffffffffffffffffffff1602179055505050610735565b6000604051905090565b600080fd5b600080fd5b600080fd5b6000601f19601f8301169050919050565b7f4e487b7100000000000000000000000000000000000000000000000000000000600052604160045260246000fd5b610143826100fa565b810181811067ffffffffffffffff821117156101625761016161010b565b5b80604052505050565b60006101756100e1565b9050610181828261013a565b919050565b600080fd5b600080fd5b600080fd5b600067ffffffffffffffff8211156101b0576101af61010b565b5b6101b9826100fa565b9050602081019050919050565b60005b838110156101e45780820151818401526020810190506101c9565b60008484015250505050565b60006102036101fe84610195565b61016b565b90508281526020810184848401111561021f5761021e610190565b5b61022a8482856101c6565b509392505050565b600082601f8301126102475761024661018b565b5b81516102578482602086016101f0565b91505092915050565b6000819050919050565b61027381610260565b811461027e57600080fd5b50565b6000815190506102908161026a565b92915050565b600060a082840312156102ac576102ab6100f5565b5b6102b660a061016b565b9050600082015167ffffffffffffffff8111156102d6576102d5610186565b5b6102e284828501610232565b600083015250602082015167ffffffffffffffff81111561030657610305610186565b5b61031284828501610232565b602083015250604082015167ffffffffffffffff81111561033657610335610186565b5b61034284828501610232565b604083015250606082015167ffffffffffffffff81111561036657610365610186565b5b61037284828501610232565b606083015250608061038684828501610281565b60808301525092915050565b600073ffffffffffffffffffffffffffffffffffffffff82169050919050565b60006103bd82610392565b9050919050565b6103cd816103b2565b81146103d857600080fd5b50565b6000815190506103ea816103c4565b92915050565b60008060408385031215610407576104066100eb565b5b600083015167ffffffffffffffff811115610425576104246100f0565b5b61043185828601610296565b9250506020610442858286016103db565b9150509250929050565b600081519050919050565b7f4e487b7100000000000000000000000000000000000000000000000000000000600052602260045260246000fd5b6000600282049050600182168061049e57607f821691505b6020821081036104b1576104b0610457565b5b50919050565b60008190508160005260206000209050919050565b60006020601f8301049050919050565b600082821b905092915050565b6000600883026105197fffffffffffffffffffffffffffffffffffffffffffffffffffffffffffffffff826104dc565b61052386836104dc565b95508019841693508086168417925050509392505050565b6000819050919050565b600061056061055b61055684610260565b61053b565b610260565b9050919050565b6000819050919050565b61057a83610545565b61058e61058682610567565b8484546104e9565b825550505050565b600090565b6105a3610596565b6105ae818484610571565b505050565b5b818110156105d2576105c760008261059b565b6001810190506105b4565b5050565b601f821115610617576105e8816104b7565b6105f1846104cc565b81016020851015610600578190505b61061461060c856104cc565b8301826105b3565b50505b505050565b600082821c905092915050565b600061063a6000198460080261061c565b1980831691505092915050565b60006106538383610629565b9150826002028217905092915050565b61066c8261044c565b67ffffffffffffffff8111156106855761068461010b565b5b61068f8254610486565b61069a8282856105d6565b600060209050601f8311600181146106cd57600084156106bb578287015190505b6106c58582610647565b86555061072d565b601f1984166106db866104b7565b60005b82811015610703578489015182556001820191506020850194506020810190506106de565b86831015610720578489015161071c601f891682610629565b8355505b6001600288020188555050505b505050505050565b610584806107446000396000f3fe608060405234801561001057600080fd5b50600436106100365760003560e01c806373e55b2f1461003b578063bb93d50014610059575b600080fd5b610043610077565b6040516100509190610470565b60405180910390f35b6100616102e3565b60405161006e91906104d3565b60405180910390f35b61007f61030d565b60006040518060a001604052908160008201805461009c9061051d565b80601f01602080910402602001604051908101604052809291908181526020018280546100c89061051d565b80156101155780601f106100ea57610100808354040283529160200191610115565b820191906000526020600020905b8154815290600101906020018083116100f857829003601f168201915b5050505050815260200160018201805461012e9061051d565b80601f016020809104026020016040519081016040528092919081815260200182805461015a9061051d565b80156101a75780601f1061017c576101008083540402835291602001916101a7565b820191906000526020600020905b81548152906001019060200180831161018a57829003601f168201915b505050505081526020016002820180546101c09061051d565b80601f01602080910402602001604051908101604052809291908181526020018280546101ec9061051d565b80156102395780601f1061020e57610100808354040283529160200191610239565b820191906000526020600020905b81548152906001019060200180831161021c57829003601f168201915b505050505081526020016003820180546102529061051d565b80601f016020809104026020016040519081016040528092919081815260200182805461027e9061051d565b80156102cb5780601f106102a0576101008083540402835291602001916102cb565b820191906000526020600020905b8154815290600101906020018083116102ae57829003601f168201915b50505050508152602001600482015481525050905090565b6000600560009054906101000a900473ffffffffffffffffffffffffffffffffffffffff16905090565b6040518060a0016040528060608152602001606081526020016060815260200160608152602001600081525090565b600081519050919050565b600082825260208201905092915050565b60005b8381101561037657808201518184015260208101905061035b565b60008484015250505050565b6000601f19601f8301169050919050565b600061039e8261033c565b6103a88185610347565b93506103b8818560208601610358565b6103c181610382565b840191505092915050565b6000819050919050565b6103df816103cc565b82525050565b600060a08301600083015184820360008601526104028282610393565b9150506020830151848203602086015261041c8282610393565b915050604083015184820360408601526104368282610393565b915050606083015184820360608601526104508282610393565b915050608083015161046560808601826103d6565b508091505092915050565b6000602082019050818103600083015261048a81846103e5565b905092915050565b600073ffffffffffffffffffffffffffffffffffffffff82169050919050565b60006104bd82610492565b9050919050565b6104cd816104b2565b82525050565b60006020820190506104e860008301846104c4565b92915050565b7f4e487b7100000000000000000000000000000000000000000000000000000000600052602260045260246000fd5b6000600282049050600182168061053557607f821691505b602082108103610548576105476104ee565b5b5091905056fea2646970667358221220c42ac2197660760aa7d26a8e42a4606bca8b27bca57a9ecbe5e12c7cfc82766064736f6c634300081b0033a26469706673582212201f02f213e5509fcf8eb73f127506a2ab209b549ba03cf85f5e6827848bcfb54b64736f6c634300081b0033",
  "linkReferences": {},
  "deployedLinkReferences": {}
}