{
  "_format": "hh-sol-artifact-1",
  "contractName": "urna",
  "sourceName": "contracts/urna.sol",
  "abi": [
    {
      "inputs": [
        {
          "internalType": "uint256",
          "name": "time_",
          "type": "uint256"
        }
      ],
      "stateMutability": "nonpayable",
      "type": "constructor"
    },
    {
      "inputs": [
        {
          "internalType": "uint256",
          "name": "",
          "type": "uint256"
        }
      ],
      "name": "electors",
      "outputs": [
        {
          "internalType": "contract elector",
          "name": "",
          "type": "address"
        }
      ],
      "stateMutability": "view",
      "type": "function"
    },
    {
      "inputs": [
        {
          "internalType": "uint256",
          "name": "",
          "type": "uint256"
        }
      ],
      "name": "federalDeputies",
      "outputs": [
        {
          "internalType": "contract candidate",
          "name": "",
          "type": "address"
        }
      ],
      "stateMutability": "view",
      "type": "function"
    },
    {
      "inputs": [
        {
          "internalType": "uint256",
          "name": "",
          "type": "uint256"
        }
      ],
      "name": "governors",
      "outputs": [
        {
          "internalType": "contract candidate",
          "name": "",
          "type": "address"
        }
      ],
      "stateMutability": "view",
      "type": "function"
    },
    {
      "inputs": [
        {
          "internalType": "string",
          "name": "_name",
          "type": "string"
        },
        {
          "internalType": "string",
          "name": "_describe",
          "type": "string"
        },
        {
          "internalType": "string",
          "name": "_candidatePhoto",
          "type": "string"
        },
        {
          "internalType": "string",
          "name": "_politicalPartyName",
          "type": "string"
        },
        {
          "internalType": "uint256",
          "name": "_politicalPartyNumber",
          "type": "uint256"
        }
      ],
      "name": "newCandidateFederalDeputie",
      "outputs": [],
      "stateMutability": "nonpayable",
      "type": "function"
    },
    {
      "inputs": [
        {
          "internalType": "string",
          "name": "_name",
          "type": "string"
        },
        {
          "internalType": "string",
          "name": "_describe",
          "type": "string"
        },
        {
          "internalType": "string",
          "name": "_candidatePhoto",
          "type": "string"
        },
        {
          "internalType": "string",
          "name": "_politicalPartyName",
          "type": "string"
        },
        {
          "internalType": "uint256",
          "name": "_politicalPartyNumber",
          "type": "uint256"
        }
      ],
      "name": "newCandidateGovernor",
      "outputs": [],
      "stateMutability": "nonpayable",
      "type": "function"
    },
    {
      "inputs": [
        {
          "internalType": "string",
          "name": "_name",
          "type": "string"
        },
        {
          "internalType": "string",
          "name": "_describe",
          "type": "string"
        },
        {
          "internalType": "string",
          "name": "_candidatePhoto",
          "type": "string"
        },
        {
          "internalType": "string",
          "name": "_politicalPartyName",
          "type": "string"
        },
        {
          "internalType": "uint256",
          "name": "_politicalPartyNumber",
          "type": "uint256"
        }
      ],
      "name": "newCandidatePresident",
      "outputs": [],
      "stateMutability": "nonpayable",
      "type": "function"
    },
    {
      "inputs": [
        {
          "internalType": "string",
          "name": "_name",
          "type": "string"
        },
        {
          "internalType": "string",
          "name": "_describe",
          "type": "string"
        },
        {
          "internalType": "string",
          "name": "_candidatePhoto",
          "type": "string"
        },
        {
          "internalType": "string",
          "name": "_politicalPartyName",
          "type": "string"
        },
        {
          "internalType": "uint256",
          "name": "_politicalPartyNumber",
          "type": "uint256"
        }
      ],
      "name": "newCandidateSenator",
      "outputs": [],
      "stateMutability": "nonpayable",
      "type": "function"
    },
    {
      "inputs": [
        {
          "internalType": "string",
          "name": "_name",
          "type": "string"
        },
        {
          "internalType": "string",
          "name": "_describe",
          "type": "string"
        },
        {
          "internalType": "string",
          "name": "_candidatePhoto",
          "type": "string"
        },
        {
          "internalType": "string",
          "name": "_politicalPartyName",
          "type": "string"
        },
        {
          "internalType": "uint256",
          "name": "_politicalPartyNumber",
          "type": "uint256"
        }
      ],
      "name": "newCandidateStateDeputie",
      "outputs": [],
      "stateMutability": "nonpayable",
      "type": "function"
    },
    {
      "inputs": [
        {
          "internalType": "string",
          "name": "_name",
          "type": "string"
        },
        {
          "internalType": "string",
          "name": "_cpf",
          "type": "string"
        },
        {
          "internalType": "address",
          "name": "_owner",
          "type": "address"
        }
      ],
      "name": "newElector",
      "outputs": [],
      "stateMutability": "nonpayable",
      "type": "function"
    },
    {
      "inputs": [
        {
          "internalType": "uint256",
          "name": "",
          "type": "uint256"
        }
      ],
      "name": "presidents",
      "outputs": [
        {
          "internalType": "contract candidate",
          "name": "",
          "type": "address"
        }
      ],
      "stateMutability": "view",
      "type": "function"
    },
    {
      "inputs": [],
      "name": "returnElectorAddressKey",
      "outputs": [
        {
          "internalType": "contract elector",
          "name": "",
          "type": "address"
        }
      ],
      "stateMutability": "view",
      "type": "function"
    },
    {
      "inputs": [
        {
          "internalType": "contract elector",
          "name": "_address",
          "type": "address"
        }
      ],
      "name": "returnElectorPerm",
      "outputs": [
        {
          "internalType": "bool",
          "name": "",
          "type": "bool"
        }
      ],
      "stateMutability": "view",
      "type": "function"
    },
    {
      "inputs": [
        {
          "internalType": "uint256",
          "name": "",
          "type": "uint256"
        }
      ],
      "name": "senators",
      "outputs": [
        {
          "internalType": "contract candidate",
          "name": "",
          "type": "address"
        }
      ],
      "stateMutability": "view",
      "type": "function"
    },
    {
      "inputs": [
        {
          "internalType": "uint256",
          "name": "",
          "type": "uint256"
        }
      ],
      "name": "stateDeputies",
      "outputs": [
        {
          "internalType": "contract candidate",
          "name": "",
          "type": "address"
        }
      ],
      "stateMutability": "view",
      "type": "function"
    },
    {
      "inputs": [],
      "name": "time",
      "outputs": [
        {
          "internalType": "uint256",
          "name": "",
          "type": "uint256"
        }
      ],
      "stateMutability": "view",
      "type": "function"
    },
    {
      "inputs": [],
      "name": "viewCandidatesFederalDeputies",
      "outputs": [
        {
          "internalType": "contract candidate[]",
          "name": "",
          "type": "address[]"
        }
      ],
      "stateMutability": "view",
      "type": "function"
    },
    {
      "inputs": [],
      "name": "viewCandidatesGovernors",
      "outputs": [
        {
          "internalType": "contract candidate[]",
          "name": "",
          "type": "address[]"
        }
      ],
      "stateMutability": "view",
      "type": "function"
    },
    {
      "inputs": [],
      "name": "viewCandidatesPresidents",
      "outputs": [
        {
          "internalType": "contract candidate[]",
          "name": "",
          "type": "address[]"
        }
      ],
      "stateMutability": "view",
      "type": "function"
    },
    {
      "inputs": [],
      "name": "viewCandidatesSenators",
      "outputs": [
        {
          "internalType": "contract candidate[]",
          "name": "",
          "type": "address[]"
        }
      ],
      "stateMutability": "view",
      "type": "function"
    },
    {
      "inputs": [],
      "name": "viewCandidatesStateDeputies",
      "outputs": [
        {
          "internalType": "contract candidate[]",
          "name": "",
          "type": "address[]"
        }
      ],
      "stateMutability": "view",
      "type": "function"
    },
    {
      "inputs": [],
      "name": "viewElectors",
      "outputs": [
        {
          "internalType": "contract elector[]",
          "name": "",
          "type": "address[]"
        }
      ],
      "stateMutability": "view",
      "type": "function"
    },
    {
      "inputs": [
        {
          "internalType": "address",
          "name": "candidate_",
          "type": "address"
        }
      ],
      "name": "viewTotalVotes",
      "outputs": [
        {
          "internalType": "uint256",
          "name": "",
          "type": "uint256"
        }
      ],
      "stateMutability": "view",
      "type": "function"
    }
  ],
  "bytecode": "0x608060405234801561001057600080fd5b506040516150a83803806150a8833981810160405281019061003291906100d4565b33600960006101000a81548173ffffffffffffffffffffffffffffffffffffffff021916908373ffffffffffffffffffffffffffffffffffffffff16021790555062015180816100829190610130565b4261008d9190610172565b600a81905550506101a6565b600080fd5b6000819050919050565b6100b18161009e565b81146100bc57600080fd5b50565b6000815190506100ce816100a8565b92915050565b6000602082840312156100ea576100e9610099565b5b60006100f8848285016100bf565b91505092915050565b7f4e487b7100000000000000000000000000000000000000000000000000000000600052601160045260246000fd5b600061013b8261009e565b91506101468361009e565b92508282026101548161009e565b9150828204841483151761016b5761016a610101565b5b5092915050565b600061017d8261009e565b91506101888361009e565b92508282019050808211156101a05761019f610101565b5b92915050565b614ef3806101b56000396000f3fe608060405234801561001057600080fd5b50600436106101425760003560e01c80638a2e0fc4116100b8578063b39138a31161007c578063b39138a3146103af578063b5295aa4146103cb578063c23b3ccc146103e9578063c71813b414610405578063d5db3fa614610423578063f989755d1461044157610142565b80638a2e0fc4146102d35780638ed9a751146102ef578063a22c7aff1461031f578063a7277b001461034f578063ac9b92301461037f57610142565b8063540012c81161010a578063540012c81461021157806367fb30dd1461022d5780636e9a7d4d1461024b578063818c59a114610267578063856ebb0614610285578063863d2603146102b557610142565b8063035d3596146101475780631372d2651461016357806316ada547146101935780634ddc4e86146101b1578063539be776146101e1575b600080fd5b610161600480360381019061015c91906114f6565b61045f565b005b61017d600480360381019061017891906115e1565b61059c565b60405161018a919061168d565b60405180910390f35b61019b6105db565b6040516101a891906116b7565b60405180910390f35b6101cb60048036038101906101c69190611722565b6105e1565b6040516101d8919061176a565b60405180910390f35b6101fb60048036038101906101f691906115e1565b610637565b604051610208919061168d565b60405180910390f35b61022b600480360381019061022691906114f6565b610676565b005b6102356107b3565b6040516102429190611843565b60405180910390f35b610265600480360381019061026091906114f6565b610841565b005b61026f61097e565b60405161027c9190611843565b60405180910390f35b61029f600480360381019061029a91906115e1565b610a0c565b6040516102ac919061168d565b60405180910390f35b6102bd610a4b565b6040516102ca9190611843565b60405180910390f35b6102ed60048036038101906102e89190611891565b610ad9565b005b6103096004803603810190610304919061191c565b610d87565b60405161031691906116b7565b60405180910390f35b610339600480360381019061033491906115e1565b610e04565b604051610346919061168d565b60405180910390f35b610369600480360381019061036491906115e1565b610e43565b604051610376919061168d565b60405180910390f35b610399600480360381019061039491906115e1565b610e82565b6040516103a6919061196a565b60405180910390f35b6103c960048036038101906103c491906114f6565b610ec1565b005b6103d3610ffe565b6040516103e09190611843565b60405180910390f35b61040360048036038101906103fe91906114f6565b61108c565b005b61040d6111c9565b60405161041a919061196a565b60405180910390f35b61042b611230565b6040516104389190611a32565b60405180910390f35b6104496112be565b6040516104569190611843565b60405180910390f35b600960009054906101000a900473ffffffffffffffffffffffffffffffffffffffff1673ffffffffffffffffffffffffffffffffffffffff163373ffffffffffffffffffffffffffffffffffffffff16146104ef576040517f08c379a00000000000000000000000000000000000000000000000000000000081526004016104e690611ab1565b60405180910390fd5b60008585858585306040516105039061134c565b61051296959493929190611b9a565b604051809103906000f08015801561052e573d6000803e3d6000fd5b5090506004819080600181540180825580915050600190039060005260206000200160009091909190916101000a81548173ffffffffffffffffffffffffffffffffffffffff021916908373ffffffffffffffffffffffffffffffffffffffff160217905550505050505050565b600081815481106105ac57600080fd5b906000526020600020016000915054906101000a900473ffffffffffffffffffffffffffffffffffffffff1681565b600a5481565b6000600660008373ffffffffffffffffffffffffffffffffffffffff1673ffffffffffffffffffffffffffffffffffffffff16815260200190815260200160002060009054906101000a900460ff169050919050565b6001818154811061064757600080fd5b906000526020600020016000915054906101000a900473ffffffffffffffffffffffffffffffffffffffff1681565b600960009054906101000a900473ffffffffffffffffffffffffffffffffffffffff1673ffffffffffffffffffffffffffffffffffffffff163373ffffffffffffffffffffffffffffffffffffffff1614610706576040517f08c379a00000000000000000000000000000000000000000000000000000000081526004016106fd90611ab1565b60405180910390fd5b600085858585853060405161071a9061134c565b61072996959493929190611c76565b604051809103906000f080158015610745573d6000803e3d6000fd5b5090506000819080600181540180825580915050600190039060005260206000200160009091909190916101000a81548173ffffffffffffffffffffffffffffffffffffffff021916908373ffffffffffffffffffffffffffffffffffffffff160217905550505050505050565b6060600080548060200260200160405190810160405280929190818152602001828054801561083757602002820191906000526020600020905b8160009054906101000a900473ffffffffffffffffffffffffffffffffffffffff1673ffffffffffffffffffffffffffffffffffffffff16815260200190600101908083116107ed575b5050505050905090565b600960009054906101000a900473ffffffffffffffffffffffffffffffffffffffff1673ffffffffffffffffffffffffffffffffffffffff163373ffffffffffffffffffffffffffffffffffffffff16146108d1576040517f08c379a00000000000000000000000000000000000000000000000000000000081526004016108c890611ab1565b60405180910390fd5b60008585858585306040516108e59061134c565b6108f496959493929190611d52565b604051809103906000f080158015610910573d6000803e3d6000fd5b5090506003819080600181540180825580915050600190039060005260206000200160009091909190916101000a81548173ffffffffffffffffffffffffffffffffffffffff021916908373ffffffffffffffffffffffffffffffffffffffff160217905550505050505050565b60606003805480602002602001604051908101604052809291908181526020018280548015610a0257602002820191906000526020600020905b8160009054906101000a900473ffffffffffffffffffffffffffffffffffffffff1673ffffffffffffffffffffffffffffffffffffffff16815260200190600101908083116109b8575b5050505050905090565b60028181548110610a1c57600080fd5b906000526020600020016000915054906101000a900473ffffffffffffffffffffffffffffffffffffffff1681565b60606002805480602002602001604051908101604052809291908181526020018280548015610acf57602002820191906000526020600020905b8160009054906101000a900473ffffffffffffffffffffffffffffffffffffffff1673ffffffffffffffffffffffffffffffffffffffff1681526020019060010190808311610a85575b5050505050905090565b600960009054906101000a900473ffffffffffffffffffffffffffffffffffffffff1673ffffffffffffffffffffffffffffffffffffffff163373ffffffffffffffffffffffffffffffffffffffff1614610b69576040517f08c379a0000000000000000000000000000000000000000000000000000000008152600401610b6090611ab1565b60405180910390fd5b600782604051610b799190611e1e565b908152602001604051809103902060009054906101000a900460ff1615610bd5576040517f08c379a0000000000000000000000000000000000000000000000000000000008152600401610bcc90611e81565b60405180910390fd5b6001600783604051610be79190611e1e565b908152602001604051809103902060006101000a81548160ff0219169083151502179055506000838383604051610c1d90611359565b610c2993929190611ea1565b604051809103906000f080158015610c45573d6000803e3d6000fd5b5090506001600660008373ffffffffffffffffffffffffffffffffffffffff1673ffffffffffffffffffffffffffffffffffffffff16815260200190815260200160002060006101000a81548160ff02191690831515021790555080600860008473ffffffffffffffffffffffffffffffffffffffff1673ffffffffffffffffffffffffffffffffffffffff16815260200190815260200160002060006101000a81548173ffffffffffffffffffffffffffffffffffffffff021916908373ffffffffffffffffffffffffffffffffffffffff1602179055506005819080600181540180825580915050600190039060005260206000200160009091909190916101000a81548173ffffffffffffffffffffffffffffffffffffffff021916908373ffffffffffffffffffffffffffffffffffffffff16021790555050505050565b6000808290508073ffffffffffffffffffffffffffffffffffffffff1663e36fccc96040518163ffffffff1660e01b8152600401602060405180830381865afa158015610dd8573d6000803e3d6000fd5b505050506040513d601f19601f82011682018060405250810190610dfc9190611efb565b915050919050565b60048181548110610e1457600080fd5b906000526020600020016000915054906101000a900473ffffffffffffffffffffffffffffffffffffffff1681565b60038181548110610e5357600080fd5b906000526020600020016000915054906101000a900473ffffffffffffffffffffffffffffffffffffffff1681565b60058181548110610e9257600080fd5b906000526020600020016000915054906101000a900473ffffffffffffffffffffffffffffffffffffffff1681565b600960009054906101000a900473ffffffffffffffffffffffffffffffffffffffff1673ffffffffffffffffffffffffffffffffffffffff163373ffffffffffffffffffffffffffffffffffffffff1614610f51576040517f08c379a0000000000000000000000000000000000000000000000000000000008152600401610f4890611ab1565b60405180910390fd5b6000858585858530604051610f659061134c565b610f7496959493929190611f74565b604051809103906000f080158015610f90573d6000803e3d6000fd5b5090506002819080600181540180825580915050600190039060005260206000200160009091909190916101000a81548173ffffffffffffffffffffffffffffffffffffffff021916908373ffffffffffffffffffffffffffffffffffffffff160217905550505050505050565b6060600180548060200260200160405190810160405280929190818152602001828054801561108257602002820191906000526020600020905b8160009054906101000a900473ffffffffffffffffffffffffffffffffffffffff1673ffffffffffffffffffffffffffffffffffffffff1681526020019060010190808311611038575b5050505050905090565b600960009054906101000a900473ffffffffffffffffffffffffffffffffffffffff1673ffffffffffffffffffffffffffffffffffffffff163373ffffffffffffffffffffffffffffffffffffffff161461111c576040517f08c379a000000000000000000000000000000000000000000000000000000000815260040161111390611ab1565b60405180910390fd5b60008585858585306040516111309061134c565b61113f96959493929190612050565b604051809103906000f08015801561115b573d6000803e3d6000fd5b5090506001819080600181540180825580915050600190039060005260206000200160009091909190916101000a81548173ffffffffffffffffffffffffffffffffffffffff021916908373ffffffffffffffffffffffffffffffffffffffff160217905550505050505050565b6000600860003373ffffffffffffffffffffffffffffffffffffffff1673ffffffffffffffffffffffffffffffffffffffff16815260200190815260200160002060009054906101000a900473ffffffffffffffffffffffffffffffffffffffff16905090565b606060058054806020026020016040519081016040528092919081815260200182805480156112b457602002820191906000526020600020905b8160009054906101000a900473ffffffffffffffffffffffffffffffffffffffff1673ffffffffffffffffffffffffffffffffffffffff168152602001906001019080831161126a575b5050505050905090565b6060600480548060200260200160405190810160405280929190818152602001828054801561134257602002820191906000526020600020905b8160009054906101000a900473ffffffffffffffffffffffffffffffffffffffff1673ffffffffffffffffffffffffffffffffffffffff16815260200190600101908083116112f8575b5050505050905090565b61132c806120e183390190565b611ab18061340d83390190565b6000604051905090565b600080fd5b600080fd5b600080fd5b600080fd5b6000601f19601f8301169050919050565b7f4e487b7100000000000000000000000000000000000000000000000000000000600052604160045260246000fd5b6113cd82611384565b810181811067ffffffffffffffff821117156113ec576113eb611395565b5b80604052505050565b60006113ff611366565b905061140b82826113c4565b919050565b600067ffffffffffffffff82111561142b5761142a611395565b5b61143482611384565b9050602081019050919050565b82818337600083830152505050565b600061146361145e84611410565b6113f5565b90508281526020810184848401111561147f5761147e61137f565b5b61148a848285611441565b509392505050565b600082601f8301126114a7576114a661137a565b5b81356114b7848260208601611450565b91505092915050565b6000819050919050565b6114d3816114c0565b81146114de57600080fd5b50565b6000813590506114f0816114ca565b92915050565b600080600080600060a0868803121561151257611511611370565b5b600086013567ffffffffffffffff8111156115305761152f611375565b5b61153c88828901611492565b955050602086013567ffffffffffffffff81111561155d5761155c611375565b5b61156988828901611492565b945050604086013567ffffffffffffffff81111561158a57611589611375565b5b61159688828901611492565b935050606086013567ffffffffffffffff8111156115b7576115b6611375565b5b6115c388828901611492565b92505060806115d4888289016114e1565b9150509295509295909350565b6000602082840312156115f7576115f6611370565b5b6000611605848285016114e1565b91505092915050565b600073ffffffffffffffffffffffffffffffffffffffff82169050919050565b6000819050919050565b600061165361164e6116498461160e565b61162e565b61160e565b9050919050565b600061166582611638565b9050919050565b60006116778261165a565b9050919050565b6116878161166c565b82525050565b60006020820190506116a2600083018461167e565b92915050565b6116b1816114c0565b82525050565b60006020820190506116cc60008301846116a8565b92915050565b60006116dd8261160e565b9050919050565b60006116ef826116d2565b9050919050565b6116ff816116e4565b811461170a57600080fd5b50565b60008135905061171c816116f6565b92915050565b60006020828403121561173857611737611370565b5b60006117468482850161170d565b91505092915050565b60008115159050919050565b6117648161174f565b82525050565b600060208201905061177f600083018461175b565b92915050565b600081519050919050565b600082825260208201905092915050565b6000819050602082019050919050565b6117ba8161166c565b82525050565b60006117cc83836117b1565b60208301905092915050565b6000602082019050919050565b60006117f082611785565b6117fa8185611790565b9350611805836117a1565b8060005b8381101561183657815161181d88826117c0565b9750611828836117d8565b925050600181019050611809565b5085935050505092915050565b6000602082019050818103600083015261185d81846117e5565b905092915050565b61186e816116d2565b811461187957600080fd5b50565b60008135905061188b81611865565b92915050565b6000806000606084860312156118aa576118a9611370565b5b600084013567ffffffffffffffff8111156118c8576118c7611375565b5b6118d486828701611492565b935050602084013567ffffffffffffffff8111156118f5576118f4611375565b5b61190186828701611492565b92505060406119128682870161187c565b9150509250925092565b60006020828403121561193257611931611370565b5b60006119408482850161187c565b91505092915050565b60006119548261165a565b9050919050565b61196481611949565b82525050565b600060208201905061197f600083018461195b565b92915050565b600081519050919050565b6000819050602082019050919050565b6119a981611949565b82525050565b60006119bb83836119a0565b60208301905092915050565b6000602082019050919050565b60006119df82611985565b6119e98185611790565b93506119f483611990565b8060005b83811015611a25578151611a0c88826119af565b9750611a17836119c7565b9250506001810190506119f8565b5085935050505092915050565b60006020820190508181036000830152611a4c81846119d4565b905092915050565b600082825260208201905092915050565b7f4552524f523a20596f75277265206e6f7420746865206f776e65722100000000600082015250565b6000611a9b601c83611a54565b9150611aa682611a65565b602082019050919050565b60006020820190508181036000830152611aca81611a8e565b9050919050565b600081519050919050565b60005b83811015611afa578082015181840152602081019050611adf565b60008484015250505050565b6000611b1182611ad1565b611b1b8185611a54565b9350611b2b818560208601611adc565b611b3481611384565b840191505092915050565b7f507265736964656e740000000000000000000000000000000000000000000000600082015250565b6000611b75600983611a54565b9150611b8082611b3f565b602082019050919050565b611b94816116d2565b82525050565b600060e0820190508181036000830152611bb48189611b06565b90508181036020830152611bc88188611b06565b90508181036040830152611bdc8187611b06565b90508181036060830152611bf08186611b06565b9050611bff60808301856116a8565b81810360a0830152611c1081611b68565b9050611c1f60c0830184611b8b565b979650505050505050565b7f4665646572616c20446570757469650000000000000000000000000000000000600082015250565b6000611c60600f83611a54565b9150611c6b82611c2a565b602082019050919050565b600060e0820190508181036000830152611c908189611b06565b90508181036020830152611ca48188611b06565b90508181036040830152611cb88187611b06565b90508181036060830152611ccc8186611b06565b9050611cdb60808301856116a8565b81810360a0830152611cec81611c53565b9050611cfb60c0830184611b8b565b979650505050505050565b7f476f7665726e6f72000000000000000000000000000000000000000000000000600082015250565b6000611d3c600883611a54565b9150611d4782611d06565b602082019050919050565b600060e0820190508181036000830152611d6c8189611b06565b90508181036020830152611d808188611b06565b90508181036040830152611d948187611b06565b90508181036060830152611da88186611b06565b9050611db760808301856116a8565b81810360a0830152611dc881611d2f565b9050611dd760c0830184611b8b565b979650505050505050565b600081905092915050565b6000611df882611ad1565b611e028185611de2565b9350611e12818560208601611adc565b80840191505092915050565b6000611e2a8284611ded565b915081905092915050565b7f4552524f523a2063706620616c72656164792072656769737465726564210000600082015250565b6000611e6b601e83611a54565b9150611e7682611e35565b602082019050919050565b60006020820190508181036000830152611e9a81611e5e565b9050919050565b60006060820190508181036000830152611ebb8186611b06565b90508181036020830152611ecf8185611b06565b9050611ede6040830184611b8b565b949350505050565b600081519050611ef5816114ca565b92915050565b600060208284031215611f1157611f10611370565b5b6000611f1f84828501611ee6565b91505092915050565b7f53656e61746f7200000000000000000000000000000000000000000000000000600082015250565b6000611f5e600783611a54565b9150611f6982611f28565b602082019050919050565b600060e0820190508181036000830152611f8e8189611b06565b90508181036020830152611fa28188611b06565b90508181036040830152611fb68187611b06565b90508181036060830152611fca8186611b06565b9050611fd960808301856116a8565b81810360a0830152611fea81611f51565b9050611ff960c0830184611b8b565b979650505050505050565b7f5374617465204465707574696500000000000000000000000000000000000000600082015250565b600061203a600d83611a54565b915061204582612004565b602082019050919050565b600060e082019050818103600083015261206a8189611b06565b9050818103602083015261207e8188611b06565b905081810360408301526120928187611b06565b905081810360608301526120a68186611b06565b90506120b560808301856116a8565b81810360a08301526120c68161202d565b90506120d560c0830184611b8b565b97965050505050505056fe608060405234801561001057600080fd5b5060405161132c38038061132c833981810160405281019061003291906102e7565b8660009081610041919061062c565b508560019081610051919061062c565b508360039081610061919061062c565b50826004819055508160059081610078919061062c565b508460029081610088919061062c565b5080600660006101000a81548173ffffffffffffffffffffffffffffffffffffffff021916908373ffffffffffffffffffffffffffffffffffffffff1602179055506000600781905550505050505050506106fe565b6000604051905090565b600080fd5b600080fd5b600080fd5b600080fd5b6000601f19601f8301169050919050565b7f4e487b7100000000000000000000000000000000000000000000000000000000600052604160045260246000fd5b610145826100fc565b810181811067ffffffffffffffff821117156101645761016361010d565b5b80604052505050565b60006101776100de565b9050610183828261013c565b919050565b600067ffffffffffffffff8211156101a3576101a261010d565b5b6101ac826100fc565b9050602081019050919050565b60005b838110156101d75780820151818401526020810190506101bc565b60008484015250505050565b60006101f66101f184610188565b61016d565b905082815260208101848484011115610212576102116100f7565b5b61021d8482856101b9565b509392505050565b600082601f83011261023a576102396100f2565b5b815161024a8482602086016101e3565b91505092915050565b6000819050919050565b61026681610253565b811461027157600080fd5b50565b6000815190506102838161025d565b92915050565b600073ffffffffffffffffffffffffffffffffffffffff82169050919050565b60006102b482610289565b9050919050565b6102c4816102a9565b81146102cf57600080fd5b50565b6000815190506102e1816102bb565b92915050565b600080600080600080600060e0888a031215610306576103056100e8565b5b600088015167ffffffffffffffff811115610324576103236100ed565b5b6103308a828b01610225565b975050602088015167ffffffffffffffff811115610351576103506100ed565b5b61035d8a828b01610225565b965050604088015167ffffffffffffffff81111561037e5761037d6100ed565b5b61038a8a828b01610225565b955050606088015167ffffffffffffffff8111156103ab576103aa6100ed565b5b6103b78a828b01610225565b94505060806103c88a828b01610274565b93505060a088015167ffffffffffffffff8111156103e9576103e86100ed565b5b6103f58a828b01610225565b92505060c06104068a828b016102d2565b91505092959891949750929550565b600081519050919050565b7f4e487b7100000000000000000000000000000000000000000000000000000000600052602260045260246000fd5b6000600282049050600182168061046757607f821691505b60208210810361047a57610479610420565b5b50919050565b60008190508160005260206000209050919050565b60006020601f8301049050919050565b600082821b905092915050565b6000600883026104e27fffffffffffffffffffffffffffffffffffffffffffffffffffffffffffffffff826104a5565b6104ec86836104a5565b95508019841693508086168417925050509392505050565b6000819050919050565b600061052961052461051f84610253565b610504565b610253565b9050919050565b6000819050919050565b6105438361050e565b61055761054f82610530565b8484546104b2565b825550505050565b600090565b61056c61055f565b61057781848461053a565b505050565b5b8181101561059b57610590600082610564565b60018101905061057d565b5050565b601f8211156105e0576105b181610480565b6105ba84610495565b810160208510156105c9578190505b6105dd6105d585610495565b83018261057c565b50505b505050565b600082821c905092915050565b6000610603600019846008026105e5565b1980831691505092915050565b600061061c83836105f2565b9150826002028217905092915050565b61063582610415565b67ffffffffffffffff81111561064e5761064d61010d565b5b610658825461044f565b61066382828561059f565b600060209050601f8311600181146106965760008415610684578287015190505b61068e8582610610565b8655506106f6565b601f1984166106a486610480565b60005b828110156106cc578489015182556001820191506020850194506020810190506106a7565b868310156106e957848901516106e5601f8916826105f2565b8355505b6001600288020188555050505b505050505050565b610c1f8061070d6000396000f3fe608060405234801561001057600080fd5b50600436106100935760003560e01c80637ae31c5c116100665780637ae31c5c14610110578063a07d792d1461012e578063b8c270b214610138578063bb19203314610156578063e36fccc91461017457610093565b806305e0a53e146100985780630d15fd77146100b65780632270ae65146100d45780635ea5cabe146100f2575b600080fd5b6100a0610192565b6040516100ad919061082f565b60405180910390f35b6100be610224565b6040516100cb919061086a565b60405180910390f35b6100dc61022a565b6040516100e9919061086a565b60405180910390f35b6100fa610234565b604051610107919061082f565b60405180910390f35b6101186102c6565b604051610125919061082f565b60405180910390f35b610136610358565b005b610140610671565b60405161014d919061082f565b60405180910390f35b61015e610703565b60405161016b919061082f565b60405180910390f35b61017c610795565b604051610189919061086a565b60405180910390f35b6060600380546101a1906108b4565b80601f01602080910402602001604051908101604052809291908181526020018280546101cd906108b4565b801561021a5780601f106101ef5761010080835404028352916020019161021a565b820191906000526020600020905b8154815290600101906020018083116101fd57829003601f168201915b5050505050905090565b60075481565b6000600454905090565b606060008054610243906108b4565b80601f016020809104026020016040519081016040528092919081815260200182805461026f906108b4565b80156102bc5780601f10610291576101008083540402835291602001916102bc565b820191906000526020600020905b81548152906001019060200180831161029f57829003601f168201915b5050505050905090565b6060600280546102d5906108b4565b80601f0160208091040260200160405190810160405280929190818152602001828054610301906108b4565b801561034e5780601f106103235761010080835404028352916020019161034e565b820191906000526020600020905b81548152906001019060200180831161033157829003601f168201915b5050505050905090565b600860003373ffffffffffffffffffffffffffffffffffffffff1673ffffffffffffffffffffffffffffffffffffffff16815260200190815260200160002060009054906101000a900460ff16156103e5576040517f08c379a00000000000000000000000000000000000000000000000000000000081526004016103dc90610931565b60405180910390fd5b6000600660009054906101000a900473ffffffffffffffffffffffffffffffffffffffff16905060008173ffffffffffffffffffffffffffffffffffffffff16634ddc4e86336040518263ffffffff1660e01b815260040161044791906109d0565b602060405180830381865afa158015610464573d6000803e3d6000fd5b505050506040513d601f19601f820116820180604052508101906104889190610a28565b9050806104ca576040517f08c379a00000000000000000000000000000000000000000000000000000000081526004016104c190610aa1565b60405180910390fd5b6000600660009054906101000a900473ffffffffffffffffffffffffffffffffffffffff1690508073ffffffffffffffffffffffffffffffffffffffff166316ada5476040518163ffffffff1660e01b8152600401602060405180830381865afa15801561053c573d6000803e3d6000fd5b505050506040513d601f19601f820116820180604052508101906105609190610aed565b4211156105a2576040517f08c379a000000000000000000000000000000000000000000000000000000000815260040161059990610b66565b60405180910390fd5b6001600860003373ffffffffffffffffffffffffffffffffffffffff1673ffffffffffffffffffffffffffffffffffffffff16815260200190815260200160002060006101000a81548160ff0219169083151502179055506001600860003273ffffffffffffffffffffffffffffffffffffffff1673ffffffffffffffffffffffffffffffffffffffff16815260200190815260200160002060006101000a81548160ff0219169083151502179055506001600760008282546106659190610bb5565b92505081905550505050565b606060018054610680906108b4565b80601f01602080910402602001604051908101604052809291908181526020018280546106ac906108b4565b80156106f95780601f106106ce576101008083540402835291602001916106f9565b820191906000526020600020905b8154815290600101906020018083116106dc57829003601f168201915b5050505050905090565b606060058054610712906108b4565b80601f016020809104026020016040519081016040528092919081815260200182805461073e906108b4565b801561078b5780601f106107605761010080835404028352916020019161078b565b820191906000526020600020905b81548152906001019060200180831161076e57829003601f168201915b5050505050905090565b6000600754905090565b600081519050919050565b600082825260208201905092915050565b60005b838110156107d95780820151818401526020810190506107be565b60008484015250505050565b6000601f19601f8301169050919050565b60006108018261079f565b61080b81856107aa565b935061081b8185602086016107bb565b610824816107e5565b840191505092915050565b6000602082019050818103600083015261084981846107f6565b905092915050565b6000819050919050565b61086481610851565b82525050565b600060208201905061087f600083018461085b565b92915050565b7f4e487b7100000000000000000000000000000000000000000000000000000000600052602260045260246000fd5b600060028204905060018216806108cc57607f821691505b6020821081036108df576108de610885565b5b50919050565b7f4552524f523a20596f75206861766520616c726561647920766f746564210000600082015250565b600061091b601e836107aa565b9150610926826108e5565b602082019050919050565b6000602082019050818103600083015261094a8161090e565b9050919050565b600073ffffffffffffffffffffffffffffffffffffffff82169050919050565b6000819050919050565b600061099661099161098c84610951565b610971565b610951565b9050919050565b60006109a88261097b565b9050919050565b60006109ba8261099d565b9050919050565b6109ca816109af565b82525050565b60006020820190506109e560008301846109c1565b92915050565b600080fd5b60008115159050919050565b610a05816109f0565b8114610a1057600080fd5b50565b600081519050610a22816109fc565b92915050565b600060208284031215610a3e57610a3d6109eb565b5b6000610a4c84828501610a13565b91505092915050565b7f4552524f523a20596f75206e6f742061726520456c6563746f72210000000000600082015250565b6000610a8b601b836107aa565b9150610a9682610a55565b602082019050919050565b60006020820190508181036000830152610aba81610a7e565b9050919050565b610aca81610851565b8114610ad557600080fd5b50565b600081519050610ae781610ac1565b92915050565b600060208284031215610b0357610b026109eb565b5b6000610b1184828501610ad8565b91505092915050565b7f4552524f523a2054696d65206973206f76657221000000000000000000000000600082015250565b6000610b506014836107aa565b9150610b5b82610b1a565b602082019050919050565b60006020820190508181036000830152610b7f81610b43565b9050919050565b7f4e487b7100000000000000000000000000000000000000000000000000000000600052601160045260246000fd5b6000610bc082610851565b9150610bcb83610851565b9250828201905080821115610be357610be2610b86565b5b9291505056fea2646970667358221220df94942bce759806399421eda242c351b401272ea73ed0cf4e98de43660263b764736f6c634300081b0033608060405234801561001057600080fd5b50604051611ab1380380611ab18339818101604052810190610032919061026e565b8260009081610041919061051a565b508160019081610051919061051a565b5080600260006101000a81548173ffffffffffffffffffffffffffffffffffffffff021916908373ffffffffffffffffffffffffffffffffffffffff1602179055505050506105ec565b6000604051905090565b600080fd5b600080fd5b600080fd5b600080fd5b6000601f19601f8301169050919050565b7f4e487b7100000000000000000000000000000000000000000000000000000000600052604160045260246000fd5b610102826100b9565b810181811067ffffffffffffffff82111715610121576101206100ca565b5b80604052505050565b600061013461009b565b905061014082826100f9565b919050565b600067ffffffffffffffff8211156101605761015f6100ca565b5b610169826100b9565b9050602081019050919050565b60005b83811015610194578082015181840152602081019050610179565b60008484015250505050565b60006101b36101ae84610145565b61012a565b9050828152602081018484840111156101cf576101ce6100b4565b5b6101da848285610176565b509392505050565b600082601f8301126101f7576101f66100af565b5b81516102078482602086016101a0565b91505092915050565b600073ffffffffffffffffffffffffffffffffffffffff82169050919050565b600061023b82610210565b9050919050565b61024b81610230565b811461025657600080fd5b50565b60008151905061026881610242565b92915050565b600080600060608486031215610287576102866100a5565b5b600084015167ffffffffffffffff8111156102a5576102a46100aa565b5b6102b1868287016101e2565b935050602084015167ffffffffffffffff8111156102d2576102d16100aa565b5b6102de868287016101e2565b92505060406102ef86828701610259565b9150509250925092565b600081519050919050565b7f4e487b7100000000000000000000000000000000000000000000000000000000600052602260045260246000fd5b6000600282049050600182168061034b57607f821691505b60208210810361035e5761035d610304565b5b50919050565b60008190508160005260206000209050919050565b60006020601f8301049050919050565b600082821b905092915050565b6000600883026103c67fffffffffffffffffffffffffffffffffffffffffffffffffffffffffffffffff82610389565b6103d08683610389565b95508019841693508086168417925050509392505050565b6000819050919050565b6000819050919050565b600061041761041261040d846103e8565b6103f2565b6103e8565b9050919050565b6000819050919050565b610431836103fc565b61044561043d8261041e565b848454610396565b825550505050565b600090565b61045a61044d565b610465818484610428565b505050565b5b818110156104895761047e600082610452565b60018101905061046b565b5050565b601f8211156104ce5761049f81610364565b6104a884610379565b810160208510156104b7578190505b6104cb6104c385610379565b83018261046a565b50505b505050565b600082821c905092915050565b60006104f1600019846008026104d3565b1980831691505092915050565b600061050a83836104e0565b9150826002028217905092915050565b610523826102f9565b67ffffffffffffffff81111561053c5761053b6100ca565b5b6105468254610333565b61055182828561048d565b600060209050601f8311600181146105845760008415610572578287015190505b61057c85826104fe565b8655506105e4565b601f19841661059286610364565b60005b828110156105ba57848901518255600182019150602085019450602081019050610595565b868310156105d757848901516105d3601f8916826104e0565b8355505b6001600288020188555050505b505050505050565b6114b6806105fb6000396000f3fe608060405234801561001057600080fd5b50600436106100935760003560e01c8063680465a711610066578063680465a71461011e5780636951988e1461013a57806394a927fe14610156578063a0d1722314610174578063cfb82a251461019057610093565b80631b2b67c71461009857806351d9a224146100c857806361dd7f77146100e45780636454fca114610100575b600080fd5b6100b260048036038101906100ad9190611114565b6101ae565b6040516100bf91906111c0565b60405180910390f35b6100e260048036038101906100dd9190611219565b610340565b005b6100fe60048036038101906100f99190611219565b61055f565b005b61010861077e565b60405161011591906112d6565b60405180910390f35b61013860048036038101906101339190611219565b6108a0565b005b610154600480360381019061014f9190611219565b610abf565b005b61015e610cde565b60405161016b9190611307565b60405180910390f35b61018e60048036038101906101899190611219565b610d98565b005b610198610fb7565b6040516101a591906112d6565b60405180910390f35b6000600260009054906101000a900473ffffffffffffffffffffffffffffffffffffffff1673ffffffffffffffffffffffffffffffffffffffff163373ffffffffffffffffffffffffffffffffffffffff1614610240576040517f08c379a00000000000000000000000000000000000000000000000000000000081526004016102379061136e565b60405180910390fd5b6001820361027257600360009054906101000a900473ffffffffffffffffffffffffffffffffffffffff16905061033b565b600282036102a457600460009054906101000a900473ffffffffffffffffffffffffffffffffffffffff16905061033b565b600382036102d657600560009054906101000a900473ffffffffffffffffffffffffffffffffffffffff16905061033b565b6004820361030857600660009054906101000a900473ffffffffffffffffffffffffffffffffffffffff16905061033b565b6005820361033a57600760009054906101000a900473ffffffffffffffffffffffffffffffffffffffff16905061033b565b5b919050565b600260009054906101000a900473ffffffffffffffffffffffffffffffffffffffff1673ffffffffffffffffffffffffffffffffffffffff163373ffffffffffffffffffffffffffffffffffffffff16146103d0576040517f08c379a00000000000000000000000000000000000000000000000000000000081526004016103c79061136e565b60405180910390fd5b600c60003373ffffffffffffffffffffffffffffffffffffffff1673ffffffffffffffffffffffffffffffffffffffff16815260200190815260200160002060009054906101000a900460ff161561045d576040517f08c379a000000000000000000000000000000000000000000000000000000000815260040161045490611400565b60405180910390fd5b6001600c60003373ffffffffffffffffffffffffffffffffffffffff1673ffffffffffffffffffffffffffffffffffffffff16815260200190815260200160002060006101000a81548160ff021916908315150217905550600081905080600760006101000a81548173ffffffffffffffffffffffffffffffffffffffff021916908373ffffffffffffffffffffffffffffffffffffffff1602179055508073ffffffffffffffffffffffffffffffffffffffff1663a07d792d6040518163ffffffff1660e01b8152600401600060405180830381600087803b15801561054357600080fd5b505af1158015610557573d6000803e3d6000fd5b505050505050565b600260009054906101000a900473ffffffffffffffffffffffffffffffffffffffff1673ffffffffffffffffffffffffffffffffffffffff163373ffffffffffffffffffffffffffffffffffffffff16146105ef576040517f08c379a00000000000000000000000000000000000000000000000000000000081526004016105e69061136e565b60405180910390fd5b600b60003373ffffffffffffffffffffffffffffffffffffffff1673ffffffffffffffffffffffffffffffffffffffff16815260200190815260200160002060009054906101000a900460ff161561067c576040517f08c379a000000000000000000000000000000000000000000000000000000000815260040161067390611400565b60405180910390fd5b6001600b60003373ffffffffffffffffffffffffffffffffffffffff1673ffffffffffffffffffffffffffffffffffffffff16815260200190815260200160002060006101000a81548160ff021916908315150217905550600081905080600660006101000a81548173ffffffffffffffffffffffffffffffffffffffff021916908373ffffffffffffffffffffffffffffffffffffffff1602179055508073ffffffffffffffffffffffffffffffffffffffff1663a07d792d6040518163ffffffff1660e01b8152600401600060405180830381600087803b15801561076257600080fd5b505af1158015610776573d6000803e3d6000fd5b505050505050565b6060600260009054906101000a900473ffffffffffffffffffffffffffffffffffffffff1673ffffffffffffffffffffffffffffffffffffffff163373ffffffffffffffffffffffffffffffffffffffff1614610810576040517f08c379a00000000000000000000000000000000000000000000000000000000081526004016108079061136e565b60405180910390fd5b6001805461081d9061144f565b80601f01602080910402602001604051908101604052809291908181526020018280546108499061144f565b80156108965780601f1061086b57610100808354040283529160200191610896565b820191906000526020600020905b81548152906001019060200180831161087957829003601f168201915b5050505050905090565b600260009054906101000a900473ffffffffffffffffffffffffffffffffffffffff1673ffffffffffffffffffffffffffffffffffffffff163373ffffffffffffffffffffffffffffffffffffffff1614610930576040517f08c379a00000000000000000000000000000000000000000000000000000000081526004016109279061136e565b60405180910390fd5b600a60003373ffffffffffffffffffffffffffffffffffffffff1673ffffffffffffffffffffffffffffffffffffffff16815260200190815260200160002060009054906101000a900460ff16156109bd576040517f08c379a00000000000000000000000000000000000000000000000000000000081526004016109b490611400565b60405180910390fd5b6001600a60003373ffffffffffffffffffffffffffffffffffffffff1673ffffffffffffffffffffffffffffffffffffffff16815260200190815260200160002060006101000a81548160ff021916908315150217905550600081905080600560006101000a81548173ffffffffffffffffffffffffffffffffffffffff021916908373ffffffffffffffffffffffffffffffffffffffff1602179055508073ffffffffffffffffffffffffffffffffffffffff1663a07d792d6040518163ffffffff1660e01b8152600401600060405180830381600087803b158015610aa357600080fd5b505af1158015610ab7573d6000803e3d6000fd5b505050505050565b600260009054906101000a900473ffffffffffffffffffffffffffffffffffffffff1673ffffffffffffffffffffffffffffffffffffffff163373ffffffffffffffffffffffffffffffffffffffff1614610b4f576040517f08c379a0000000000000000000000000000000000000000000000000000000008152600401610b469061136e565b60405180910390fd5b600a60003373ffffffffffffffffffffffffffffffffffffffff1673ffffffffffffffffffffffffffffffffffffffff16815260200190815260200160002060009054906101000a900460ff1615610bdc576040517f08c379a0000000000000000000000000000000000000000000000000000000008152600401610bd390611400565b60405180910390fd5b6001600960003373ffffffffffffffffffffffffffffffffffffffff1673ffffffffffffffffffffffffffffffffffffffff16815260200190815260200160002060006101000a81548160ff021916908315150217905550600081905080600460006101000a81548173ffffffffffffffffffffffffffffffffffffffff021916908373ffffffffffffffffffffffffffffffffffffffff1602179055508073ffffffffffffffffffffffffffffffffffffffff1663a07d792d6040518163ffffffff1660e01b8152600401600060405180830381600087803b158015610cc257600080fd5b505af1158015610cd6573d6000803e3d6000fd5b505050505050565b6000600260009054906101000a900473ffffffffffffffffffffffffffffffffffffffff1673ffffffffffffffffffffffffffffffffffffffff163373ffffffffffffffffffffffffffffffffffffffff1614610d70576040517f08c379a0000000000000000000000000000000000000000000000000000000008152600401610d679061136e565b60405180910390fd5b600260009054906101000a900473ffffffffffffffffffffffffffffffffffffffff16905090565b600260009054906101000a900473ffffffffffffffffffffffffffffffffffffffff1673ffffffffffffffffffffffffffffffffffffffff163373ffffffffffffffffffffffffffffffffffffffff1614610e28576040517f08c379a0000000000000000000000000000000000000000000000000000000008152600401610e1f9061136e565b60405180910390fd5b600860003373ffffffffffffffffffffffffffffffffffffffff1673ffffffffffffffffffffffffffffffffffffffff16815260200190815260200160002060009054906101000a900460ff1615610eb5576040517f08c379a0000000000000000000000000000000000000000000000000000000008152600401610eac90611400565b60405180910390fd5b6001600860003373ffffffffffffffffffffffffffffffffffffffff1673ffffffffffffffffffffffffffffffffffffffff16815260200190815260200160002060006101000a81548160ff021916908315150217905550600081905080600360006101000a81548173ffffffffffffffffffffffffffffffffffffffff021916908373ffffffffffffffffffffffffffffffffffffffff1602179055508073ffffffffffffffffffffffffffffffffffffffff1663a07d792d6040518163ffffffff1660e01b8152600401600060405180830381600087803b158015610f9b57600080fd5b505af1158015610faf573d6000803e3d6000fd5b505050505050565b6060600260009054906101000a900473ffffffffffffffffffffffffffffffffffffffff1673ffffffffffffffffffffffffffffffffffffffff163373ffffffffffffffffffffffffffffffffffffffff1614611049576040517f08c379a00000000000000000000000000000000000000000000000000000000081526004016110409061136e565b60405180910390fd5b600080546110569061144f565b80601f01602080910402602001604051908101604052809291908181526020018280546110829061144f565b80156110cf5780601f106110a4576101008083540402835291602001916110cf565b820191906000526020600020905b8154815290600101906020018083116110b257829003601f168201915b5050505050905090565b600080fd5b6000819050919050565b6110f1816110de565b81146110fc57600080fd5b50565b60008135905061110e816110e8565b92915050565b60006020828403121561112a576111296110d9565b5b6000611138848285016110ff565b91505092915050565b600073ffffffffffffffffffffffffffffffffffffffff82169050919050565b6000819050919050565b600061118661118161117c84611141565b611161565b611141565b9050919050565b60006111988261116b565b9050919050565b60006111aa8261118d565b9050919050565b6111ba8161119f565b82525050565b60006020820190506111d560008301846111b1565b92915050565b60006111e682611141565b9050919050565b6111f6816111db565b811461120157600080fd5b50565b600081359050611213816111ed565b92915050565b60006020828403121561122f5761122e6110d9565b5b600061123d84828501611204565b91505092915050565b600081519050919050565b600082825260208201905092915050565b60005b83811015611280578082015181840152602081019050611265565b60008484015250505050565b6000601f19601f8301169050919050565b60006112a882611246565b6112b28185611251565b93506112c2818560208601611262565b6112cb8161128c565b840191505092915050565b600060208201905081810360008301526112f0818461129d565b905092915050565b611301816111db565b82525050565b600060208201905061131c60008301846112f8565b92915050565b7f4552524f523a20596f75277265206e6f7420746865206f776e65722100000000600082015250565b6000611358601c83611251565b915061136382611322565b602082019050919050565b600060208201905081810360008301526113878161134b565b9050919050565b7f4552524f523a20596f7520616c726561647920766f74656420666f722074686960008201527f7320706f736974696f6e00000000000000000000000000000000000000000000602082015250565b60006113ea602a83611251565b91506113f58261138e565b604082019050919050565b60006020820190508181036000830152611419816113dd565b9050919050565b7f4e487b7100000000000000000000000000000000000000000000000000000000600052602260045260246000fd5b6000600282049050600182168061146757607f821691505b60208210810361147a57611479611420565b5b5091905056fea26469706673582212209eeae80010b8a7444b6b6dd3fd46c59e10ce03cd2eb4f387902d9e933563549d64736f6c634300081b0033a264697066735822122095c1980f7935b6ae8099baaf4a9a8bc04c7b534d4dfe6d877fae4090f71047d864736f6c634300081b0033",
  "linkReferences": {},
  "deployedLinkReferences": {}
}