{
  "_format": "hh-sol-artifact-1",
  "contractName": "Urna",
  "sourceName": "contracts/Urna.sol",
  "abi": [
    {
      "inputs": [
        {
          "internalType": "address",
          "name": "_owner",
          "type": "address"
        }
      ],
      "stateMutability": "nonpayable",
      "type": "constructor"
    },
    {
      "inputs": [
        {
          "internalType": "address",
          "name": "owner",
          "type": "address"
        }
      ],
      "name": "OwnableInvalidOwner",
      "type": "error"
    },
    {
      "inputs": [
        {
          "internalType": "address",
          "name": "account",
          "type": "address"
        }
      ],
      "name": "OwnableUnauthorizedAccount",
      "type": "error"
    },
    {
      "anonymous": false,
      "inputs": [
        {
          "indexed": true,
          "internalType": "address",
          "name": "previousOwner",
          "type": "address"
        },
        {
          "indexed": true,
          "internalType": "address",
          "name": "newOwner",
          "type": "address"
        }
      ],
      "name": "OwnershipTransferred",
      "type": "event"
    },
    {
      "inputs": [
        {
          "components": [
            {
              "internalType": "string",
              "name": "name",
              "type": "string"
            },
            {
              "internalType": "string",
              "name": "describe",
              "type": "string"
            },
            {
              "internalType": "string",
              "name": "candidatePhoto",
              "type": "string"
            },
            {
              "internalType": "string",
              "name": "politicalPartyName",
              "type": "string"
            },
            {
              "internalType": "uint256",
              "name": "politicalPartyNumber",
              "type": "uint256"
            }
          ],
          "internalType": "struct CandidateStructs.candidateData",
          "name": "data_",
          "type": "tuple"
        },
        {
          "internalType": "uint256",
          "name": "position_",
          "type": "uint256"
        }
      ],
      "name": "createCandidate",
      "outputs": [],
      "stateMutability": "nonpayable",
      "type": "function"
    },
    {
      "inputs": [
        {
          "components": [
            {
              "internalType": "string",
              "name": "name",
              "type": "string"
            },
            {
              "internalType": "string",
              "name": "cpf",
              "type": "string"
            }
          ],
          "internalType": "struct ElectorStructs.electorData",
          "name": "data_",
          "type": "tuple"
        },
        {
          "internalType": "address",
          "name": "owner_",
          "type": "address"
        }
      ],
      "name": "createElector",
      "outputs": [],
      "stateMutability": "nonpayable",
      "type": "function"
    },
    {
      "inputs": [],
      "name": "owner",
      "outputs": [
        {
          "internalType": "address",
          "name": "",
          "type": "address"
        }
      ],
      "stateMutability": "view",
      "type": "function"
    },
    {
      "inputs": [],
      "name": "renounceOwnership",
      "outputs": [],
      "stateMutability": "nonpayable",
      "type": "function"
    },
    {
      "inputs": [
        {
          "internalType": "address",
          "name": "newOwner",
          "type": "address"
        }
      ],
      "name": "transferOwnership",
      "outputs": [],
      "stateMutability": "nonpayable",
      "type": "function"
    },
    {
      "inputs": [
        {
          "internalType": "address",
          "name": "candidate",
          "type": "address"
        }
      ],
      "name": "verifyVotes",
      "outputs": [
        {
          "internalType": "uint256",
          "name": "",
          "type": "uint256"
        }
      ],
      "stateMutability": "view",
      "type": "function"
    },
    {
      "inputs": [
        {
          "internalType": "address",
          "name": "candidate",
          "type": "address"
        }
      ],
      "name": "vote",
      "outputs": [],
      "stateMutability": "nonpayable",
      "type": "function"
    }
  ],
  "bytecode": "0x608060405234801561001057600080fd5b50604051612be0380380612be0833981810160405281019061003291906101e2565b80600073ffffffffffffffffffffffffffffffffffffffff168173ffffffffffffffffffffffffffffffffffffffff16036100a55760006040517f1e4fbdf700000000000000000000000000000000000000000000000000000000815260040161009c919061021e565b60405180910390fd5b6100b4816100bb60201b60201c565b5050610239565b60008060009054906101000a900473ffffffffffffffffffffffffffffffffffffffff169050816000806101000a81548173ffffffffffffffffffffffffffffffffffffffff021916908373ffffffffffffffffffffffffffffffffffffffff1602179055508173ffffffffffffffffffffffffffffffffffffffff168173ffffffffffffffffffffffffffffffffffffffff167f8be0079c531659141344cd1fd0a4f28419497f9722a3daafe3b4186f6b6457e060405160405180910390a35050565b600080fd5b600073ffffffffffffffffffffffffffffffffffffffff82169050919050565b60006101af82610184565b9050919050565b6101bf816101a4565b81146101ca57600080fd5b50565b6000815190506101dc816101b6565b92915050565b6000602082840312156101f8576101f761017f565b5b6000610206848285016101cd565b91505092915050565b610218816101a4565b82525050565b6000602082019050610233600083018461020f565b92915050565b612998806102486000396000f3fe608060405234801561001057600080fd5b506004361061007d5760003560e01c80638da5cb5b1161005b5780638da5cb5b146100c4578063b00d2b16146100e2578063f2fde38b14610112578063fb2b2b5a1461012e5761007d565b80635b3fde96146100825780636dd7d8ea1461009e578063715018a6146100ba575b600080fd5b61009c60048036038101906100979190610a41565b61014a565b005b6100b860048036038101906100b39190610a9d565b610158565b005b6100c2610248565b005b6100cc61025c565b6040516100d99190610ad9565b60405180910390f35b6100fc60048036038101906100f79190610a9d565b610285565b6040516101099190610b0d565b60405180910390f35b61012c60048036038101906101279190610a9d565b6102ce565b005b61014860048036038101906101439190610c50565b610354565b005b6101548282610362565b5050565b600073ffffffffffffffffffffffffffffffffffffffff16600660003373ffffffffffffffffffffffffffffffffffffffff1673ffffffffffffffffffffffffffffffffffffffff16815260200190815260200160002060009054906101000a900473ffffffffffffffffffffffffffffffffffffffff1673ffffffffffffffffffffffffffffffffffffffff16036101f057600080fd5b600760008273ffffffffffffffffffffffffffffffffffffffff1673ffffffffffffffffffffffffffffffffffffffff168152602001908152602001600020600081548092919061024090610cdb565b919050555050565b610250610421565b61025a60006104a8565b565b60008060009054906101000a900473ffffffffffffffffffffffffffffffffffffffff16905090565b6000600760008373ffffffffffffffffffffffffffffffffffffffff1673ffffffffffffffffffffffffffffffffffffffff168152602001908152602001600020549050919050565b6102d6610421565b600073ffffffffffffffffffffffffffffffffffffffff168173ffffffffffffffffffffffffffffffffffffffff16036103485760006040517f1e4fbdf700000000000000000000000000000000000000000000000000000000815260040161033f9190610ad9565b60405180910390fd5b610351816104a8565b50565b61035e828261056c565b5050565b6000828230604051610373906107dd565b61037f93929190610de6565b604051809103906000f08015801561039b573d6000803e3d6000fd5b50905080600660008473ffffffffffffffffffffffffffffffffffffffff1673ffffffffffffffffffffffffffffffffffffffff16815260200190815260200160002060006101000a81548173ffffffffffffffffffffffffffffffffffffffff021916908373ffffffffffffffffffffffffffffffffffffffff160217905550505050565b6104296107d5565b73ffffffffffffffffffffffffffffffffffffffff1661044761025c565b73ffffffffffffffffffffffffffffffffffffffff16146104a65761046a6107d5565b6040517f118cdaa700000000000000000000000000000000000000000000000000000000815260040161049d9190610ad9565b60405180910390fd5b565b60008060009054906101000a900473ffffffffffffffffffffffffffffffffffffffff169050816000806101000a81548173ffffffffffffffffffffffffffffffffffffffff021916908373ffffffffffffffffffffffffffffffffffffffff1602179055508173ffffffffffffffffffffffffffffffffffffffff168173ffffffffffffffffffffffffffffffffffffffff167f8be0079c531659141344cd1fd0a4f28419497f9722a3daafe3b4186f6b6457e060405160405180910390a35050565b6000823060405161057c906107ea565b610587929190610ebe565b604051809103906000f0801580156105a3573d6000803e3d6000fd5b50905060018203610615576001600401819080600181540180825580915050600190039060005260206000200160009091909190916101000a81548173ffffffffffffffffffffffffffffffffffffffff021916908373ffffffffffffffffffffffffffffffffffffffff1602179055505b60028203610684576001600301819080600181540180825580915050600190039060005260206000200160009091909190916101000a81548173ffffffffffffffffffffffffffffffffffffffff021916908373ffffffffffffffffffffffffffffffffffffffff1602179055505b600382036106f3576001600201819080600181540180825580915050600190039060005260206000200160009091909190916101000a81548173ffffffffffffffffffffffffffffffffffffffff021916908373ffffffffffffffffffffffffffffffffffffffff1602179055505b600482036107615760018001819080600181540180825580915050600190039060005260206000200160009091909190916101000a81548173ffffffffffffffffffffffffffffffffffffffff021916908373ffffffffffffffffffffffffffffffffffffffff1602179055505b600582036107d0576001600001819080600181540180825580915050600190039060005260206000200160009091909190916101000a81548173ffffffffffffffffffffffffffffffffffffffff021916908373ffffffffffffffffffffffffffffffffffffffff1602179055505b505050565b600033905090565b610e5b80610eef83390190565b610c1980611d4a83390190565b6000604051905090565b600080fd5b600080fd5b600080fd5b6000601f19601f8301169050919050565b7f4e487b7100000000000000000000000000000000000000000000000000000000600052604160045260246000fd5b61085982610810565b810181811067ffffffffffffffff8211171561087857610877610821565b5b80604052505050565b600061088b6107f7565b90506108978282610850565b919050565b600080fd5b600080fd5b600080fd5b600067ffffffffffffffff8211156108c6576108c5610821565b5b6108cf82610810565b9050602081019050919050565b82818337600083830152505050565b60006108fe6108f9846108ab565b610881565b90508281526020810184848401111561091a576109196108a6565b5b6109258482856108dc565b509392505050565b600082601f830112610942576109416108a1565b5b81356109528482602086016108eb565b91505092915050565b6000604082840312156109715761097061080b565b5b61097b6040610881565b9050600082013567ffffffffffffffff81111561099b5761099a61089c565b5b6109a78482850161092d565b600083015250602082013567ffffffffffffffff8111156109cb576109ca61089c565b5b6109d78482850161092d565b60208301525092915050565b600073ffffffffffffffffffffffffffffffffffffffff82169050919050565b6000610a0e826109e3565b9050919050565b610a1e81610a03565b8114610a2957600080fd5b50565b600081359050610a3b81610a15565b92915050565b60008060408385031215610a5857610a57610801565b5b600083013567ffffffffffffffff811115610a7657610a75610806565b5b610a828582860161095b565b9250506020610a9385828601610a2c565b9150509250929050565b600060208284031215610ab357610ab2610801565b5b6000610ac184828501610a2c565b91505092915050565b610ad381610a03565b82525050565b6000602082019050610aee6000830184610aca565b92915050565b6000819050919050565b610b0781610af4565b82525050565b6000602082019050610b226000830184610afe565b92915050565b610b3181610af4565b8114610b3c57600080fd5b50565b600081359050610b4e81610b28565b92915050565b600060a08284031215610b6a57610b6961080b565b5b610b7460a0610881565b9050600082013567ffffffffffffffff811115610b9457610b9361089c565b5b610ba08482850161092d565b600083015250602082013567ffffffffffffffff811115610bc457610bc361089c565b5b610bd08482850161092d565b602083015250604082013567ffffffffffffffff811115610bf457610bf361089c565b5b610c008482850161092d565b604083015250606082013567ffffffffffffffff811115610c2457610c2361089c565b5b610c308482850161092d565b6060830152506080610c4484828501610b3f565b60808301525092915050565b60008060408385031215610c6757610c66610801565b5b600083013567ffffffffffffffff811115610c8557610c84610806565b5b610c9185828601610b54565b9250506020610ca285828601610b3f565b9150509250929050565b7f4e487b7100000000000000000000000000000000000000000000000000000000600052601160045260246000fd5b6000610ce682610af4565b91507fffffffffffffffffffffffffffffffffffffffffffffffffffffffffffffffff8203610d1857610d17610cac565b5b600182019050919050565b600081519050919050565b600082825260208201905092915050565b60005b83811015610d5d578082015181840152602081019050610d42565b60008484015250505050565b6000610d7482610d23565b610d7e8185610d2e565b9350610d8e818560208601610d3f565b610d9781610810565b840191505092915050565b60006040830160008301518482036000860152610dbf8282610d69565b91505060208301518482036020860152610dd98282610d69565b9150508091505092915050565b60006060820190508181036000830152610e008186610da2565b9050610e0f6020830185610aca565b610e1c6040830184610aca565b949350505050565b610e2d81610af4565b82525050565b600060a0830160008301518482036000860152610e508282610d69565b91505060208301518482036020860152610e6a8282610d69565b91505060408301518482036040860152610e848282610d69565b91505060608301518482036060860152610e9e8282610d69565b9150506080830151610eb36080860182610e24565b508091505092915050565b60006040820190508181036000830152610ed88185610e33565b9050610ee76020830184610aca565b939250505056fe608060405234801561001057600080fd5b50604051610e5b380380610e5b83398181016040528101906100329190610459565b81600073ffffffffffffffffffffffffffffffffffffffff168173ffffffffffffffffffffffffffffffffffffffff16036100a55760006040517f1e4fbdf700000000000000000000000000000000000000000000000000000000815260040161009c91906104d7565b60405180910390fd5b6100b48161013060201b60201c565b5082600160008201518160000190816100cd9190610713565b5060208201518160010190816100e39190610713565b5090505080600360006101000a81548173ffffffffffffffffffffffffffffffffffffffff021916908373ffffffffffffffffffffffffffffffffffffffff1602179055505050506107e5565b60008060009054906101000a900473ffffffffffffffffffffffffffffffffffffffff169050816000806101000a81548173ffffffffffffffffffffffffffffffffffffffff021916908373ffffffffffffffffffffffffffffffffffffffff1602179055508173ffffffffffffffffffffffffffffffffffffffff168173ffffffffffffffffffffffffffffffffffffffff167f8be0079c531659141344cd1fd0a4f28419497f9722a3daafe3b4186f6b6457e060405160405180910390a35050565b6000604051905090565b600080fd5b600080fd5b600080fd5b6000601f19601f8301169050919050565b7f4e487b7100000000000000000000000000000000000000000000000000000000600052604160045260246000fd5b6102568261020d565b810181811067ffffffffffffffff821117156102755761027461021e565b5b80604052505050565b60006102886101f4565b9050610294828261024d565b919050565b600080fd5b600080fd5b600080fd5b600067ffffffffffffffff8211156102c3576102c261021e565b5b6102cc8261020d565b9050602081019050919050565b60005b838110156102f75780820151818401526020810190506102dc565b60008484015250505050565b6000610316610311846102a8565b61027e565b905082815260208101848484011115610332576103316102a3565b5b61033d8482856102d9565b509392505050565b600082601f83011261035a5761035961029e565b5b815161036a848260208601610303565b91505092915050565b60006040828403121561038957610388610208565b5b610393604061027e565b9050600082015167ffffffffffffffff8111156103b3576103b2610299565b5b6103bf84828501610345565b600083015250602082015167ffffffffffffffff8111156103e3576103e2610299565b5b6103ef84828501610345565b60208301525092915050565b600073ffffffffffffffffffffffffffffffffffffffff82169050919050565b6000610426826103fb565b9050919050565b6104368161041b565b811461044157600080fd5b50565b6000815190506104538161042d565b92915050565b600080600060608486031215610472576104716101fe565b5b600084015167ffffffffffffffff8111156104905761048f610203565b5b61049c86828701610373565b93505060206104ad86828701610444565b92505060406104be86828701610444565b9150509250925092565b6104d18161041b565b82525050565b60006020820190506104ec60008301846104c8565b92915050565b600081519050919050565b7f4e487b7100000000000000000000000000000000000000000000000000000000600052602260045260246000fd5b6000600282049050600182168061054457607f821691505b602082108103610557576105566104fd565b5b50919050565b60008190508160005260206000209050919050565b60006020601f8301049050919050565b600082821b905092915050565b6000600883026105bf7fffffffffffffffffffffffffffffffffffffffffffffffffffffffffffffffff82610582565b6105c98683610582565b95508019841693508086168417925050509392505050565b6000819050919050565b6000819050919050565b600061061061060b610606846105e1565b6105eb565b6105e1565b9050919050565b6000819050919050565b61062a836105f5565b61063e61063682610617565b84845461058f565b825550505050565b600090565b610653610646565b61065e818484610621565b505050565b5b818110156106825761067760008261064b565b600181019050610664565b5050565b601f8211156106c7576106988161055d565b6106a184610572565b810160208510156106b0578190505b6106c46106bc85610572565b830182610663565b50505b505050565b600082821c905092915050565b60006106ea600019846008026106cc565b1980831691505092915050565b600061070383836106d9565b9150826002028217905092915050565b61071c826104f2565b67ffffffffffffffff8111156107355761073461021e565b5b61073f825461052c565b61074a828285610686565b600060209050601f83116001811461077d576000841561076b578287015190505b61077585826106f7565b8655506107dd565b601f19841661078b8661055d565b60005b828110156107b35784890151825560018201915060208501945060208101905061078e565b868310156107d057848901516107cc601f8916826106d9565b8355505b6001600288020188555050505b505050505050565b610667806107f46000396000f3fe608060405234801561001057600080fd5b506004361061004c5760003560e01c80631fb662e614610051578063715018a61461006f5780638da5cb5b14610079578063f2fde38b14610097575b600080fd5b6100596100b3565b60405161006691906104f5565b60405180910390f35b6100776101f1565b005b610081610205565b60405161008e9190610558565b60405180910390f35b6100b160048036038101906100ac91906105a4565b61022e565b005b6100bb610407565b60016040518060400160405290816000820180546100d890610600565b80601f016020809104026020016040519081016040528092919081815260200182805461010490610600565b80156101515780601f1061012657610100808354040283529160200191610151565b820191906000526020600020905b81548152906001019060200180831161013457829003601f168201915b5050505050815260200160018201805461016a90610600565b80601f016020809104026020016040519081016040528092919081815260200182805461019690610600565b80156101e35780601f106101b8576101008083540402835291602001916101e3565b820191906000526020600020905b8154815290600101906020018083116101c657829003601f168201915b505050505081525050905090565b6101f96102b4565b610203600061033b565b565b60008060009054906101000a900473ffffffffffffffffffffffffffffffffffffffff16905090565b6102366102b4565b600073ffffffffffffffffffffffffffffffffffffffff168173ffffffffffffffffffffffffffffffffffffffff16036102a85760006040517f1e4fbdf700000000000000000000000000000000000000000000000000000000815260040161029f9190610558565b60405180910390fd5b6102b18161033b565b50565b6102bc6103ff565b73ffffffffffffffffffffffffffffffffffffffff166102da610205565b73ffffffffffffffffffffffffffffffffffffffff1614610339576102fd6103ff565b6040517f118cdaa70000000000000000000000000000000000000000000000000000000081526004016103309190610558565b60405180910390fd5b565b60008060009054906101000a900473ffffffffffffffffffffffffffffffffffffffff169050816000806101000a81548173ffffffffffffffffffffffffffffffffffffffff021916908373ffffffffffffffffffffffffffffffffffffffff1602179055508173ffffffffffffffffffffffffffffffffffffffff168173ffffffffffffffffffffffffffffffffffffffff167f8be0079c531659141344cd1fd0a4f28419497f9722a3daafe3b4186f6b6457e060405160405180910390a35050565b600033905090565b604051806040016040528060608152602001606081525090565b600081519050919050565b600082825260208201905092915050565b60005b8381101561045b578082015181840152602081019050610440565b60008484015250505050565b6000601f19601f8301169050919050565b600061048382610421565b61048d818561042c565b935061049d81856020860161043d565b6104a681610467565b840191505092915050565b600060408301600083015184820360008601526104ce8282610478565b915050602083015184820360208601526104e88282610478565b9150508091505092915050565b6000602082019050818103600083015261050f81846104b1565b905092915050565b600073ffffffffffffffffffffffffffffffffffffffff82169050919050565b600061054282610517565b9050919050565b61055281610537565b82525050565b600060208201905061056d6000830184610549565b92915050565b600080fd5b61058181610537565b811461058c57600080fd5b50565b60008135905061059e81610578565b92915050565b6000602082840312156105ba576105b9610573565b5b60006105c88482850161058f565b91505092915050565b7f4e487b7100000000000000000000000000000000000000000000000000000000600052602260045260246000fd5b6000600282049050600182168061061857607f821691505b60208210810361062b5761062a6105d1565b5b5091905056fea2646970667358221220523372d585ed5d8463e5886c7a7c0ef6f025a507af0567ac1a881d662f987d0464736f6c634300081b0033608060405234801561001057600080fd5b50604051610c19380380610c19833981810160405281019061003291906103f0565b816000808201518160000190816100499190610663565b50602082015181600101908161005f9190610663565b5060408201518160020190816100759190610663565b50606082015181600301908161008b9190610663565b506080820151816004015590505080600560006101000a81548173ffffffffffffffffffffffffffffffffffffffff021916908373ffffffffffffffffffffffffffffffffffffffff1602179055505050610735565b6000604051905090565b600080fd5b600080fd5b600080fd5b6000601f19601f8301169050919050565b7f4e487b7100000000000000000000000000000000000000000000000000000000600052604160045260246000fd5b610143826100fa565b810181811067ffffffffffffffff821117156101625761016161010b565b5b80604052505050565b60006101756100e1565b9050610181828261013a565b919050565b600080fd5b600080fd5b600080fd5b600067ffffffffffffffff8211156101b0576101af61010b565b5b6101b9826100fa565b9050602081019050919050565b60005b838110156101e45780820151818401526020810190506101c9565b60008484015250505050565b60006102036101fe84610195565b61016b565b90508281526020810184848401111561021f5761021e610190565b5b61022a8482856101c6565b509392505050565b600082601f8301126102475761024661018b565b5b81516102578482602086016101f0565b91505092915050565b6000819050919050565b61027381610260565b811461027e57600080fd5b50565b6000815190506102908161026a565b92915050565b600060a082840312156102ac576102ab6100f5565b5b6102b660a061016b565b9050600082015167ffffffffffffffff8111156102d6576102d5610186565b5b6102e284828501610232565b600083015250602082015167ffffffffffffffff81111561030657610305610186565b5b61031284828501610232565b602083015250604082015167ffffffffffffffff81111561033657610335610186565b5b61034284828501610232565b604083015250606082015167ffffffffffffffff81111561036657610365610186565b5b61037284828501610232565b606083015250608061038684828501610281565b60808301525092915050565b600073ffffffffffffffffffffffffffffffffffffffff82169050919050565b60006103bd82610392565b9050919050565b6103cd816103b2565b81146103d857600080fd5b50565b6000815190506103ea816103c4565b92915050565b60008060408385031215610407576104066100eb565b5b600083015167ffffffffffffffff811115610425576104246100f0565b5b61043185828601610296565b9250506020610442858286016103db565b9150509250929050565b600081519050919050565b7f4e487b7100000000000000000000000000000000000000000000000000000000600052602260045260246000fd5b6000600282049050600182168061049e57607f821691505b6020821081036104b1576104b0610457565b5b50919050565b60008190508160005260206000209050919050565b60006020601f8301049050919050565b600082821b905092915050565b6000600883026105197fffffffffffffffffffffffffffffffffffffffffffffffffffffffffffffffff826104dc565b61052386836104dc565b95508019841693508086168417925050509392505050565b6000819050919050565b600061056061055b61055684610260565b61053b565b610260565b9050919050565b6000819050919050565b61057a83610545565b61058e61058682610567565b8484546104e9565b825550505050565b600090565b6105a3610596565b6105ae818484610571565b505050565b5b818110156105d2576105c760008261059b565b6001810190506105b4565b5050565b601f821115610617576105e8816104b7565b6105f1846104cc565b81016020851015610600578190505b61061461060c856104cc565b8301826105b3565b50505b505050565b600082821c905092915050565b600061063a6000198460080261061c565b1980831691505092915050565b60006106538383610629565b9150826002028217905092915050565b61066c8261044c565b67ffffffffffffffff8111156106855761068461010b565b5b61068f8254610486565b61069a8282856105d6565b600060209050601f8311600181146106cd57600084156106bb578287015190505b6106c58582610647565b86555061072d565b601f1984166106db866104b7565b60005b82811015610703578489015182556001820191506020850194506020810190506106de565b86831015610720578489015161071c601f891682610629565b8355505b6001600288020188555050505b505050505050565b6104d5806107446000396000f3fe608060405234801561001057600080fd5b506004361061002b5760003560e01c806373e55b2f14610030575b600080fd5b61003861004e565b604051610045919061041d565b60405180910390f35b6100566102ba565b60006040518060a00160405290816000820180546100739061046e565b80601f016020809104026020016040519081016040528092919081815260200182805461009f9061046e565b80156100ec5780601f106100c1576101008083540402835291602001916100ec565b820191906000526020600020905b8154815290600101906020018083116100cf57829003601f168201915b505050505081526020016001820180546101059061046e565b80601f01602080910402602001604051908101604052809291908181526020018280546101319061046e565b801561017e5780601f106101535761010080835404028352916020019161017e565b820191906000526020600020905b81548152906001019060200180831161016157829003601f168201915b505050505081526020016002820180546101979061046e565b80601f01602080910402602001604051908101604052809291908181526020018280546101c39061046e565b80156102105780601f106101e557610100808354040283529160200191610210565b820191906000526020600020905b8154815290600101906020018083116101f357829003601f168201915b505050505081526020016003820180546102299061046e565b80601f01602080910402602001604051908101604052809291908181526020018280546102559061046e565b80156102a25780601f10610277576101008083540402835291602001916102a2565b820191906000526020600020905b81548152906001019060200180831161028557829003601f168201915b50505050508152602001600482015481525050905090565b6040518060a0016040528060608152602001606081526020016060815260200160608152602001600081525090565b600081519050919050565b600082825260208201905092915050565b60005b83811015610323578082015181840152602081019050610308565b60008484015250505050565b6000601f19601f8301169050919050565b600061034b826102e9565b61035581856102f4565b9350610365818560208601610305565b61036e8161032f565b840191505092915050565b6000819050919050565b61038c81610379565b82525050565b600060a08301600083015184820360008601526103af8282610340565b915050602083015184820360208601526103c98282610340565b915050604083015184820360408601526103e38282610340565b915050606083015184820360608601526103fd8282610340565b91505060808301516104126080860182610383565b508091505092915050565b600060208201905081810360008301526104378184610392565b905092915050565b7f4e487b7100000000000000000000000000000000000000000000000000000000600052602260045260246000fd5b6000600282049050600182168061048657607f821691505b6020821081036104995761049861043f565b5b5091905056fea26469706673582212202e7e711036e0251b87918351982e852d40c1650efc22da8f28208b1e781ca30364736f6c634300081b0033a2646970667358221220bb69f956c00b151bedadc86f4b2376c67e1077de9a84ad5cd46810eda5110fdd64736f6c634300081b0033",
  "linkReferences": {},
  "deployedLinkReferences": {}
}