{
  "_format": "hh-sol-artifact-1",
  "contractName": "urna",
  "sourceName": "contracts/Urna.sol",
  "abi": [
    {
      "inputs": [],
      "stateMutability": "nonpayable",
      "type": "constructor"
    },
    {
      "inputs": [
        {
          "internalType": "uint256",
          "name": "",
          "type": "uint256"
        }
      ],
      "name": "electors",
      "outputs": [
        {
          "internalType": "contract elector",
          "name": "",
          "type": "address"
        }
      ],
      "stateMutability": "view",
      "type": "function"
    },
    {
      "inputs": [
        {
          "internalType": "uint256",
          "name": "",
          "type": "uint256"
        }
      ],
      "name": "federalDeputies",
      "outputs": [
        {
          "internalType": "contract candidate",
          "name": "",
          "type": "address"
        }
      ],
      "stateMutability": "view",
      "type": "function"
    },
    {
      "inputs": [
        {
          "internalType": "uint256",
          "name": "",
          "type": "uint256"
        }
      ],
      "name": "governors",
      "outputs": [
        {
          "internalType": "contract candidate",
          "name": "",
          "type": "address"
        }
      ],
      "stateMutability": "view",
      "type": "function"
    },
    {
      "inputs": [
        {
          "internalType": "string",
          "name": "_name",
          "type": "string"
        },
        {
          "internalType": "string",
          "name": "_describe",
          "type": "string"
        },
        {
          "internalType": "string",
          "name": "_candidatePhoto",
          "type": "string"
        },
        {
          "internalType": "string",
          "name": "_politicalPartyName",
          "type": "string"
        },
        {
          "internalType": "uint256",
          "name": "_politicalPartyNumber",
          "type": "uint256"
        }
      ],
      "name": "newCandidateFederalDeputie",
      "outputs": [],
      "stateMutability": "nonpayable",
      "type": "function"
    },
    {
      "inputs": [
        {
          "internalType": "string",
          "name": "_name",
          "type": "string"
        },
        {
          "internalType": "string",
          "name": "_describe",
          "type": "string"
        },
        {
          "internalType": "string",
          "name": "_candidatePhoto",
          "type": "string"
        },
        {
          "internalType": "string",
          "name": "_politicalPartyName",
          "type": "string"
        },
        {
          "internalType": "uint256",
          "name": "_politicalPartyNumber",
          "type": "uint256"
        }
      ],
      "name": "newCandidateGovernor",
      "outputs": [],
      "stateMutability": "nonpayable",
      "type": "function"
    },
    {
      "inputs": [
        {
          "internalType": "string",
          "name": "_name",
          "type": "string"
        },
        {
          "internalType": "string",
          "name": "_describe",
          "type": "string"
        },
        {
          "internalType": "string",
          "name": "_candidatePhoto",
          "type": "string"
        },
        {
          "internalType": "string",
          "name": "_politicalPartyName",
          "type": "string"
        },
        {
          "internalType": "uint256",
          "name": "_politicalPartyNumber",
          "type": "uint256"
        }
      ],
      "name": "newCandidatePresident",
      "outputs": [],
      "stateMutability": "nonpayable",
      "type": "function"
    },
    {
      "inputs": [
        {
          "internalType": "string",
          "name": "_name",
          "type": "string"
        },
        {
          "internalType": "string",
          "name": "_describe",
          "type": "string"
        },
        {
          "internalType": "string",
          "name": "_candidatePhoto",
          "type": "string"
        },
        {
          "internalType": "string",
          "name": "_politicalPartyName",
          "type": "string"
        },
        {
          "internalType": "uint256",
          "name": "_politicalPartyNumber",
          "type": "uint256"
        }
      ],
      "name": "newCandidateSenator",
      "outputs": [],
      "stateMutability": "nonpayable",
      "type": "function"
    },
    {
      "inputs": [
        {
          "internalType": "string",
          "name": "_name",
          "type": "string"
        },
        {
          "internalType": "string",
          "name": "_describe",
          "type": "string"
        },
        {
          "internalType": "string",
          "name": "_candidatePhoto",
          "type": "string"
        },
        {
          "internalType": "string",
          "name": "_politicalPartyName",
          "type": "string"
        },
        {
          "internalType": "uint256",
          "name": "_politicalPartyNumber",
          "type": "uint256"
        }
      ],
      "name": "newCandidateStateDeputie",
      "outputs": [],
      "stateMutability": "nonpayable",
      "type": "function"
    },
    {
      "inputs": [
        {
          "internalType": "string",
          "name": "_name",
          "type": "string"
        },
        {
          "internalType": "string",
          "name": "_cpf",
          "type": "string"
        },
        {
          "internalType": "address",
          "name": "_owner",
          "type": "address"
        }
      ],
      "name": "newElector",
      "outputs": [],
      "stateMutability": "nonpayable",
      "type": "function"
    },
    {
      "inputs": [
        {
          "internalType": "uint256",
          "name": "",
          "type": "uint256"
        }
      ],
      "name": "presidents",
      "outputs": [
        {
          "internalType": "contract candidate",
          "name": "",
          "type": "address"
        }
      ],
      "stateMutability": "view",
      "type": "function"
    },
    {
      "inputs": [],
      "name": "returnElectorAddressKey",
      "outputs": [
        {
          "internalType": "contract elector",
          "name": "",
          "type": "address"
        }
      ],
      "stateMutability": "view",
      "type": "function"
    },
    {
      "inputs": [
        {
          "internalType": "contract elector",
          "name": "_address",
          "type": "address"
        }
      ],
      "name": "returnElectorPerm",
      "outputs": [
        {
          "internalType": "bool",
          "name": "",
          "type": "bool"
        }
      ],
      "stateMutability": "view",
      "type": "function"
    },
    {
      "inputs": [
        {
          "internalType": "uint256",
          "name": "",
          "type": "uint256"
        }
      ],
      "name": "senators",
      "outputs": [
        {
          "internalType": "contract candidate",
          "name": "",
          "type": "address"
        }
      ],
      "stateMutability": "view",
      "type": "function"
    },
    {
      "inputs": [
        {
          "internalType": "uint256",
          "name": "",
          "type": "uint256"
        }
      ],
      "name": "stateDeputies",
      "outputs": [
        {
          "internalType": "contract candidate",
          "name": "",
          "type": "address"
        }
      ],
      "stateMutability": "view",
      "type": "function"
    },
    {
      "inputs": [],
      "name": "viewCandidatesFederalDeputies",
      "outputs": [
        {
          "internalType": "contract candidate[]",
          "name": "",
          "type": "address[]"
        }
      ],
      "stateMutability": "view",
      "type": "function"
    },
    {
      "inputs": [],
      "name": "viewCandidatesGovernors",
      "outputs": [
        {
          "internalType": "contract candidate[]",
          "name": "",
          "type": "address[]"
        }
      ],
      "stateMutability": "view",
      "type": "function"
    },
    {
      "inputs": [],
      "name": "viewCandidatesPresidents",
      "outputs": [
        {
          "internalType": "contract candidate[]",
          "name": "",
          "type": "address[]"
        }
      ],
      "stateMutability": "view",
      "type": "function"
    },
    {
      "inputs": [],
      "name": "viewCandidatesSenators",
      "outputs": [
        {
          "internalType": "contract candidate[]",
          "name": "",
          "type": "address[]"
        }
      ],
      "stateMutability": "view",
      "type": "function"
    },
    {
      "inputs": [],
      "name": "viewCandidatesStateDeputies",
      "outputs": [
        {
          "internalType": "contract candidate[]",
          "name": "",
          "type": "address[]"
        }
      ],
      "stateMutability": "view",
      "type": "function"
    },
    {
      "inputs": [],
      "name": "viewElectors",
      "outputs": [
        {
          "internalType": "contract elector[]",
          "name": "",
          "type": "address[]"
        }
      ],
      "stateMutability": "view",
      "type": "function"
    }
  ],
  "bytecode": "0x608060405234801561001057600080fd5b5033600960006101000a81548173ffffffffffffffffffffffffffffffffffffffff021916908373ffffffffffffffffffffffffffffffffffffffff160217905550614eb1806100616000396000f3fe60806040523480156200001157600080fd5b5060043610620001485760003560e01c80638a2e0fc411620000bd578063b5295aa4116200007b578063b5295aa414620003cd578063c23b3ccc14620003ef578063c71813b4146200040f578063d5db3fa61462000431578063f989755d14620004535762000148565b80638a2e0fc414620002eb578063a22c7aff146200030b578063a7277b001462000341578063ac9b92301462000377578063b39138a314620003ad5762000148565b806367fb30dd116200010b57806367fb30dd146200022f5780636e9a7d4d1462000251578063818c59a11462000271578063856ebb061462000293578063863d260314620002c95762000148565b8063035d3596146200014d5780631372d265146200016d5780634ddc4e8614620001a3578063539be77614620001d9578063540012c8146200020f575b600080fd5b6200016b6004803603810190620001659190620014f5565b62000475565b005b6200018b6004803603810190620001859190620015f9565b620005ba565b6040516200019a9190620016b6565b60405180910390f35b620001c16004803603810190620001bb91906200172c565b620005fa565b604051620001d091906200177b565b60405180910390f35b620001f76004803603810190620001f19190620015f9565b62000650565b604051620002069190620016b6565b60405180910390f35b6200022d6004803603810190620002279190620014f5565b62000690565b005b62000239620007d5565b60405162000248919062001866565b60405180910390f35b6200026f6004803603810190620002699190620014f5565b62000865565b005b6200027b620009aa565b6040516200028a919062001866565b60405180910390f35b620002b16004803603810190620002ab9190620015f9565b62000a3a565b604051620002c09190620016b6565b60405180910390f35b620002d362000a7a565b604051620002e2919062001866565b60405180910390f35b620003096004803603810190620003039190620018bb565b62000b0a565b005b620003296004803603810190620003239190620015f9565b62000dc7565b604051620003389190620016b6565b60405180910390f35b6200035f6004803603810190620003599190620015f9565b62000e07565b6040516200036e9190620016b6565b60405180910390f35b6200039560048036038101906200038f9190620015f9565b62000e47565b604051620003a491906200197a565b60405180910390f35b620003cb6004803603810190620003c59190620014f5565b62000e87565b005b620003d762000fcc565b604051620003e6919062001866565b60405180910390f35b6200040d6004803603810190620004079190620014f5565b6200105c565b005b62000419620011a1565b6040516200042891906200197a565b60405180910390f35b6200043b62001208565b6040516200044a919062001a54565b60405180910390f35b6200045d62001298565b6040516200046c919062001866565b60405180910390f35b600960009054906101000a900473ffffffffffffffffffffffffffffffffffffffff1673ffffffffffffffffffffffffffffffffffffffff163373ffffffffffffffffffffffffffffffffffffffff161462000508576040517f08c379a0000000000000000000000000000000000000000000000000000000008152600401620004ff9062001ad9565b60405180910390fd5b60008585858585306040516200051e9062001328565b6200052f9695949392919062001be5565b604051809103906000f0801580156200054c573d6000803e3d6000fd5b5090506004819080600181540180825580915050600190039060005260206000200160009091909190916101000a81548173ffffffffffffffffffffffffffffffffffffffff021916908373ffffffffffffffffffffffffffffffffffffffff160217905550505050505050565b60008181548110620005cb57600080fd5b906000526020600020016000915054906101000a900473ffffffffffffffffffffffffffffffffffffffff1681565b6000600660008373ffffffffffffffffffffffffffffffffffffffff1673ffffffffffffffffffffffffffffffffffffffff16815260200190815260200160002060009054906101000a900460ff169050919050565b600181815481106200066157600080fd5b906000526020600020016000915054906101000a900473ffffffffffffffffffffffffffffffffffffffff1681565b600960009054906101000a900473ffffffffffffffffffffffffffffffffffffffff1673ffffffffffffffffffffffffffffffffffffffff163373ffffffffffffffffffffffffffffffffffffffff161462000723576040517f08c379a00000000000000000000000000000000000000000000000000000000081526004016200071a9062001ad9565b60405180910390fd5b6000858585858530604051620007399062001328565b6200074a9695949392919062001cd3565b604051809103906000f08015801562000767573d6000803e3d6000fd5b5090506000819080600181540180825580915050600190039060005260206000200160009091909190916101000a81548173ffffffffffffffffffffffffffffffffffffffff021916908373ffffffffffffffffffffffffffffffffffffffff160217905550505050505050565b606060008054806020026020016040519081016040528092919081815260200182805480156200085b57602002820191906000526020600020905b8160009054906101000a900473ffffffffffffffffffffffffffffffffffffffff1673ffffffffffffffffffffffffffffffffffffffff168152602001906001019080831162000810575b5050505050905090565b600960009054906101000a900473ffffffffffffffffffffffffffffffffffffffff1673ffffffffffffffffffffffffffffffffffffffff163373ffffffffffffffffffffffffffffffffffffffff1614620008f8576040517f08c379a0000000000000000000000000000000000000000000000000000000008152600401620008ef9062001ad9565b60405180910390fd5b60008585858585306040516200090e9062001328565b6200091f9695949392919062001dc1565b604051809103906000f0801580156200093c573d6000803e3d6000fd5b5090506003819080600181540180825580915050600190039060005260206000200160009091909190916101000a81548173ffffffffffffffffffffffffffffffffffffffff021916908373ffffffffffffffffffffffffffffffffffffffff160217905550505050505050565b6060600380548060200260200160405190810160405280929190818152602001828054801562000a3057602002820191906000526020600020905b8160009054906101000a900473ffffffffffffffffffffffffffffffffffffffff1673ffffffffffffffffffffffffffffffffffffffff1681526020019060010190808311620009e5575b5050505050905090565b6002818154811062000a4b57600080fd5b906000526020600020016000915054906101000a900473ffffffffffffffffffffffffffffffffffffffff1681565b6060600280548060200260200160405190810160405280929190818152602001828054801562000b0057602002820191906000526020600020905b8160009054906101000a900473ffffffffffffffffffffffffffffffffffffffff1673ffffffffffffffffffffffffffffffffffffffff168152602001906001019080831162000ab5575b5050505050905090565b600960009054906101000a900473ffffffffffffffffffffffffffffffffffffffff1673ffffffffffffffffffffffffffffffffffffffff163373ffffffffffffffffffffffffffffffffffffffff161462000b9d576040517f08c379a000000000000000000000000000000000000000000000000000000000815260040162000b949062001ad9565b60405180910390fd5b60078260405162000baf919062001ea1565b908152602001604051809103902060009054906101000a900460ff161562000c0e576040517f08c379a000000000000000000000000000000000000000000000000000000000815260040162000c059062001f0a565b60405180910390fd5b600160078360405162000c22919062001ea1565b908152602001604051809103902060006101000a81548160ff021916908315150217905550600083838360405162000c5a9062001336565b62000c689392919062001f2c565b604051809103906000f08015801562000c85573d6000803e3d6000fd5b5090506001600660008373ffffffffffffffffffffffffffffffffffffffff1673ffffffffffffffffffffffffffffffffffffffff16815260200190815260200160002060006101000a81548160ff02191690831515021790555080600860008473ffffffffffffffffffffffffffffffffffffffff1673ffffffffffffffffffffffffffffffffffffffff16815260200190815260200160002060006101000a81548173ffffffffffffffffffffffffffffffffffffffff021916908373ffffffffffffffffffffffffffffffffffffffff1602179055506005819080600181540180825580915050600190039060005260206000200160009091909190916101000a81548173ffffffffffffffffffffffffffffffffffffffff021916908373ffffffffffffffffffffffffffffffffffffffff16021790555050505050565b6004818154811062000dd857600080fd5b906000526020600020016000915054906101000a900473ffffffffffffffffffffffffffffffffffffffff1681565b6003818154811062000e1857600080fd5b906000526020600020016000915054906101000a900473ffffffffffffffffffffffffffffffffffffffff1681565b6005818154811062000e5857600080fd5b906000526020600020016000915054906101000a900473ffffffffffffffffffffffffffffffffffffffff1681565b600960009054906101000a900473ffffffffffffffffffffffffffffffffffffffff1673ffffffffffffffffffffffffffffffffffffffff163373ffffffffffffffffffffffffffffffffffffffff161462000f1a576040517f08c379a000000000000000000000000000000000000000000000000000000000815260040162000f119062001ad9565b60405180910390fd5b600085858585853060405162000f309062001328565b62000f419695949392919062001fc7565b604051809103906000f08015801562000f5e573d6000803e3d6000fd5b5090506002819080600181540180825580915050600190039060005260206000200160009091909190916101000a81548173ffffffffffffffffffffffffffffffffffffffff021916908373ffffffffffffffffffffffffffffffffffffffff160217905550505050505050565b606060018054806020026020016040519081016040528092919081815260200182805480156200105257602002820191906000526020600020905b8160009054906101000a900473ffffffffffffffffffffffffffffffffffffffff1673ffffffffffffffffffffffffffffffffffffffff168152602001906001019080831162001007575b5050505050905090565b600960009054906101000a900473ffffffffffffffffffffffffffffffffffffffff1673ffffffffffffffffffffffffffffffffffffffff163373ffffffffffffffffffffffffffffffffffffffff1614620010ef576040517f08c379a0000000000000000000000000000000000000000000000000000000008152600401620010e69062001ad9565b60405180910390fd5b6000858585858530604051620011059062001328565b6200111696959493929190620020b5565b604051809103906000f08015801562001133573d6000803e3d6000fd5b5090506001819080600181540180825580915050600190039060005260206000200160009091909190916101000a81548173ffffffffffffffffffffffffffffffffffffffff021916908373ffffffffffffffffffffffffffffffffffffffff160217905550505050505050565b6000600860003373ffffffffffffffffffffffffffffffffffffffff1673ffffffffffffffffffffffffffffffffffffffff16815260200190815260200160002060009054906101000a900473ffffffffffffffffffffffffffffffffffffffff16905090565b606060058054806020026020016040519081016040528092919081815260200182805480156200128e57602002820191906000526020600020905b8160009054906101000a900473ffffffffffffffffffffffffffffffffffffffff1673ffffffffffffffffffffffffffffffffffffffff168152602001906001019080831162001243575b5050505050905090565b606060048054806020026020016040519081016040528092919081815260200182805480156200131e57602002820191906000526020600020905b8160009054906101000a900473ffffffffffffffffffffffffffffffffffffffff1673ffffffffffffffffffffffffffffffffffffffff1681526020019060010190808311620012d3575b5050505050905090565b6111f9806200215483390190565b611b2f806200334d83390190565b6000604051905090565b600080fd5b600080fd5b600080fd5b600080fd5b6000601f19601f8301169050919050565b7f4e487b7100000000000000000000000000000000000000000000000000000000600052604160045260246000fd5b620013ad8262001362565b810181811067ffffffffffffffff82111715620013cf57620013ce62001373565b5b80604052505050565b6000620013e462001344565b9050620013f28282620013a2565b919050565b600067ffffffffffffffff82111562001415576200141462001373565b5b620014208262001362565b9050602081019050919050565b82818337600083830152505050565b6000620014536200144d84620013f7565b620013d8565b9050828152602081018484840111156200147257620014716200135d565b5b6200147f8482856200142d565b509392505050565b600082601f8301126200149f576200149e62001358565b5b8135620014b18482602086016200143c565b91505092915050565b6000819050919050565b620014cf81620014ba565b8114620014db57600080fd5b50565b600081359050620014ef81620014c4565b92915050565b600080600080600060a086880312156200151457620015136200134e565b5b600086013567ffffffffffffffff81111562001535576200153462001353565b5b620015438882890162001487565b955050602086013567ffffffffffffffff81111562001567576200156662001353565b5b620015758882890162001487565b945050604086013567ffffffffffffffff81111562001599576200159862001353565b5b620015a78882890162001487565b935050606086013567ffffffffffffffff811115620015cb57620015ca62001353565b5b620015d98882890162001487565b9250506080620015ec88828901620014de565b9150509295509295909350565b6000602082840312156200161257620016116200134e565b5b60006200162284828501620014de565b91505092915050565b600073ffffffffffffffffffffffffffffffffffffffff82169050919050565b6000819050919050565b600062001676620016706200166a846200162b565b6200164b565b6200162b565b9050919050565b60006200168a8262001655565b9050919050565b60006200169e826200167d565b9050919050565b620016b08162001691565b82525050565b6000602082019050620016cd6000830184620016a5565b92915050565b6000620016e0826200162b565b9050919050565b6000620016f482620016d3565b9050919050565b6200170681620016e7565b81146200171257600080fd5b50565b6000813590506200172681620016fb565b92915050565b6000602082840312156200174557620017446200134e565b5b6000620017558482850162001715565b91505092915050565b60008115159050919050565b62001775816200175e565b82525050565b60006020820190506200179260008301846200176a565b92915050565b600081519050919050565b600082825260208201905092915050565b6000819050602082019050919050565b620017cf8162001691565b82525050565b6000620017e38383620017c4565b60208301905092915050565b6000602082019050919050565b6000620018098262001798565b620018158185620017a3565b93506200182283620017b4565b8060005b83811015620018595781516200183d8882620017d5565b97506200184a83620017ef565b92505060018101905062001826565b5085935050505092915050565b60006020820190508181036000830152620018828184620017fc565b905092915050565b6200189581620016d3565b8114620018a157600080fd5b50565b600081359050620018b5816200188a565b92915050565b600080600060608486031215620018d757620018d66200134e565b5b600084013567ffffffffffffffff811115620018f857620018f762001353565b5b620019068682870162001487565b935050602084013567ffffffffffffffff8111156200192a576200192962001353565b5b620019388682870162001487565b92505060406200194b86828701620018a4565b9150509250925092565b600062001962826200167d565b9050919050565b620019748162001955565b82525050565b600060208201905062001991600083018462001969565b92915050565b600081519050919050565b6000819050602082019050919050565b620019bd8162001955565b82525050565b6000620019d18383620019b2565b60208301905092915050565b6000602082019050919050565b6000620019f78262001997565b62001a038185620017a3565b935062001a1083620019a2565b8060005b8381101562001a4757815162001a2b8882620019c3565b975062001a3883620019dd565b92505060018101905062001a14565b5085935050505092915050565b6000602082019050818103600083015262001a708184620019ea565b905092915050565b600082825260208201905092915050565b7f4552524f523a20596f75277265206e6f7420746865206f776e65722100000000600082015250565b600062001ac1601c8362001a78565b915062001ace8262001a89565b602082019050919050565b6000602082019050818103600083015262001af48162001ab2565b9050919050565b600081519050919050565b60005b8381101562001b2657808201518184015260208101905062001b09565b60008484015250505050565b600062001b3f8262001afb565b62001b4b818562001a78565b935062001b5d81856020860162001b06565b62001b688162001362565b840191505092915050565b62001b7e81620014ba565b82525050565b7f507265736964656e740000000000000000000000000000000000000000000000600082015250565b600062001bbc60098362001a78565b915062001bc98262001b84565b602082019050919050565b62001bdf81620016d3565b82525050565b600060e082019050818103600083015262001c01818962001b32565b9050818103602083015262001c17818862001b32565b9050818103604083015262001c2d818762001b32565b9050818103606083015262001c43818662001b32565b905062001c54608083018562001b73565b81810360a083015262001c678162001bad565b905062001c7860c083018462001bd4565b979650505050505050565b7f4665646572616c20446570757469650000000000000000000000000000000000600082015250565b600062001cbb600f8362001a78565b915062001cc88262001c83565b602082019050919050565b600060e082019050818103600083015262001cef818962001b32565b9050818103602083015262001d05818862001b32565b9050818103604083015262001d1b818762001b32565b9050818103606083015262001d31818662001b32565b905062001d42608083018562001b73565b81810360a083015262001d558162001cac565b905062001d6660c083018462001bd4565b979650505050505050565b7f476f7665726e6f72000000000000000000000000000000000000000000000000600082015250565b600062001da960088362001a78565b915062001db68262001d71565b602082019050919050565b600060e082019050818103600083015262001ddd818962001b32565b9050818103602083015262001df3818862001b32565b9050818103604083015262001e09818762001b32565b9050818103606083015262001e1f818662001b32565b905062001e30608083018562001b73565b81810360a083015262001e438162001d9a565b905062001e5460c083018462001bd4565b979650505050505050565b600081905092915050565b600062001e778262001afb565b62001e83818562001e5f565b935062001e9581856020860162001b06565b80840191505092915050565b600062001eaf828462001e6a565b915081905092915050565b7f4552524f523a2063706620616c72656164792072656769737465726564210000600082015250565b600062001ef2601e8362001a78565b915062001eff8262001eba565b602082019050919050565b6000602082019050818103600083015262001f258162001ee3565b9050919050565b6000606082019050818103600083015262001f48818662001b32565b9050818103602083015262001f5e818562001b32565b905062001f6f604083018462001bd4565b949350505050565b7f53656e61746f7200000000000000000000000000000000000000000000000000600082015250565b600062001faf60078362001a78565b915062001fbc8262001f77565b602082019050919050565b600060e082019050818103600083015262001fe3818962001b32565b9050818103602083015262001ff9818862001b32565b905081810360408301526200200f818762001b32565b9050818103606083015262002025818662001b32565b905062002036608083018562001b73565b81810360a0830152620020498162001fa0565b90506200205a60c083018462001bd4565b979650505050505050565b7f5374617465204465707574696500000000000000000000000000000000000000600082015250565b60006200209d600d8362001a78565b9150620020aa8262002065565b602082019050919050565b600060e0820190508181036000830152620020d1818962001b32565b90508181036020830152620020e7818862001b32565b90508181036040830152620020fd818762001b32565b9050818103606083015262002113818662001b32565b905062002124608083018562001b73565b81810360a083015262002137816200208e565b90506200214860c083018462001bd4565b97965050505050505056fe60806040523480156200001157600080fd5b50604051620011f9380380620011f9833981810160405281019062000037919062000321565b8660009081620000489190620006b0565b5085600190816200005a9190620006b0565b5083600390816200006c9190620006b0565b50826004819055508160059081620000859190620006b0565b508460029081620000979190620006b0565b5080600660006101000a81548173ffffffffffffffffffffffffffffffffffffffff021916908373ffffffffffffffffffffffffffffffffffffffff16021790555060006007819055505050505050505062000797565b6000604051905090565b600080fd5b600080fd5b600080fd5b600080fd5b6000601f19601f8301169050919050565b7f4e487b7100000000000000000000000000000000000000000000000000000000600052604160045260246000fd5b62000157826200010c565b810181811067ffffffffffffffff821117156200017957620001786200011d565b5b80604052505050565b60006200018e620000ee565b90506200019c82826200014c565b919050565b600067ffffffffffffffff821115620001bf57620001be6200011d565b5b620001ca826200010c565b9050602081019050919050565b60005b83811015620001f7578082015181840152602081019050620001da565b60008484015250505050565b60006200021a6200021484620001a1565b62000182565b90508281526020810184848401111562000239576200023862000107565b5b62000246848285620001d7565b509392505050565b600082601f83011262000266576200026562000102565b5b81516200027884826020860162000203565b91505092915050565b6000819050919050565b620002968162000281565b8114620002a257600080fd5b50565b600081519050620002b6816200028b565b92915050565b600073ffffffffffffffffffffffffffffffffffffffff82169050919050565b6000620002e982620002bc565b9050919050565b620002fb81620002dc565b81146200030757600080fd5b50565b6000815190506200031b81620002f0565b92915050565b600080600080600080600060e0888a031215620003435762000342620000f8565b5b600088015167ffffffffffffffff811115620003645762000363620000fd565b5b620003728a828b016200024e565b975050602088015167ffffffffffffffff811115620003965762000395620000fd565b5b620003a48a828b016200024e565b965050604088015167ffffffffffffffff811115620003c857620003c7620000fd565b5b620003d68a828b016200024e565b955050606088015167ffffffffffffffff811115620003fa57620003f9620000fd565b5b620004088a828b016200024e565b94505060806200041b8a828b01620002a5565b93505060a088015167ffffffffffffffff8111156200043f576200043e620000fd565b5b6200044d8a828b016200024e565b92505060c0620004608a828b016200030a565b91505092959891949750929550565b600081519050919050565b7f4e487b7100000000000000000000000000000000000000000000000000000000600052602260045260246000fd5b60006002820490506001821680620004c257607f821691505b602082108103620004d857620004d76200047a565b5b50919050565b60008190508160005260206000209050919050565b60006020601f8301049050919050565b600082821b905092915050565b600060088302620005427fffffffffffffffffffffffffffffffffffffffffffffffffffffffffffffffff8262000503565b6200054e868362000503565b95508019841693508086168417925050509392505050565b6000819050919050565b6000620005916200058b620005858462000281565b62000566565b62000281565b9050919050565b6000819050919050565b620005ad8362000570565b620005c5620005bc8262000598565b84845462000510565b825550505050565b600090565b620005dc620005cd565b620005e9818484620005a2565b505050565b5b81811015620006115762000605600082620005d2565b600181019050620005ef565b5050565b601f82111562000660576200062a81620004de565b6200063584620004f3565b8101602085101562000645578190505b6200065d6200065485620004f3565b830182620005ee565b50505b505050565b600082821c905092915050565b6000620006856000198460080262000665565b1980831691505092915050565b6000620006a0838362000672565b9150826002028217905092915050565b620006bb826200046f565b67ffffffffffffffff811115620006d757620006d66200011d565b5b620006e38254620004a9565b620006f082828562000615565b600060209050601f83116001811462000728576000841562000713578287015190505b6200071f858262000692565b8655506200078f565b601f1984166200073886620004de565b60005b8281101562000762578489015182556001820191506020850194506020810190506200073b565b868310156200078257848901516200077e601f89168262000672565b8355505b6001600288020188555050505b505050505050565b610a5280620007a76000396000f3fe608060405234801561001057600080fd5b50600436106100885760003560e01c8063a07d792d1161005b578063a07d792d14610105578063b8c270b21461010f578063bb1920331461012d578063e36fccc91461014b57610088565b806305e0a53e1461008d5780632270ae65146100ab5780635ea5cabe146100c95780637ae31c5c146100e7575b600080fd5b610095610169565b6040516100a29190610727565b60405180910390f35b6100b36101fb565b6040516100c09190610762565b60405180910390f35b6100d1610205565b6040516100de9190610727565b60405180910390f35b6100ef610297565b6040516100fc9190610727565b60405180910390f35b61010d610329565b005b610117610569565b6040516101249190610727565b60405180910390f35b6101356105fb565b6040516101429190610727565b60405180910390f35b61015361068d565b6040516101609190610762565b60405180910390f35b606060038054610178906107ac565b80601f01602080910402602001604051908101604052809291908181526020018280546101a4906107ac565b80156101f15780601f106101c6576101008083540402835291602001916101f1565b820191906000526020600020905b8154815290600101906020018083116101d457829003601f168201915b5050505050905090565b6000600454905090565b606060008054610214906107ac565b80601f0160208091040260200160405190810160405280929190818152602001828054610240906107ac565b801561028d5780601f106102625761010080835404028352916020019161028d565b820191906000526020600020905b81548152906001019060200180831161027057829003601f168201915b5050505050905090565b6060600280546102a6906107ac565b80601f01602080910402602001604051908101604052809291908181526020018280546102d2906107ac565b801561031f5780601f106102f45761010080835404028352916020019161031f565b820191906000526020600020905b81548152906001019060200180831161030257829003601f168201915b5050505050905090565b600860003373ffffffffffffffffffffffffffffffffffffffff1673ffffffffffffffffffffffffffffffffffffffff16815260200190815260200160002060009054906101000a900460ff16156103b6576040517f08c379a00000000000000000000000000000000000000000000000000000000081526004016103ad90610829565b60405180910390fd5b6000600660009054906101000a900473ffffffffffffffffffffffffffffffffffffffff16905060008173ffffffffffffffffffffffffffffffffffffffff16634ddc4e86336040518263ffffffff1660e01b815260040161041891906108c8565b602060405180830381865afa158015610435573d6000803e3d6000fd5b505050506040513d601f19601f820116820180604052508101906104599190610920565b90508061049b576040517f08c379a000000000000000000000000000000000000000000000000000000000815260040161049290610999565b60405180910390fd5b6001600860003373ffffffffffffffffffffffffffffffffffffffff1673ffffffffffffffffffffffffffffffffffffffff16815260200190815260200160002060006101000a81548160ff0219169083151502179055506001600860003273ffffffffffffffffffffffffffffffffffffffff1673ffffffffffffffffffffffffffffffffffffffff16815260200190815260200160002060006101000a81548160ff02191690831515021790555060016007600082825461055e91906109e8565b925050819055505050565b606060018054610578906107ac565b80601f01602080910402602001604051908101604052809291908181526020018280546105a4906107ac565b80156105f15780601f106105c6576101008083540402835291602001916105f1565b820191906000526020600020905b8154815290600101906020018083116105d457829003601f168201915b5050505050905090565b60606005805461060a906107ac565b80601f0160208091040260200160405190810160405280929190818152602001828054610636906107ac565b80156106835780601f1061065857610100808354040283529160200191610683565b820191906000526020600020905b81548152906001019060200180831161066657829003601f168201915b5050505050905090565b6000600754905090565b600081519050919050565b600082825260208201905092915050565b60005b838110156106d15780820151818401526020810190506106b6565b60008484015250505050565b6000601f19601f8301169050919050565b60006106f982610697565b61070381856106a2565b93506107138185602086016106b3565b61071c816106dd565b840191505092915050565b6000602082019050818103600083015261074181846106ee565b905092915050565b6000819050919050565b61075c81610749565b82525050565b60006020820190506107776000830184610753565b92915050565b7f4e487b7100000000000000000000000000000000000000000000000000000000600052602260045260246000fd5b600060028204905060018216806107c457607f821691505b6020821081036107d7576107d661077d565b5b50919050565b7f4552524f523a20596f75206861766520616c726561647920766f746564210000600082015250565b6000610813601e836106a2565b915061081e826107dd565b602082019050919050565b6000602082019050818103600083015261084281610806565b9050919050565b600073ffffffffffffffffffffffffffffffffffffffff82169050919050565b6000819050919050565b600061088e61088961088484610849565b610869565b610849565b9050919050565b60006108a082610873565b9050919050565b60006108b282610895565b9050919050565b6108c2816108a7565b82525050565b60006020820190506108dd60008301846108b9565b92915050565b600080fd5b60008115159050919050565b6108fd816108e8565b811461090857600080fd5b50565b60008151905061091a816108f4565b92915050565b600060208284031215610936576109356108e3565b5b60006109448482850161090b565b91505092915050565b7f4552524f523a20596f75206e6f742061726520456c6563746f72210000000000600082015250565b6000610983601b836106a2565b915061098e8261094d565b602082019050919050565b600060208201905081810360008301526109b281610976565b9050919050565b7f4e487b7100000000000000000000000000000000000000000000000000000000600052601160045260246000fd5b60006109f382610749565b91506109fe83610749565b9250828201905080821115610a1657610a156109b9565b5b9291505056fea2646970667358221220987565328f208bf3a96074809b8541e3f461439d40df595bc266ea601a2e709b64736f6c6343000811003360806040523480156200001157600080fd5b5060405162001b2f38038062001b2f83398181016040528101906200003791906200029d565b826000908162000048919062000582565b5081600190816200005a919062000582565b5080600260006101000a81548173ffffffffffffffffffffffffffffffffffffffff021916908373ffffffffffffffffffffffffffffffffffffffff16021790555050505062000669565b6000604051905090565b600080fd5b600080fd5b600080fd5b600080fd5b6000601f19601f8301169050919050565b7f4e487b7100000000000000000000000000000000000000000000000000000000600052604160045260246000fd5b6200010e82620000c3565b810181811067ffffffffffffffff8211171562000130576200012f620000d4565b5b80604052505050565b600062000145620000a5565b905062000153828262000103565b919050565b600067ffffffffffffffff821115620001765762000175620000d4565b5b6200018182620000c3565b9050602081019050919050565b60005b83811015620001ae57808201518184015260208101905062000191565b60008484015250505050565b6000620001d1620001cb8462000158565b62000139565b905082815260208101848484011115620001f057620001ef620000be565b5b620001fd8482856200018e565b509392505050565b600082601f8301126200021d576200021c620000b9565b5b81516200022f848260208601620001ba565b91505092915050565b600073ffffffffffffffffffffffffffffffffffffffff82169050919050565b6000620002658262000238565b9050919050565b620002778162000258565b81146200028357600080fd5b50565b60008151905062000297816200026c565b92915050565b600080600060608486031215620002b957620002b8620000af565b5b600084015167ffffffffffffffff811115620002da57620002d9620000b4565b5b620002e88682870162000205565b935050602084015167ffffffffffffffff8111156200030c576200030b620000b4565b5b6200031a8682870162000205565b92505060406200032d8682870162000286565b9150509250925092565b600081519050919050565b7f4e487b7100000000000000000000000000000000000000000000000000000000600052602260045260246000fd5b600060028204905060018216806200038a57607f821691505b602082108103620003a0576200039f62000342565b5b50919050565b60008190508160005260206000209050919050565b60006020601f8301049050919050565b600082821b905092915050565b6000600883026200040a7fffffffffffffffffffffffffffffffffffffffffffffffffffffffffffffffff82620003cb565b620004168683620003cb565b95508019841693508086168417925050509392505050565b6000819050919050565b6000819050919050565b6000620004636200045d62000457846200042e565b62000438565b6200042e565b9050919050565b6000819050919050565b6200047f8362000442565b620004976200048e826200046a565b848454620003d8565b825550505050565b600090565b620004ae6200049f565b620004bb81848462000474565b505050565b5b81811015620004e357620004d7600082620004a4565b600181019050620004c1565b5050565b601f8211156200053257620004fc81620003a6565b6200050784620003bb565b8101602085101562000517578190505b6200052f6200052685620003bb565b830182620004c0565b50505b505050565b600082821c905092915050565b6000620005576000198460080262000537565b1980831691505092915050565b600062000572838362000544565b9150826002028217905092915050565b6200058d8262000337565b67ffffffffffffffff811115620005a957620005a8620000d4565b5b620005b5825462000371565b620005c2828285620004e7565b600060209050601f831160018114620005fa5760008415620005e5578287015190505b620005f1858262000564565b86555062000661565b601f1984166200060a86620003a6565b60005b8281101562000634578489015182556001820191506020850194506020810190506200060d565b8683101562000654578489015162000650601f89168262000544565b8355505b6001600288020188555050505b505050505050565b6114b680620006796000396000f3fe608060405234801561001057600080fd5b50600436106100935760003560e01c8063680465a711610066578063680465a71461011e5780636951988e1461013a57806394a927fe14610156578063a0d1722314610174578063cfb82a251461019057610093565b80631b2b67c71461009857806351d9a224146100c857806361dd7f77146100e45780636454fca114610100575b600080fd5b6100b260048036038101906100ad9190611114565b6101ae565b6040516100bf91906111c0565b60405180910390f35b6100e260048036038101906100dd9190611219565b610340565b005b6100fe60048036038101906100f99190611219565b61055f565b005b61010861077e565b60405161011591906112d6565b60405180910390f35b61013860048036038101906101339190611219565b6108a0565b005b610154600480360381019061014f9190611219565b610abf565b005b61015e610cde565b60405161016b9190611307565b60405180910390f35b61018e60048036038101906101899190611219565b610d98565b005b610198610fb7565b6040516101a591906112d6565b60405180910390f35b6000600260009054906101000a900473ffffffffffffffffffffffffffffffffffffffff1673ffffffffffffffffffffffffffffffffffffffff163373ffffffffffffffffffffffffffffffffffffffff1614610240576040517f08c379a00000000000000000000000000000000000000000000000000000000081526004016102379061136e565b60405180910390fd5b6001820361027257600360009054906101000a900473ffffffffffffffffffffffffffffffffffffffff16905061033b565b600282036102a457600460009054906101000a900473ffffffffffffffffffffffffffffffffffffffff16905061033b565b600382036102d657600560009054906101000a900473ffffffffffffffffffffffffffffffffffffffff16905061033b565b6004820361030857600660009054906101000a900473ffffffffffffffffffffffffffffffffffffffff16905061033b565b6005820361033a57600760009054906101000a900473ffffffffffffffffffffffffffffffffffffffff16905061033b565b5b919050565b600260009054906101000a900473ffffffffffffffffffffffffffffffffffffffff1673ffffffffffffffffffffffffffffffffffffffff163373ffffffffffffffffffffffffffffffffffffffff16146103d0576040517f08c379a00000000000000000000000000000000000000000000000000000000081526004016103c79061136e565b60405180910390fd5b600c60003373ffffffffffffffffffffffffffffffffffffffff1673ffffffffffffffffffffffffffffffffffffffff16815260200190815260200160002060009054906101000a900460ff161561045d576040517f08c379a000000000000000000000000000000000000000000000000000000000815260040161045490611400565b60405180910390fd5b6001600c60003373ffffffffffffffffffffffffffffffffffffffff1673ffffffffffffffffffffffffffffffffffffffff16815260200190815260200160002060006101000a81548160ff021916908315150217905550600081905080600760006101000a81548173ffffffffffffffffffffffffffffffffffffffff021916908373ffffffffffffffffffffffffffffffffffffffff1602179055508073ffffffffffffffffffffffffffffffffffffffff1663a07d792d6040518163ffffffff1660e01b8152600401600060405180830381600087803b15801561054357600080fd5b505af1158015610557573d6000803e3d6000fd5b505050505050565b600260009054906101000a900473ffffffffffffffffffffffffffffffffffffffff1673ffffffffffffffffffffffffffffffffffffffff163373ffffffffffffffffffffffffffffffffffffffff16146105ef576040517f08c379a00000000000000000000000000000000000000000000000000000000081526004016105e69061136e565b60405180910390fd5b600b60003373ffffffffffffffffffffffffffffffffffffffff1673ffffffffffffffffffffffffffffffffffffffff16815260200190815260200160002060009054906101000a900460ff161561067c576040517f08c379a000000000000000000000000000000000000000000000000000000000815260040161067390611400565b60405180910390fd5b6001600b60003373ffffffffffffffffffffffffffffffffffffffff1673ffffffffffffffffffffffffffffffffffffffff16815260200190815260200160002060006101000a81548160ff021916908315150217905550600081905080600660006101000a81548173ffffffffffffffffffffffffffffffffffffffff021916908373ffffffffffffffffffffffffffffffffffffffff1602179055508073ffffffffffffffffffffffffffffffffffffffff1663a07d792d6040518163ffffffff1660e01b8152600401600060405180830381600087803b15801561076257600080fd5b505af1158015610776573d6000803e3d6000fd5b505050505050565b6060600260009054906101000a900473ffffffffffffffffffffffffffffffffffffffff1673ffffffffffffffffffffffffffffffffffffffff163373ffffffffffffffffffffffffffffffffffffffff1614610810576040517f08c379a00000000000000000000000000000000000000000000000000000000081526004016108079061136e565b60405180910390fd5b6001805461081d9061144f565b80601f01602080910402602001604051908101604052809291908181526020018280546108499061144f565b80156108965780601f1061086b57610100808354040283529160200191610896565b820191906000526020600020905b81548152906001019060200180831161087957829003601f168201915b5050505050905090565b600260009054906101000a900473ffffffffffffffffffffffffffffffffffffffff1673ffffffffffffffffffffffffffffffffffffffff163373ffffffffffffffffffffffffffffffffffffffff1614610930576040517f08c379a00000000000000000000000000000000000000000000000000000000081526004016109279061136e565b60405180910390fd5b600a60003373ffffffffffffffffffffffffffffffffffffffff1673ffffffffffffffffffffffffffffffffffffffff16815260200190815260200160002060009054906101000a900460ff16156109bd576040517f08c379a00000000000000000000000000000000000000000000000000000000081526004016109b490611400565b60405180910390fd5b6001600a60003373ffffffffffffffffffffffffffffffffffffffff1673ffffffffffffffffffffffffffffffffffffffff16815260200190815260200160002060006101000a81548160ff021916908315150217905550600081905080600560006101000a81548173ffffffffffffffffffffffffffffffffffffffff021916908373ffffffffffffffffffffffffffffffffffffffff1602179055508073ffffffffffffffffffffffffffffffffffffffff1663a07d792d6040518163ffffffff1660e01b8152600401600060405180830381600087803b158015610aa357600080fd5b505af1158015610ab7573d6000803e3d6000fd5b505050505050565b600260009054906101000a900473ffffffffffffffffffffffffffffffffffffffff1673ffffffffffffffffffffffffffffffffffffffff163373ffffffffffffffffffffffffffffffffffffffff1614610b4f576040517f08c379a0000000000000000000000000000000000000000000000000000000008152600401610b469061136e565b60405180910390fd5b600a60003373ffffffffffffffffffffffffffffffffffffffff1673ffffffffffffffffffffffffffffffffffffffff16815260200190815260200160002060009054906101000a900460ff1615610bdc576040517f08c379a0000000000000000000000000000000000000000000000000000000008152600401610bd390611400565b60405180910390fd5b6001600960003373ffffffffffffffffffffffffffffffffffffffff1673ffffffffffffffffffffffffffffffffffffffff16815260200190815260200160002060006101000a81548160ff021916908315150217905550600081905080600460006101000a81548173ffffffffffffffffffffffffffffffffffffffff021916908373ffffffffffffffffffffffffffffffffffffffff1602179055508073ffffffffffffffffffffffffffffffffffffffff1663a07d792d6040518163ffffffff1660e01b8152600401600060405180830381600087803b158015610cc257600080fd5b505af1158015610cd6573d6000803e3d6000fd5b505050505050565b6000600260009054906101000a900473ffffffffffffffffffffffffffffffffffffffff1673ffffffffffffffffffffffffffffffffffffffff163373ffffffffffffffffffffffffffffffffffffffff1614610d70576040517f08c379a0000000000000000000000000000000000000000000000000000000008152600401610d679061136e565b60405180910390fd5b600260009054906101000a900473ffffffffffffffffffffffffffffffffffffffff16905090565b600260009054906101000a900473ffffffffffffffffffffffffffffffffffffffff1673ffffffffffffffffffffffffffffffffffffffff163373ffffffffffffffffffffffffffffffffffffffff1614610e28576040517f08c379a0000000000000000000000000000000000000000000000000000000008152600401610e1f9061136e565b60405180910390fd5b600860003373ffffffffffffffffffffffffffffffffffffffff1673ffffffffffffffffffffffffffffffffffffffff16815260200190815260200160002060009054906101000a900460ff1615610eb5576040517f08c379a0000000000000000000000000000000000000000000000000000000008152600401610eac90611400565b60405180910390fd5b6001600860003373ffffffffffffffffffffffffffffffffffffffff1673ffffffffffffffffffffffffffffffffffffffff16815260200190815260200160002060006101000a81548160ff021916908315150217905550600081905080600360006101000a81548173ffffffffffffffffffffffffffffffffffffffff021916908373ffffffffffffffffffffffffffffffffffffffff1602179055508073ffffffffffffffffffffffffffffffffffffffff1663a07d792d6040518163ffffffff1660e01b8152600401600060405180830381600087803b158015610f9b57600080fd5b505af1158015610faf573d6000803e3d6000fd5b505050505050565b6060600260009054906101000a900473ffffffffffffffffffffffffffffffffffffffff1673ffffffffffffffffffffffffffffffffffffffff163373ffffffffffffffffffffffffffffffffffffffff1614611049576040517f08c379a00000000000000000000000000000000000000000000000000000000081526004016110409061136e565b60405180910390fd5b600080546110569061144f565b80601f01602080910402602001604051908101604052809291908181526020018280546110829061144f565b80156110cf5780601f106110a4576101008083540402835291602001916110cf565b820191906000526020600020905b8154815290600101906020018083116110b257829003601f168201915b5050505050905090565b600080fd5b6000819050919050565b6110f1816110de565b81146110fc57600080fd5b50565b60008135905061110e816110e8565b92915050565b60006020828403121561112a576111296110d9565b5b6000611138848285016110ff565b91505092915050565b600073ffffffffffffffffffffffffffffffffffffffff82169050919050565b6000819050919050565b600061118661118161117c84611141565b611161565b611141565b9050919050565b60006111988261116b565b9050919050565b60006111aa8261118d565b9050919050565b6111ba8161119f565b82525050565b60006020820190506111d560008301846111b1565b92915050565b60006111e682611141565b9050919050565b6111f6816111db565b811461120157600080fd5b50565b600081359050611213816111ed565b92915050565b60006020828403121561122f5761122e6110d9565b5b600061123d84828501611204565b91505092915050565b600081519050919050565b600082825260208201905092915050565b60005b83811015611280578082015181840152602081019050611265565b60008484015250505050565b6000601f19601f8301169050919050565b60006112a882611246565b6112b28185611251565b93506112c2818560208601611262565b6112cb8161128c565b840191505092915050565b600060208201905081810360008301526112f0818461129d565b905092915050565b611301816111db565b82525050565b600060208201905061131c60008301846112f8565b92915050565b7f4552524f523a20596f75277265206e6f7420746865206f776e65722100000000600082015250565b6000611358601c83611251565b915061136382611322565b602082019050919050565b600060208201905081810360008301526113878161134b565b9050919050565b7f4552524f523a20596f7520616c726561647920766f74656420666f722074686960008201527f7320706f736974696f6e00000000000000000000000000000000000000000000602082015250565b60006113ea602a83611251565b91506113f58261138e565b604082019050919050565b60006020820190508181036000830152611419816113dd565b9050919050565b7f4e487b7100000000000000000000000000000000000000000000000000000000600052602260045260246000fd5b6000600282049050600182168061146757607f821691505b60208210810361147a57611479611420565b5b5091905056fea26469706673582212208b2bdebdfe20ffd5dbcfe2b4aeb03af41304846180c5db0306413d198dff18ce64736f6c63430008110033a26469706673582212202c92c4f76f634bc4f430b72552170450dc3052ab2b0552691457cac0e9c563e264736f6c63430008110033",
  "linkReferences": {},
  "deployedLinkReferences": {}
}