{
  "_format": "hh-sol-artifact-1",
  "contractName": "Urna",
  "sourceName": "contracts/Urna.sol",
  "abi": [
    {
      "inputs": [
        {
          "internalType": "address",
          "name": "_owner",
          "type": "address"
        }
      ],
      "stateMutability": "nonpayable",
      "type": "constructor"
    },
    {
      "inputs": [
        {
          "internalType": "address",
          "name": "owner",
          "type": "address"
        }
      ],
      "name": "OwnableInvalidOwner",
      "type": "error"
    },
    {
      "inputs": [
        {
          "internalType": "address",
          "name": "account",
          "type": "address"
        }
      ],
      "name": "OwnableUnauthorizedAccount",
      "type": "error"
    },
    {
      "anonymous": false,
      "inputs": [
        {
          "indexed": true,
          "internalType": "address",
          "name": "previousOwner",
          "type": "address"
        },
        {
          "indexed": true,
          "internalType": "address",
          "name": "newOwner",
          "type": "address"
        }
      ],
      "name": "OwnershipTransferred",
      "type": "event"
    },
    {
      "inputs": [
        {
          "components": [
            {
              "internalType": "string",
              "name": "name",
              "type": "string"
            },
            {
              "internalType": "string",
              "name": "describe",
              "type": "string"
            },
            {
              "internalType": "string",
              "name": "candidatePhoto",
              "type": "string"
            },
            {
              "internalType": "string",
              "name": "politicalPartyName",
              "type": "string"
            },
            {
              "internalType": "uint256",
              "name": "politicalPartyNumber",
              "type": "uint256"
            }
          ],
          "internalType": "struct CandidateStructs.candidateData",
          "name": "data_",
          "type": "tuple"
        },
        {
          "internalType": "uint256",
          "name": "position_",
          "type": "uint256"
        }
      ],
      "name": "createCandidate",
      "outputs": [],
      "stateMutability": "nonpayable",
      "type": "function"
    },
    {
      "inputs": [
        {
          "components": [
            {
              "internalType": "string",
              "name": "name",
              "type": "string"
            },
            {
              "internalType": "string",
              "name": "cpf",
              "type": "string"
            }
          ],
          "internalType": "struct ElectorStructs.electorData",
          "name": "data_",
          "type": "tuple"
        },
        {
          "internalType": "address",
          "name": "owner_",
          "type": "address"
        }
      ],
      "name": "createElector",
      "outputs": [],
      "stateMutability": "nonpayable",
      "type": "function"
    },
    {
      "inputs": [],
      "name": "owner",
      "outputs": [
        {
          "internalType": "address",
          "name": "",
          "type": "address"
        }
      ],
      "stateMutability": "view",
      "type": "function"
    },
    {
      "inputs": [],
      "name": "renounceOwnership",
      "outputs": [],
      "stateMutability": "nonpayable",
      "type": "function"
    },
    {
      "inputs": [
        {
          "internalType": "address",
          "name": "newOwner",
          "type": "address"
        }
      ],
      "name": "transferOwnership",
      "outputs": [],
      "stateMutability": "nonpayable",
      "type": "function"
    }
  ],
  "bytecode": "0x608060405234801561001057600080fd5b50604051612994380380612994833981810160405281019061003291906101e2565b80600073ffffffffffffffffffffffffffffffffffffffff168173ffffffffffffffffffffffffffffffffffffffff16036100a55760006040517f1e4fbdf700000000000000000000000000000000000000000000000000000000815260040161009c919061021e565b60405180910390fd5b6100b4816100bb60201b60201c565b5050610239565b60008060009054906101000a900473ffffffffffffffffffffffffffffffffffffffff169050816000806101000a81548173ffffffffffffffffffffffffffffffffffffffff021916908373ffffffffffffffffffffffffffffffffffffffff1602179055508173ffffffffffffffffffffffffffffffffffffffff168173ffffffffffffffffffffffffffffffffffffffff167f8be0079c531659141344cd1fd0a4f28419497f9722a3daafe3b4186f6b6457e060405160405180910390a35050565b600080fd5b600073ffffffffffffffffffffffffffffffffffffffff82169050919050565b60006101af82610184565b9050919050565b6101bf816101a4565b81146101ca57600080fd5b50565b6000815190506101dc816101b6565b92915050565b6000602082840312156101f8576101f761017f565b5b6000610206848285016101cd565b91505092915050565b610218816101a4565b82525050565b6000602082019050610233600083018461020f565b92915050565b61274c806102486000396000f3fe608060405234801561001057600080fd5b50600436106100575760003560e01c80635b3fde961461005c578063715018a6146100785780638da5cb5b14610082578063f2fde38b146100a0578063fb2b2b5a146100bc575b600080fd5b61007660048036038101906100719190610896565b6100d8565b005b6100806100e6565b005b61008a6100fa565b6040516100979190610901565b60405180910390f35b6100ba60048036038101906100b5919061091c565b610123565b005b6100d660048036038101906100d19190610a7b565b6101a9565b005b6100e282826101b7565b5050565b6100ee610276565b6100f860006102fd565b565b60008060009054906101000a900473ffffffffffffffffffffffffffffffffffffffff16905090565b61012b610276565b600073ffffffffffffffffffffffffffffffffffffffff168173ffffffffffffffffffffffffffffffffffffffff160361019d5760006040517f1e4fbdf70000000000000000000000000000000000000000000000000000000081526004016101949190610901565b60405180910390fd5b6101a6816102fd565b50565b6101b382826103c1565b5050565b60008282306040516101c890610632565b6101d493929190610b9a565b604051809103906000f0801580156101f0573d6000803e3d6000fd5b50905080600660008473ffffffffffffffffffffffffffffffffffffffff1673ffffffffffffffffffffffffffffffffffffffff16815260200190815260200160002060006101000a81548173ffffffffffffffffffffffffffffffffffffffff021916908373ffffffffffffffffffffffffffffffffffffffff160217905550505050565b61027e61062a565b73ffffffffffffffffffffffffffffffffffffffff1661029c6100fa565b73ffffffffffffffffffffffffffffffffffffffff16146102fb576102bf61062a565b6040517f118cdaa70000000000000000000000000000000000000000000000000000000081526004016102f29190610901565b60405180910390fd5b565b60008060009054906101000a900473ffffffffffffffffffffffffffffffffffffffff169050816000806101000a81548173ffffffffffffffffffffffffffffffffffffffff021916908373ffffffffffffffffffffffffffffffffffffffff1602179055508173ffffffffffffffffffffffffffffffffffffffff168173ffffffffffffffffffffffffffffffffffffffff167f8be0079c531659141344cd1fd0a4f28419497f9722a3daafe3b4186f6b6457e060405160405180910390a35050565b600082306040516103d19061063f565b6103dc929190610c72565b604051809103906000f0801580156103f8573d6000803e3d6000fd5b5090506001820361046a576001600401819080600181540180825580915050600190039060005260206000200160009091909190916101000a81548173ffffffffffffffffffffffffffffffffffffffff021916908373ffffffffffffffffffffffffffffffffffffffff1602179055505b600282036104d9576001600301819080600181540180825580915050600190039060005260206000200160009091909190916101000a81548173ffffffffffffffffffffffffffffffffffffffff021916908373ffffffffffffffffffffffffffffffffffffffff1602179055505b60038203610548576001600201819080600181540180825580915050600190039060005260206000200160009091909190916101000a81548173ffffffffffffffffffffffffffffffffffffffff021916908373ffffffffffffffffffffffffffffffffffffffff1602179055505b600482036105b65760018001819080600181540180825580915050600190039060005260206000200160009091909190916101000a81548173ffffffffffffffffffffffffffffffffffffffff021916908373ffffffffffffffffffffffffffffffffffffffff1602179055505b60058203610625576001600001819080600181540180825580915050600190039060005260206000200160009091909190916101000a81548173ffffffffffffffffffffffffffffffffffffffff021916908373ffffffffffffffffffffffffffffffffffffffff1602179055505b505050565b600033905090565b610e5b80610ca383390190565b610c1980611afe83390190565b6000604051905090565b600080fd5b600080fd5b600080fd5b6000601f19601f8301169050919050565b7f4e487b7100000000000000000000000000000000000000000000000000000000600052604160045260246000fd5b6106ae82610665565b810181811067ffffffffffffffff821117156106cd576106cc610676565b5b80604052505050565b60006106e061064c565b90506106ec82826106a5565b919050565b600080fd5b600080fd5b600080fd5b600067ffffffffffffffff82111561071b5761071a610676565b5b61072482610665565b9050602081019050919050565b82818337600083830152505050565b600061075361074e84610700565b6106d6565b90508281526020810184848401111561076f5761076e6106fb565b5b61077a848285610731565b509392505050565b600082601f830112610797576107966106f6565b5b81356107a7848260208601610740565b91505092915050565b6000604082840312156107c6576107c5610660565b5b6107d060406106d6565b9050600082013567ffffffffffffffff8111156107f0576107ef6106f1565b5b6107fc84828501610782565b600083015250602082013567ffffffffffffffff8111156108205761081f6106f1565b5b61082c84828501610782565b60208301525092915050565b600073ffffffffffffffffffffffffffffffffffffffff82169050919050565b600061086382610838565b9050919050565b61087381610858565b811461087e57600080fd5b50565b6000813590506108908161086a565b92915050565b600080604083850312156108ad576108ac610656565b5b600083013567ffffffffffffffff8111156108cb576108ca61065b565b5b6108d7858286016107b0565b92505060206108e885828601610881565b9150509250929050565b6108fb81610858565b82525050565b600060208201905061091660008301846108f2565b92915050565b60006020828403121561093257610931610656565b5b600061094084828501610881565b91505092915050565b6000819050919050565b61095c81610949565b811461096757600080fd5b50565b60008135905061097981610953565b92915050565b600060a0828403121561099557610994610660565b5b61099f60a06106d6565b9050600082013567ffffffffffffffff8111156109bf576109be6106f1565b5b6109cb84828501610782565b600083015250602082013567ffffffffffffffff8111156109ef576109ee6106f1565b5b6109fb84828501610782565b602083015250604082013567ffffffffffffffff811115610a1f57610a1e6106f1565b5b610a2b84828501610782565b604083015250606082013567ffffffffffffffff811115610a4f57610a4e6106f1565b5b610a5b84828501610782565b6060830152506080610a6f8482850161096a565b60808301525092915050565b60008060408385031215610a9257610a91610656565b5b600083013567ffffffffffffffff811115610ab057610aaf61065b565b5b610abc8582860161097f565b9250506020610acd8582860161096a565b9150509250929050565b600081519050919050565b600082825260208201905092915050565b60005b83811015610b11578082015181840152602081019050610af6565b60008484015250505050565b6000610b2882610ad7565b610b328185610ae2565b9350610b42818560208601610af3565b610b4b81610665565b840191505092915050565b60006040830160008301518482036000860152610b738282610b1d565b91505060208301518482036020860152610b8d8282610b1d565b9150508091505092915050565b60006060820190508181036000830152610bb48186610b56565b9050610bc360208301856108f2565b610bd060408301846108f2565b949350505050565b610be181610949565b82525050565b600060a0830160008301518482036000860152610c048282610b1d565b91505060208301518482036020860152610c1e8282610b1d565b91505060408301518482036040860152610c388282610b1d565b91505060608301518482036060860152610c528282610b1d565b9150506080830151610c676080860182610bd8565b508091505092915050565b60006040820190508181036000830152610c8c8185610be7565b9050610c9b60208301846108f2565b939250505056fe608060405234801561001057600080fd5b50604051610e5b380380610e5b83398181016040528101906100329190610459565b81600073ffffffffffffffffffffffffffffffffffffffff168173ffffffffffffffffffffffffffffffffffffffff16036100a55760006040517f1e4fbdf700000000000000000000000000000000000000000000000000000000815260040161009c91906104d7565b60405180910390fd5b6100b48161013060201b60201c565b5082600160008201518160000190816100cd9190610713565b5060208201518160010190816100e39190610713565b5090505080600360006101000a81548173ffffffffffffffffffffffffffffffffffffffff021916908373ffffffffffffffffffffffffffffffffffffffff1602179055505050506107e5565b60008060009054906101000a900473ffffffffffffffffffffffffffffffffffffffff169050816000806101000a81548173ffffffffffffffffffffffffffffffffffffffff021916908373ffffffffffffffffffffffffffffffffffffffff1602179055508173ffffffffffffffffffffffffffffffffffffffff168173ffffffffffffffffffffffffffffffffffffffff167f8be0079c531659141344cd1fd0a4f28419497f9722a3daafe3b4186f6b6457e060405160405180910390a35050565b6000604051905090565b600080fd5b600080fd5b600080fd5b6000601f19601f8301169050919050565b7f4e487b7100000000000000000000000000000000000000000000000000000000600052604160045260246000fd5b6102568261020d565b810181811067ffffffffffffffff821117156102755761027461021e565b5b80604052505050565b60006102886101f4565b9050610294828261024d565b919050565b600080fd5b600080fd5b600080fd5b600067ffffffffffffffff8211156102c3576102c261021e565b5b6102cc8261020d565b9050602081019050919050565b60005b838110156102f75780820151818401526020810190506102dc565b60008484015250505050565b6000610316610311846102a8565b61027e565b905082815260208101848484011115610332576103316102a3565b5b61033d8482856102d9565b509392505050565b600082601f83011261035a5761035961029e565b5b815161036a848260208601610303565b91505092915050565b60006040828403121561038957610388610208565b5b610393604061027e565b9050600082015167ffffffffffffffff8111156103b3576103b2610299565b5b6103bf84828501610345565b600083015250602082015167ffffffffffffffff8111156103e3576103e2610299565b5b6103ef84828501610345565b60208301525092915050565b600073ffffffffffffffffffffffffffffffffffffffff82169050919050565b6000610426826103fb565b9050919050565b6104368161041b565b811461044157600080fd5b50565b6000815190506104538161042d565b92915050565b600080600060608486031215610472576104716101fe565b5b600084015167ffffffffffffffff8111156104905761048f610203565b5b61049c86828701610373565b93505060206104ad86828701610444565b92505060406104be86828701610444565b9150509250925092565b6104d18161041b565b82525050565b60006020820190506104ec60008301846104c8565b92915050565b600081519050919050565b7f4e487b7100000000000000000000000000000000000000000000000000000000600052602260045260246000fd5b6000600282049050600182168061054457607f821691505b602082108103610557576105566104fd565b5b50919050565b60008190508160005260206000209050919050565b60006020601f8301049050919050565b600082821b905092915050565b6000600883026105bf7fffffffffffffffffffffffffffffffffffffffffffffffffffffffffffffffff82610582565b6105c98683610582565b95508019841693508086168417925050509392505050565b6000819050919050565b6000819050919050565b600061061061060b610606846105e1565b6105eb565b6105e1565b9050919050565b6000819050919050565b61062a836105f5565b61063e61063682610617565b84845461058f565b825550505050565b600090565b610653610646565b61065e818484610621565b505050565b5b818110156106825761067760008261064b565b600181019050610664565b5050565b601f8211156106c7576106988161055d565b6106a184610572565b810160208510156106b0578190505b6106c46106bc85610572565b830182610663565b50505b505050565b600082821c905092915050565b60006106ea600019846008026106cc565b1980831691505092915050565b600061070383836106d9565b9150826002028217905092915050565b61071c826104f2565b67ffffffffffffffff8111156107355761073461021e565b5b61073f825461052c565b61074a828285610686565b600060209050601f83116001811461077d576000841561076b578287015190505b61077585826106f7565b8655506107dd565b601f19841661078b8661055d565b60005b828110156107b35784890151825560018201915060208501945060208101905061078e565b868310156107d057848901516107cc601f8916826106d9565b8355505b6001600288020188555050505b505050505050565b610667806107f46000396000f3fe608060405234801561001057600080fd5b506004361061004c5760003560e01c80631fb662e614610051578063715018a61461006f5780638da5cb5b14610079578063f2fde38b14610097575b600080fd5b6100596100b3565b60405161006691906104f5565b60405180910390f35b6100776101f1565b005b610081610205565b60405161008e9190610558565b60405180910390f35b6100b160048036038101906100ac91906105a4565b61022e565b005b6100bb610407565b60016040518060400160405290816000820180546100d890610600565b80601f016020809104026020016040519081016040528092919081815260200182805461010490610600565b80156101515780601f1061012657610100808354040283529160200191610151565b820191906000526020600020905b81548152906001019060200180831161013457829003601f168201915b5050505050815260200160018201805461016a90610600565b80601f016020809104026020016040519081016040528092919081815260200182805461019690610600565b80156101e35780601f106101b8576101008083540402835291602001916101e3565b820191906000526020600020905b8154815290600101906020018083116101c657829003601f168201915b505050505081525050905090565b6101f96102b4565b610203600061033b565b565b60008060009054906101000a900473ffffffffffffffffffffffffffffffffffffffff16905090565b6102366102b4565b600073ffffffffffffffffffffffffffffffffffffffff168173ffffffffffffffffffffffffffffffffffffffff16036102a85760006040517f1e4fbdf700000000000000000000000000000000000000000000000000000000815260040161029f9190610558565b60405180910390fd5b6102b18161033b565b50565b6102bc6103ff565b73ffffffffffffffffffffffffffffffffffffffff166102da610205565b73ffffffffffffffffffffffffffffffffffffffff1614610339576102fd6103ff565b6040517f118cdaa70000000000000000000000000000000000000000000000000000000081526004016103309190610558565b60405180910390fd5b565b60008060009054906101000a900473ffffffffffffffffffffffffffffffffffffffff169050816000806101000a81548173ffffffffffffffffffffffffffffffffffffffff021916908373ffffffffffffffffffffffffffffffffffffffff1602179055508173ffffffffffffffffffffffffffffffffffffffff168173ffffffffffffffffffffffffffffffffffffffff167f8be0079c531659141344cd1fd0a4f28419497f9722a3daafe3b4186f6b6457e060405160405180910390a35050565b600033905090565b604051806040016040528060608152602001606081525090565b600081519050919050565b600082825260208201905092915050565b60005b8381101561045b578082015181840152602081019050610440565b60008484015250505050565b6000601f19601f8301169050919050565b600061048382610421565b61048d818561042c565b935061049d81856020860161043d565b6104a681610467565b840191505092915050565b600060408301600083015184820360008601526104ce8282610478565b915050602083015184820360208601526104e88282610478565b9150508091505092915050565b6000602082019050818103600083015261050f81846104b1565b905092915050565b600073ffffffffffffffffffffffffffffffffffffffff82169050919050565b600061054282610517565b9050919050565b61055281610537565b82525050565b600060208201905061056d6000830184610549565b92915050565b600080fd5b61058181610537565b811461058c57600080fd5b50565b60008135905061059e81610578565b92915050565b6000602082840312156105ba576105b9610573565b5b60006105c88482850161058f565b91505092915050565b7f4e487b7100000000000000000000000000000000000000000000000000000000600052602260045260246000fd5b6000600282049050600182168061061857607f821691505b60208210810361062b5761062a6105d1565b5b5091905056fea2646970667358221220523372d585ed5d8463e5886c7a7c0ef6f025a507af0567ac1a881d662f987d0464736f6c634300081b0033608060405234801561001057600080fd5b50604051610c19380380610c19833981810160405281019061003291906103f0565b816000808201518160000190816100499190610663565b50602082015181600101908161005f9190610663565b5060408201518160020190816100759190610663565b50606082015181600301908161008b9190610663565b506080820151816004015590505080600560006101000a81548173ffffffffffffffffffffffffffffffffffffffff021916908373ffffffffffffffffffffffffffffffffffffffff1602179055505050610735565b6000604051905090565b600080fd5b600080fd5b600080fd5b6000601f19601f8301169050919050565b7f4e487b7100000000000000000000000000000000000000000000000000000000600052604160045260246000fd5b610143826100fa565b810181811067ffffffffffffffff821117156101625761016161010b565b5b80604052505050565b60006101756100e1565b9050610181828261013a565b919050565b600080fd5b600080fd5b600080fd5b600067ffffffffffffffff8211156101b0576101af61010b565b5b6101b9826100fa565b9050602081019050919050565b60005b838110156101e45780820151818401526020810190506101c9565b60008484015250505050565b60006102036101fe84610195565b61016b565b90508281526020810184848401111561021f5761021e610190565b5b61022a8482856101c6565b509392505050565b600082601f8301126102475761024661018b565b5b81516102578482602086016101f0565b91505092915050565b6000819050919050565b61027381610260565b811461027e57600080fd5b50565b6000815190506102908161026a565b92915050565b600060a082840312156102ac576102ab6100f5565b5b6102b660a061016b565b9050600082015167ffffffffffffffff8111156102d6576102d5610186565b5b6102e284828501610232565b600083015250602082015167ffffffffffffffff81111561030657610305610186565b5b61031284828501610232565b602083015250604082015167ffffffffffffffff81111561033657610335610186565b5b61034284828501610232565b604083015250606082015167ffffffffffffffff81111561036657610365610186565b5b61037284828501610232565b606083015250608061038684828501610281565b60808301525092915050565b600073ffffffffffffffffffffffffffffffffffffffff82169050919050565b60006103bd82610392565b9050919050565b6103cd816103b2565b81146103d857600080fd5b50565b6000815190506103ea816103c4565b92915050565b60008060408385031215610407576104066100eb565b5b600083015167ffffffffffffffff811115610425576104246100f0565b5b61043185828601610296565b9250506020610442858286016103db565b9150509250929050565b600081519050919050565b7f4e487b7100000000000000000000000000000000000000000000000000000000600052602260045260246000fd5b6000600282049050600182168061049e57607f821691505b6020821081036104b1576104b0610457565b5b50919050565b60008190508160005260206000209050919050565b60006020601f8301049050919050565b600082821b905092915050565b6000600883026105197fffffffffffffffffffffffffffffffffffffffffffffffffffffffffffffffff826104dc565b61052386836104dc565b95508019841693508086168417925050509392505050565b6000819050919050565b600061056061055b61055684610260565b61053b565b610260565b9050919050565b6000819050919050565b61057a83610545565b61058e61058682610567565b8484546104e9565b825550505050565b600090565b6105a3610596565b6105ae818484610571565b505050565b5b818110156105d2576105c760008261059b565b6001810190506105b4565b5050565b601f821115610617576105e8816104b7565b6105f1846104cc565b81016020851015610600578190505b61061461060c856104cc565b8301826105b3565b50505b505050565b600082821c905092915050565b600061063a6000198460080261061c565b1980831691505092915050565b60006106538383610629565b9150826002028217905092915050565b61066c8261044c565b67ffffffffffffffff8111156106855761068461010b565b5b61068f8254610486565b61069a8282856105d6565b600060209050601f8311600181146106cd57600084156106bb578287015190505b6106c58582610647565b86555061072d565b601f1984166106db866104b7565b60005b82811015610703578489015182556001820191506020850194506020810190506106de565b86831015610720578489015161071c601f891682610629565b8355505b6001600288020188555050505b505050505050565b6104d5806107446000396000f3fe608060405234801561001057600080fd5b506004361061002b5760003560e01c806373e55b2f14610030575b600080fd5b61003861004e565b604051610045919061041d565b60405180910390f35b6100566102ba565b60006040518060a00160405290816000820180546100739061046e565b80601f016020809104026020016040519081016040528092919081815260200182805461009f9061046e565b80156100ec5780601f106100c1576101008083540402835291602001916100ec565b820191906000526020600020905b8154815290600101906020018083116100cf57829003601f168201915b505050505081526020016001820180546101059061046e565b80601f01602080910402602001604051908101604052809291908181526020018280546101319061046e565b801561017e5780601f106101535761010080835404028352916020019161017e565b820191906000526020600020905b81548152906001019060200180831161016157829003601f168201915b505050505081526020016002820180546101979061046e565b80601f01602080910402602001604051908101604052809291908181526020018280546101c39061046e565b80156102105780601f106101e557610100808354040283529160200191610210565b820191906000526020600020905b8154815290600101906020018083116101f357829003601f168201915b505050505081526020016003820180546102299061046e565b80601f01602080910402602001604051908101604052809291908181526020018280546102559061046e565b80156102a25780601f10610277576101008083540402835291602001916102a2565b820191906000526020600020905b81548152906001019060200180831161028557829003601f168201915b50505050508152602001600482015481525050905090565b6040518060a0016040528060608152602001606081526020016060815260200160608152602001600081525090565b600081519050919050565b600082825260208201905092915050565b60005b83811015610323578082015181840152602081019050610308565b60008484015250505050565b6000601f19601f8301169050919050565b600061034b826102e9565b61035581856102f4565b9350610365818560208601610305565b61036e8161032f565b840191505092915050565b6000819050919050565b61038c81610379565b82525050565b600060a08301600083015184820360008601526103af8282610340565b915050602083015184820360208601526103c98282610340565b915050604083015184820360408601526103e38282610340565b915050606083015184820360608601526103fd8282610340565b91505060808301516104126080860182610383565b508091505092915050565b600060208201905081810360008301526104378184610392565b905092915050565b7f4e487b7100000000000000000000000000000000000000000000000000000000600052602260045260246000fd5b6000600282049050600182168061048657607f821691505b6020821081036104995761049861043f565b5b5091905056fea26469706673582212202e7e711036e0251b87918351982e852d40c1650efc22da8f28208b1e781ca30364736f6c634300081b0033a2646970667358221220b6f5297f584ca7f3b984552ec65888497a3a1e25e3397150190e3a238f7681fa64736f6c634300081b0033",
  "linkReferences": {},
  "deployedLinkReferences": {}
}