{
  "_format": "hh-sol-artifact-1",
  "contractName": "urna",
  "sourceName": "contracts/Urna.sol",
  "abi": [
    {
      "inputs": [],
      "stateMutability": "nonpayable",
      "type": "constructor"
    },
    {
      "inputs": [
        {
          "internalType": "uint256",
          "name": "",
          "type": "uint256"
        }
      ],
      "name": "electors",
      "outputs": [
        {
          "internalType": "contract elector",
          "name": "",
          "type": "address"
        }
      ],
      "stateMutability": "view",
      "type": "function"
    },
    {
      "inputs": [
        {
          "internalType": "uint256",
          "name": "",
          "type": "uint256"
        }
      ],
      "name": "federalDeputies",
      "outputs": [
        {
          "internalType": "contract candidate",
          "name": "",
          "type": "address"
        }
      ],
      "stateMutability": "view",
      "type": "function"
    },
    {
      "inputs": [
        {
          "internalType": "uint256",
          "name": "",
          "type": "uint256"
        }
      ],
      "name": "governors",
      "outputs": [
        {
          "internalType": "contract candidate",
          "name": "",
          "type": "address"
        }
      ],
      "stateMutability": "view",
      "type": "function"
    },
    {
      "inputs": [
        {
          "internalType": "string",
          "name": "_name",
          "type": "string"
        },
        {
          "internalType": "string",
          "name": "_describe",
          "type": "string"
        },
        {
          "internalType": "string",
          "name": "_candidatePhoto",
          "type": "string"
        },
        {
          "internalType": "string",
          "name": "_politicalPartyName",
          "type": "string"
        },
        {
          "internalType": "uint256",
          "name": "_politicalPartyNumber",
          "type": "uint256"
        }
      ],
      "name": "newCandidateFederalDeputie",
      "outputs": [],
      "stateMutability": "nonpayable",
      "type": "function"
    },
    {
      "inputs": [
        {
          "internalType": "string",
          "name": "_name",
          "type": "string"
        },
        {
          "internalType": "string",
          "name": "_describe",
          "type": "string"
        },
        {
          "internalType": "string",
          "name": "_candidatePhoto",
          "type": "string"
        },
        {
          "internalType": "string",
          "name": "_politicalPartyName",
          "type": "string"
        },
        {
          "internalType": "uint256",
          "name": "_politicalPartyNumber",
          "type": "uint256"
        }
      ],
      "name": "newCandidateGovernor",
      "outputs": [],
      "stateMutability": "nonpayable",
      "type": "function"
    },
    {
      "inputs": [
        {
          "internalType": "string",
          "name": "_name",
          "type": "string"
        },
        {
          "internalType": "string",
          "name": "_describe",
          "type": "string"
        },
        {
          "internalType": "string",
          "name": "_candidatePhoto",
          "type": "string"
        },
        {
          "internalType": "string",
          "name": "_politicalPartyName",
          "type": "string"
        },
        {
          "internalType": "uint256",
          "name": "_politicalPartyNumber",
          "type": "uint256"
        }
      ],
      "name": "newCandidatePresident",
      "outputs": [],
      "stateMutability": "nonpayable",
      "type": "function"
    },
    {
      "inputs": [
        {
          "internalType": "string",
          "name": "_name",
          "type": "string"
        },
        {
          "internalType": "string",
          "name": "_describe",
          "type": "string"
        },
        {
          "internalType": "string",
          "name": "_candidatePhoto",
          "type": "string"
        },
        {
          "internalType": "string",
          "name": "_politicalPartyName",
          "type": "string"
        },
        {
          "internalType": "uint256",
          "name": "_politicalPartyNumber",
          "type": "uint256"
        }
      ],
      "name": "newCandidateSenator",
      "outputs": [],
      "stateMutability": "nonpayable",
      "type": "function"
    },
    {
      "inputs": [
        {
          "internalType": "string",
          "name": "_name",
          "type": "string"
        },
        {
          "internalType": "string",
          "name": "_describe",
          "type": "string"
        },
        {
          "internalType": "string",
          "name": "_candidatePhoto",
          "type": "string"
        },
        {
          "internalType": "string",
          "name": "_politicalPartyName",
          "type": "string"
        },
        {
          "internalType": "uint256",
          "name": "_politicalPartyNumber",
          "type": "uint256"
        }
      ],
      "name": "newCandidateStateDeputie",
      "outputs": [],
      "stateMutability": "nonpayable",
      "type": "function"
    },
    {
      "inputs": [
        {
          "internalType": "string",
          "name": "_name",
          "type": "string"
        },
        {
          "internalType": "string",
          "name": "_cpf",
          "type": "string"
        },
        {
          "internalType": "address",
          "name": "_owner",
          "type": "address"
        }
      ],
      "name": "newElector",
      "outputs": [],
      "stateMutability": "nonpayable",
      "type": "function"
    },
    {
      "inputs": [
        {
          "internalType": "uint256",
          "name": "",
          "type": "uint256"
        }
      ],
      "name": "presidents",
      "outputs": [
        {
          "internalType": "contract candidate",
          "name": "",
          "type": "address"
        }
      ],
      "stateMutability": "view",
      "type": "function"
    },
    {
      "inputs": [
        {
          "internalType": "contract elector",
          "name": "_address",
          "type": "address"
        }
      ],
      "name": "returnElectorPerm",
      "outputs": [
        {
          "internalType": "bool",
          "name": "",
          "type": "bool"
        }
      ],
      "stateMutability": "view",
      "type": "function"
    },
    {
      "inputs": [
        {
          "internalType": "uint256",
          "name": "",
          "type": "uint256"
        }
      ],
      "name": "senators",
      "outputs": [
        {
          "internalType": "contract candidate",
          "name": "",
          "type": "address"
        }
      ],
      "stateMutability": "view",
      "type": "function"
    },
    {
      "inputs": [
        {
          "internalType": "uint256",
          "name": "",
          "type": "uint256"
        }
      ],
      "name": "stateDeputies",
      "outputs": [
        {
          "internalType": "contract candidate",
          "name": "",
          "type": "address"
        }
      ],
      "stateMutability": "view",
      "type": "function"
    },
    {
      "inputs": [],
      "name": "viewCandidatesFederalDeputies",
      "outputs": [
        {
          "internalType": "contract candidate[]",
          "name": "",
          "type": "address[]"
        }
      ],
      "stateMutability": "view",
      "type": "function"
    },
    {
      "inputs": [],
      "name": "viewCandidatesGovernors",
      "outputs": [
        {
          "internalType": "contract candidate[]",
          "name": "",
          "type": "address[]"
        }
      ],
      "stateMutability": "view",
      "type": "function"
    },
    {
      "inputs": [],
      "name": "viewCandidatesPresidents",
      "outputs": [
        {
          "internalType": "contract candidate[]",
          "name": "",
          "type": "address[]"
        }
      ],
      "stateMutability": "view",
      "type": "function"
    },
    {
      "inputs": [],
      "name": "viewCandidatesSenators",
      "outputs": [
        {
          "internalType": "contract candidate[]",
          "name": "",
          "type": "address[]"
        }
      ],
      "stateMutability": "view",
      "type": "function"
    },
    {
      "inputs": [],
      "name": "viewCandidatesStateDeputies",
      "outputs": [
        {
          "internalType": "contract candidate[]",
          "name": "",
          "type": "address[]"
        }
      ],
      "stateMutability": "view",
      "type": "function"
    },
    {
      "inputs": [],
      "name": "viewElectors",
      "outputs": [
        {
          "internalType": "contract elector[]",
          "name": "",
          "type": "address[]"
        }
      ],
      "stateMutability": "view",
      "type": "function"
    }
  ],
  "bytecode": "0x608060405234801561001057600080fd5b5033600860006101000a81548173ffffffffffffffffffffffffffffffffffffffff021916908373ffffffffffffffffffffffffffffffffffffffff160217905550614d9e806100616000396000f3fe60806040523480156200001157600080fd5b50600436106200013c5760003560e01c8063863d260311620000bd578063b39138a3116200007b578063b39138a314620003a1578063b5295aa414620003c1578063c23b3ccc14620003e3578063d5db3fa61462000403578063f989755d1462000425576200013c565b8063863d260314620002bd5780638a2e0fc414620002df578063a22c7aff14620002ff578063a7277b001462000335578063ac9b9230146200036b576200013c565b8063540012c8116200010b578063540012c8146200020357806367fb30dd14620002235780636e9a7d4d1462000245578063818c59a11462000265578063856ebb061462000287576200013c565b8063035d359614620001415780631372d26514620001615780634ddc4e861462000197578063539be77614620001cd575b600080fd5b6200015f6004803603810190620001599190620013e2565b62000447565b005b6200017f6004803603810190620001799190620014e6565b6200058c565b6040516200018e9190620015a3565b60405180910390f35b620001b56004803603810190620001af919062001619565b620005cc565b604051620001c4919062001668565b60405180910390f35b620001eb6004803603810190620001e59190620014e6565b62000622565b604051620001fa9190620015a3565b60405180910390f35b6200022160048036038101906200021b9190620013e2565b62000662565b005b6200022d620007a7565b6040516200023c919062001753565b60405180910390f35b6200026360048036038101906200025d9190620013e2565b62000837565b005b6200026f6200097c565b6040516200027e919062001753565b60405180910390f35b620002a560048036038101906200029f9190620014e6565b62000a0c565b604051620002b49190620015a3565b60405180910390f35b620002c762000a4c565b604051620002d6919062001753565b60405180910390f35b620002fd6004803603810190620002f79190620017a8565b62000adc565b005b6200031d6004803603810190620003179190620014e6565b62000d1b565b6040516200032c9190620015a3565b60405180910390f35b6200035360048036038101906200034d9190620014e6565b62000d5b565b604051620003629190620015a3565b60405180910390f35b620003896004803603810190620003839190620014e6565b62000d9b565b60405162000398919062001867565b60405180910390f35b620003bf6004803603810190620003b99190620013e2565b62000ddb565b005b620003cb62000f20565b604051620003da919062001753565b60405180910390f35b620004016004803603810190620003fb9190620013e2565b62000fb0565b005b6200040d620010f5565b6040516200041c919062001941565b60405180910390f35b6200042f62001185565b6040516200043e919062001753565b60405180910390f35b600860009054906101000a900473ffffffffffffffffffffffffffffffffffffffff1673ffffffffffffffffffffffffffffffffffffffff163373ffffffffffffffffffffffffffffffffffffffff1614620004da576040517f08c379a0000000000000000000000000000000000000000000000000000000008152600401620004d190620019c6565b60405180910390fd5b6000858585858530604051620004f09062001215565b620005019695949392919062001ad2565b604051809103906000f0801580156200051e573d6000803e3d6000fd5b5090506004819080600181540180825580915050600190039060005260206000200160009091909190916101000a81548173ffffffffffffffffffffffffffffffffffffffff021916908373ffffffffffffffffffffffffffffffffffffffff160217905550505050505050565b600081815481106200059d57600080fd5b906000526020600020016000915054906101000a900473ffffffffffffffffffffffffffffffffffffffff1681565b6000600660008373ffffffffffffffffffffffffffffffffffffffff1673ffffffffffffffffffffffffffffffffffffffff16815260200190815260200160002060009054906101000a900460ff169050919050565b600181815481106200063357600080fd5b906000526020600020016000915054906101000a900473ffffffffffffffffffffffffffffffffffffffff1681565b600860009054906101000a900473ffffffffffffffffffffffffffffffffffffffff1673ffffffffffffffffffffffffffffffffffffffff163373ffffffffffffffffffffffffffffffffffffffff1614620006f5576040517f08c379a0000000000000000000000000000000000000000000000000000000008152600401620006ec90620019c6565b60405180910390fd5b60008585858585306040516200070b9062001215565b6200071c9695949392919062001bc0565b604051809103906000f08015801562000739573d6000803e3d6000fd5b5090506000819080600181540180825580915050600190039060005260206000200160009091909190916101000a81548173ffffffffffffffffffffffffffffffffffffffff021916908373ffffffffffffffffffffffffffffffffffffffff160217905550505050505050565b606060008054806020026020016040519081016040528092919081815260200182805480156200082d57602002820191906000526020600020905b8160009054906101000a900473ffffffffffffffffffffffffffffffffffffffff1673ffffffffffffffffffffffffffffffffffffffff1681526020019060010190808311620007e2575b5050505050905090565b600860009054906101000a900473ffffffffffffffffffffffffffffffffffffffff1673ffffffffffffffffffffffffffffffffffffffff163373ffffffffffffffffffffffffffffffffffffffff1614620008ca576040517f08c379a0000000000000000000000000000000000000000000000000000000008152600401620008c190620019c6565b60405180910390fd5b6000858585858530604051620008e09062001215565b620008f19695949392919062001cae565b604051809103906000f0801580156200090e573d6000803e3d6000fd5b5090506003819080600181540180825580915050600190039060005260206000200160009091909190916101000a81548173ffffffffffffffffffffffffffffffffffffffff021916908373ffffffffffffffffffffffffffffffffffffffff160217905550505050505050565b6060600380548060200260200160405190810160405280929190818152602001828054801562000a0257602002820191906000526020600020905b8160009054906101000a900473ffffffffffffffffffffffffffffffffffffffff1673ffffffffffffffffffffffffffffffffffffffff1681526020019060010190808311620009b7575b5050505050905090565b6002818154811062000a1d57600080fd5b906000526020600020016000915054906101000a900473ffffffffffffffffffffffffffffffffffffffff1681565b6060600280548060200260200160405190810160405280929190818152602001828054801562000ad257602002820191906000526020600020905b8160009054906101000a900473ffffffffffffffffffffffffffffffffffffffff1673ffffffffffffffffffffffffffffffffffffffff168152602001906001019080831162000a87575b5050505050905090565b600860009054906101000a900473ffffffffffffffffffffffffffffffffffffffff1673ffffffffffffffffffffffffffffffffffffffff163373ffffffffffffffffffffffffffffffffffffffff161462000b6f576040517f08c379a000000000000000000000000000000000000000000000000000000000815260040162000b6690620019c6565b60405180910390fd5b60078260405162000b81919062001d8e565b908152602001604051809103902060009054906101000a900460ff161562000be0576040517f08c379a000000000000000000000000000000000000000000000000000000000815260040162000bd79062001df7565b60405180910390fd5b600160078360405162000bf4919062001d8e565b908152602001604051809103902060006101000a81548160ff021916908315150217905550600083838360405162000c2c9062001223565b62000c3a9392919062001e19565b604051809103906000f08015801562000c57573d6000803e3d6000fd5b5090506001600660008373ffffffffffffffffffffffffffffffffffffffff1673ffffffffffffffffffffffffffffffffffffffff16815260200190815260200160002060006101000a81548160ff0219169083151502179055506005819080600181540180825580915050600190039060005260206000200160009091909190916101000a81548173ffffffffffffffffffffffffffffffffffffffff021916908373ffffffffffffffffffffffffffffffffffffffff16021790555050505050565b6004818154811062000d2c57600080fd5b906000526020600020016000915054906101000a900473ffffffffffffffffffffffffffffffffffffffff1681565b6003818154811062000d6c57600080fd5b906000526020600020016000915054906101000a900473ffffffffffffffffffffffffffffffffffffffff1681565b6005818154811062000dac57600080fd5b906000526020600020016000915054906101000a900473ffffffffffffffffffffffffffffffffffffffff1681565b600860009054906101000a900473ffffffffffffffffffffffffffffffffffffffff1673ffffffffffffffffffffffffffffffffffffffff163373ffffffffffffffffffffffffffffffffffffffff161462000e6e576040517f08c379a000000000000000000000000000000000000000000000000000000000815260040162000e6590620019c6565b60405180910390fd5b600085858585853060405162000e849062001215565b62000e959695949392919062001eb4565b604051809103906000f08015801562000eb2573d6000803e3d6000fd5b5090506002819080600181540180825580915050600190039060005260206000200160009091909190916101000a81548173ffffffffffffffffffffffffffffffffffffffff021916908373ffffffffffffffffffffffffffffffffffffffff160217905550505050505050565b6060600180548060200260200160405190810160405280929190818152602001828054801562000fa657602002820191906000526020600020905b8160009054906101000a900473ffffffffffffffffffffffffffffffffffffffff1673ffffffffffffffffffffffffffffffffffffffff168152602001906001019080831162000f5b575b5050505050905090565b600860009054906101000a900473ffffffffffffffffffffffffffffffffffffffff1673ffffffffffffffffffffffffffffffffffffffff163373ffffffffffffffffffffffffffffffffffffffff161462001043576040517f08c379a00000000000000000000000000000000000000000000000000000000081526004016200103a90620019c6565b60405180910390fd5b6000858585858530604051620010599062001215565b6200106a9695949392919062001fa2565b604051809103906000f08015801562001087573d6000803e3d6000fd5b5090506001819080600181540180825580915050600190039060005260206000200160009091909190916101000a81548173ffffffffffffffffffffffffffffffffffffffff021916908373ffffffffffffffffffffffffffffffffffffffff160217905550505050505050565b606060058054806020026020016040519081016040528092919081815260200182805480156200117b57602002820191906000526020600020905b8160009054906101000a900473ffffffffffffffffffffffffffffffffffffffff1673ffffffffffffffffffffffffffffffffffffffff168152602001906001019080831162001130575b5050505050905090565b606060048054806020026020016040519081016040528092919081815260200182805480156200120b57602002820191906000526020600020905b8160009054906101000a900473ffffffffffffffffffffffffffffffffffffffff1673ffffffffffffffffffffffffffffffffffffffff1681526020019060010190808311620011c0575b5050505050905090565b6111f9806200204183390190565b611b2f806200323a83390190565b6000604051905090565b600080fd5b600080fd5b600080fd5b600080fd5b6000601f19601f8301169050919050565b7f4e487b7100000000000000000000000000000000000000000000000000000000600052604160045260246000fd5b6200129a826200124f565b810181811067ffffffffffffffff82111715620012bc57620012bb62001260565b5b80604052505050565b6000620012d162001231565b9050620012df82826200128f565b919050565b600067ffffffffffffffff82111562001302576200130162001260565b5b6200130d826200124f565b9050602081019050919050565b82818337600083830152505050565b6000620013406200133a84620012e4565b620012c5565b9050828152602081018484840111156200135f576200135e6200124a565b5b6200136c8482856200131a565b509392505050565b600082601f8301126200138c576200138b62001245565b5b81356200139e84826020860162001329565b91505092915050565b6000819050919050565b620013bc81620013a7565b8114620013c857600080fd5b50565b600081359050620013dc81620013b1565b92915050565b600080600080600060a086880312156200140157620014006200123b565b5b600086013567ffffffffffffffff81111562001422576200142162001240565b5b620014308882890162001374565b955050602086013567ffffffffffffffff81111562001454576200145362001240565b5b620014628882890162001374565b945050604086013567ffffffffffffffff81111562001486576200148562001240565b5b620014948882890162001374565b935050606086013567ffffffffffffffff811115620014b857620014b762001240565b5b620014c68882890162001374565b9250506080620014d988828901620013cb565b9150509295509295909350565b600060208284031215620014ff57620014fe6200123b565b5b60006200150f84828501620013cb565b91505092915050565b600073ffffffffffffffffffffffffffffffffffffffff82169050919050565b6000819050919050565b6000620015636200155d620015578462001518565b62001538565b62001518565b9050919050565b6000620015778262001542565b9050919050565b60006200158b826200156a565b9050919050565b6200159d816200157e565b82525050565b6000602082019050620015ba600083018462001592565b92915050565b6000620015cd8262001518565b9050919050565b6000620015e182620015c0565b9050919050565b620015f381620015d4565b8114620015ff57600080fd5b50565b6000813590506200161381620015e8565b92915050565b6000602082840312156200163257620016316200123b565b5b6000620016428482850162001602565b91505092915050565b60008115159050919050565b62001662816200164b565b82525050565b60006020820190506200167f600083018462001657565b92915050565b600081519050919050565b600082825260208201905092915050565b6000819050602082019050919050565b620016bc816200157e565b82525050565b6000620016d08383620016b1565b60208301905092915050565b6000602082019050919050565b6000620016f68262001685565b62001702818562001690565b93506200170f83620016a1565b8060005b83811015620017465781516200172a8882620016c2565b97506200173783620016dc565b92505060018101905062001713565b5085935050505092915050565b600060208201905081810360008301526200176f8184620016e9565b905092915050565b6200178281620015c0565b81146200178e57600080fd5b50565b600081359050620017a28162001777565b92915050565b600080600060608486031215620017c457620017c36200123b565b5b600084013567ffffffffffffffff811115620017e557620017e462001240565b5b620017f38682870162001374565b935050602084013567ffffffffffffffff81111562001817576200181662001240565b5b620018258682870162001374565b9250506040620018388682870162001791565b9150509250925092565b60006200184f826200156a565b9050919050565b620018618162001842565b82525050565b60006020820190506200187e600083018462001856565b92915050565b600081519050919050565b6000819050602082019050919050565b620018aa8162001842565b82525050565b6000620018be83836200189f565b60208301905092915050565b6000602082019050919050565b6000620018e48262001884565b620018f0818562001690565b9350620018fd836200188f565b8060005b8381101562001934578151620019188882620018b0565b97506200192583620018ca565b92505060018101905062001901565b5085935050505092915050565b600060208201905081810360008301526200195d8184620018d7565b905092915050565b600082825260208201905092915050565b7f4552524f523a20596f75277265206e6f7420746865206f776e65722100000000600082015250565b6000620019ae601c8362001965565b9150620019bb8262001976565b602082019050919050565b60006020820190508181036000830152620019e1816200199f565b9050919050565b600081519050919050565b60005b8381101562001a13578082015181840152602081019050620019f6565b60008484015250505050565b600062001a2c82620019e8565b62001a38818562001965565b935062001a4a818560208601620019f3565b62001a55816200124f565b840191505092915050565b62001a6b81620013a7565b82525050565b7f507265736964656e740000000000000000000000000000000000000000000000600082015250565b600062001aa960098362001965565b915062001ab68262001a71565b602082019050919050565b62001acc81620015c0565b82525050565b600060e082019050818103600083015262001aee818962001a1f565b9050818103602083015262001b04818862001a1f565b9050818103604083015262001b1a818762001a1f565b9050818103606083015262001b30818662001a1f565b905062001b41608083018562001a60565b81810360a083015262001b548162001a9a565b905062001b6560c083018462001ac1565b979650505050505050565b7f4665646572616c20446570757469650000000000000000000000000000000000600082015250565b600062001ba8600f8362001965565b915062001bb58262001b70565b602082019050919050565b600060e082019050818103600083015262001bdc818962001a1f565b9050818103602083015262001bf2818862001a1f565b9050818103604083015262001c08818762001a1f565b9050818103606083015262001c1e818662001a1f565b905062001c2f608083018562001a60565b81810360a083015262001c428162001b99565b905062001c5360c083018462001ac1565b979650505050505050565b7f476f7665726e6f72000000000000000000000000000000000000000000000000600082015250565b600062001c9660088362001965565b915062001ca38262001c5e565b602082019050919050565b600060e082019050818103600083015262001cca818962001a1f565b9050818103602083015262001ce0818862001a1f565b9050818103604083015262001cf6818762001a1f565b9050818103606083015262001d0c818662001a1f565b905062001d1d608083018562001a60565b81810360a083015262001d308162001c87565b905062001d4160c083018462001ac1565b979650505050505050565b600081905092915050565b600062001d6482620019e8565b62001d70818562001d4c565b935062001d82818560208601620019f3565b80840191505092915050565b600062001d9c828462001d57565b915081905092915050565b7f4552524f523a2063706620616c72656164792072656769737465726564210000600082015250565b600062001ddf601e8362001965565b915062001dec8262001da7565b602082019050919050565b6000602082019050818103600083015262001e128162001dd0565b9050919050565b6000606082019050818103600083015262001e35818662001a1f565b9050818103602083015262001e4b818562001a1f565b905062001e5c604083018462001ac1565b949350505050565b7f53656e61746f7200000000000000000000000000000000000000000000000000600082015250565b600062001e9c60078362001965565b915062001ea98262001e64565b602082019050919050565b600060e082019050818103600083015262001ed0818962001a1f565b9050818103602083015262001ee6818862001a1f565b9050818103604083015262001efc818762001a1f565b9050818103606083015262001f12818662001a1f565b905062001f23608083018562001a60565b81810360a083015262001f368162001e8d565b905062001f4760c083018462001ac1565b979650505050505050565b7f5374617465204465707574696500000000000000000000000000000000000000600082015250565b600062001f8a600d8362001965565b915062001f978262001f52565b602082019050919050565b600060e082019050818103600083015262001fbe818962001a1f565b9050818103602083015262001fd4818862001a1f565b9050818103604083015262001fea818762001a1f565b9050818103606083015262002000818662001a1f565b905062002011608083018562001a60565b81810360a0830152620020248162001f7b565b90506200203560c083018462001ac1565b97965050505050505056fe60806040523480156200001157600080fd5b50604051620011f9380380620011f9833981810160405281019062000037919062000321565b8660009081620000489190620006b0565b5085600190816200005a9190620006b0565b5083600390816200006c9190620006b0565b50826004819055508160059081620000859190620006b0565b508460029081620000979190620006b0565b5080600660006101000a81548173ffffffffffffffffffffffffffffffffffffffff021916908373ffffffffffffffffffffffffffffffffffffffff16021790555060006007819055505050505050505062000797565b6000604051905090565b600080fd5b600080fd5b600080fd5b600080fd5b6000601f19601f8301169050919050565b7f4e487b7100000000000000000000000000000000000000000000000000000000600052604160045260246000fd5b62000157826200010c565b810181811067ffffffffffffffff821117156200017957620001786200011d565b5b80604052505050565b60006200018e620000ee565b90506200019c82826200014c565b919050565b600067ffffffffffffffff821115620001bf57620001be6200011d565b5b620001ca826200010c565b9050602081019050919050565b60005b83811015620001f7578082015181840152602081019050620001da565b60008484015250505050565b60006200021a6200021484620001a1565b62000182565b90508281526020810184848401111562000239576200023862000107565b5b62000246848285620001d7565b509392505050565b600082601f83011262000266576200026562000102565b5b81516200027884826020860162000203565b91505092915050565b6000819050919050565b620002968162000281565b8114620002a257600080fd5b50565b600081519050620002b6816200028b565b92915050565b600073ffffffffffffffffffffffffffffffffffffffff82169050919050565b6000620002e982620002bc565b9050919050565b620002fb81620002dc565b81146200030757600080fd5b50565b6000815190506200031b81620002f0565b92915050565b600080600080600080600060e0888a031215620003435762000342620000f8565b5b600088015167ffffffffffffffff811115620003645762000363620000fd565b5b620003728a828b016200024e565b975050602088015167ffffffffffffffff811115620003965762000395620000fd565b5b620003a48a828b016200024e565b965050604088015167ffffffffffffffff811115620003c857620003c7620000fd565b5b620003d68a828b016200024e565b955050606088015167ffffffffffffffff811115620003fa57620003f9620000fd565b5b620004088a828b016200024e565b94505060806200041b8a828b01620002a5565b93505060a088015167ffffffffffffffff8111156200043f576200043e620000fd565b5b6200044d8a828b016200024e565b92505060c0620004608a828b016200030a565b91505092959891949750929550565b600081519050919050565b7f4e487b7100000000000000000000000000000000000000000000000000000000600052602260045260246000fd5b60006002820490506001821680620004c257607f821691505b602082108103620004d857620004d76200047a565b5b50919050565b60008190508160005260206000209050919050565b60006020601f8301049050919050565b600082821b905092915050565b600060088302620005427fffffffffffffffffffffffffffffffffffffffffffffffffffffffffffffffff8262000503565b6200054e868362000503565b95508019841693508086168417925050509392505050565b6000819050919050565b6000620005916200058b620005858462000281565b62000566565b62000281565b9050919050565b6000819050919050565b620005ad8362000570565b620005c5620005bc8262000598565b84845462000510565b825550505050565b600090565b620005dc620005cd565b620005e9818484620005a2565b505050565b5b81811015620006115762000605600082620005d2565b600181019050620005ef565b5050565b601f82111562000660576200062a81620004de565b6200063584620004f3565b8101602085101562000645578190505b6200065d6200065485620004f3565b830182620005ee565b50505b505050565b600082821c905092915050565b6000620006856000198460080262000665565b1980831691505092915050565b6000620006a0838362000672565b9150826002028217905092915050565b620006bb826200046f565b67ffffffffffffffff811115620006d757620006d66200011d565b5b620006e38254620004a9565b620006f082828562000615565b600060209050601f83116001811462000728576000841562000713578287015190505b6200071f858262000692565b8655506200078f565b601f1984166200073886620004de565b60005b8281101562000762578489015182556001820191506020850194506020810190506200073b565b868310156200078257848901516200077e601f89168262000672565b8355505b6001600288020188555050505b505050505050565b610a5280620007a76000396000f3fe608060405234801561001057600080fd5b50600436106100885760003560e01c8063a07d792d1161005b578063a07d792d14610105578063b8c270b21461010f578063bb1920331461012d578063e36fccc91461014b57610088565b806305e0a53e1461008d5780632270ae65146100ab5780635ea5cabe146100c95780637ae31c5c146100e7575b600080fd5b610095610169565b6040516100a29190610727565b60405180910390f35b6100b36101fb565b6040516100c09190610762565b60405180910390f35b6100d1610205565b6040516100de9190610727565b60405180910390f35b6100ef610297565b6040516100fc9190610727565b60405180910390f35b61010d610329565b005b610117610569565b6040516101249190610727565b60405180910390f35b6101356105fb565b6040516101429190610727565b60405180910390f35b61015361068d565b6040516101609190610762565b60405180910390f35b606060038054610178906107ac565b80601f01602080910402602001604051908101604052809291908181526020018280546101a4906107ac565b80156101f15780601f106101c6576101008083540402835291602001916101f1565b820191906000526020600020905b8154815290600101906020018083116101d457829003601f168201915b5050505050905090565b6000600454905090565b606060008054610214906107ac565b80601f0160208091040260200160405190810160405280929190818152602001828054610240906107ac565b801561028d5780601f106102625761010080835404028352916020019161028d565b820191906000526020600020905b81548152906001019060200180831161027057829003601f168201915b5050505050905090565b6060600280546102a6906107ac565b80601f01602080910402602001604051908101604052809291908181526020018280546102d2906107ac565b801561031f5780601f106102f45761010080835404028352916020019161031f565b820191906000526020600020905b81548152906001019060200180831161030257829003601f168201915b5050505050905090565b600860003373ffffffffffffffffffffffffffffffffffffffff1673ffffffffffffffffffffffffffffffffffffffff16815260200190815260200160002060009054906101000a900460ff16156103b6576040517f08c379a00000000000000000000000000000000000000000000000000000000081526004016103ad90610829565b60405180910390fd5b6000600660009054906101000a900473ffffffffffffffffffffffffffffffffffffffff16905060008173ffffffffffffffffffffffffffffffffffffffff16634ddc4e86336040518263ffffffff1660e01b815260040161041891906108c8565b602060405180830381865afa158015610435573d6000803e3d6000fd5b505050506040513d601f19601f820116820180604052508101906104599190610920565b90508061049b576040517f08c379a000000000000000000000000000000000000000000000000000000000815260040161049290610999565b60405180910390fd5b6001600860003373ffffffffffffffffffffffffffffffffffffffff1673ffffffffffffffffffffffffffffffffffffffff16815260200190815260200160002060006101000a81548160ff0219169083151502179055506001600860003273ffffffffffffffffffffffffffffffffffffffff1673ffffffffffffffffffffffffffffffffffffffff16815260200190815260200160002060006101000a81548160ff02191690831515021790555060016007600082825461055e91906109e8565b925050819055505050565b606060018054610578906107ac565b80601f01602080910402602001604051908101604052809291908181526020018280546105a4906107ac565b80156105f15780601f106105c6576101008083540402835291602001916105f1565b820191906000526020600020905b8154815290600101906020018083116105d457829003601f168201915b5050505050905090565b60606005805461060a906107ac565b80601f0160208091040260200160405190810160405280929190818152602001828054610636906107ac565b80156106835780601f1061065857610100808354040283529160200191610683565b820191906000526020600020905b81548152906001019060200180831161066657829003601f168201915b5050505050905090565b6000600754905090565b600081519050919050565b600082825260208201905092915050565b60005b838110156106d15780820151818401526020810190506106b6565b60008484015250505050565b6000601f19601f8301169050919050565b60006106f982610697565b61070381856106a2565b93506107138185602086016106b3565b61071c816106dd565b840191505092915050565b6000602082019050818103600083015261074181846106ee565b905092915050565b6000819050919050565b61075c81610749565b82525050565b60006020820190506107776000830184610753565b92915050565b7f4e487b7100000000000000000000000000000000000000000000000000000000600052602260045260246000fd5b600060028204905060018216806107c457607f821691505b6020821081036107d7576107d661077d565b5b50919050565b7f4552524f523a20596f75206861766520616c726561647920766f746564210000600082015250565b6000610813601e836106a2565b915061081e826107dd565b602082019050919050565b6000602082019050818103600083015261084281610806565b9050919050565b600073ffffffffffffffffffffffffffffffffffffffff82169050919050565b6000819050919050565b600061088e61088961088484610849565b610869565b610849565b9050919050565b60006108a082610873565b9050919050565b60006108b282610895565b9050919050565b6108c2816108a7565b82525050565b60006020820190506108dd60008301846108b9565b92915050565b600080fd5b60008115159050919050565b6108fd816108e8565b811461090857600080fd5b50565b60008151905061091a816108f4565b92915050565b600060208284031215610936576109356108e3565b5b60006109448482850161090b565b91505092915050565b7f4552524f523a20596f75206e6f742061726520456c6563746f72210000000000600082015250565b6000610983601b836106a2565b915061098e8261094d565b602082019050919050565b600060208201905081810360008301526109b281610976565b9050919050565b7f4e487b7100000000000000000000000000000000000000000000000000000000600052601160045260246000fd5b60006109f382610749565b91506109fe83610749565b9250828201905080821115610a1657610a156109b9565b5b9291505056fea26469706673582212206b21ffc17f7dae90c52be3f3edab3402ff6a6ac3d7bdbbe11a333b889879aa3864736f6c6343000811003360806040523480156200001157600080fd5b5060405162001b2f38038062001b2f83398181016040528101906200003791906200029d565b826000908162000048919062000582565b5081600190816200005a919062000582565b5080600260006101000a81548173ffffffffffffffffffffffffffffffffffffffff021916908373ffffffffffffffffffffffffffffffffffffffff16021790555050505062000669565b6000604051905090565b600080fd5b600080fd5b600080fd5b600080fd5b6000601f19601f8301169050919050565b7f4e487b7100000000000000000000000000000000000000000000000000000000600052604160045260246000fd5b6200010e82620000c3565b810181811067ffffffffffffffff8211171562000130576200012f620000d4565b5b80604052505050565b600062000145620000a5565b905062000153828262000103565b919050565b600067ffffffffffffffff821115620001765762000175620000d4565b5b6200018182620000c3565b9050602081019050919050565b60005b83811015620001ae57808201518184015260208101905062000191565b60008484015250505050565b6000620001d1620001cb8462000158565b62000139565b905082815260208101848484011115620001f057620001ef620000be565b5b620001fd8482856200018e565b509392505050565b600082601f8301126200021d576200021c620000b9565b5b81516200022f848260208601620001ba565b91505092915050565b600073ffffffffffffffffffffffffffffffffffffffff82169050919050565b6000620002658262000238565b9050919050565b620002778162000258565b81146200028357600080fd5b50565b60008151905062000297816200026c565b92915050565b600080600060608486031215620002b957620002b8620000af565b5b600084015167ffffffffffffffff811115620002da57620002d9620000b4565b5b620002e88682870162000205565b935050602084015167ffffffffffffffff8111156200030c576200030b620000b4565b5b6200031a8682870162000205565b92505060406200032d8682870162000286565b9150509250925092565b600081519050919050565b7f4e487b7100000000000000000000000000000000000000000000000000000000600052602260045260246000fd5b600060028204905060018216806200038a57607f821691505b602082108103620003a0576200039f62000342565b5b50919050565b60008190508160005260206000209050919050565b60006020601f8301049050919050565b600082821b905092915050565b6000600883026200040a7fffffffffffffffffffffffffffffffffffffffffffffffffffffffffffffffff82620003cb565b620004168683620003cb565b95508019841693508086168417925050509392505050565b6000819050919050565b6000819050919050565b6000620004636200045d62000457846200042e565b62000438565b6200042e565b9050919050565b6000819050919050565b6200047f8362000442565b620004976200048e826200046a565b848454620003d8565b825550505050565b600090565b620004ae6200049f565b620004bb81848462000474565b505050565b5b81811015620004e357620004d7600082620004a4565b600181019050620004c1565b5050565b601f8211156200053257620004fc81620003a6565b6200050784620003bb565b8101602085101562000517578190505b6200052f6200052685620003bb565b830182620004c0565b50505b505050565b600082821c905092915050565b6000620005576000198460080262000537565b1980831691505092915050565b600062000572838362000544565b9150826002028217905092915050565b6200058d8262000337565b67ffffffffffffffff811115620005a957620005a8620000d4565b5b620005b5825462000371565b620005c2828285620004e7565b600060209050601f831160018114620005fa5760008415620005e5578287015190505b620005f1858262000564565b86555062000661565b601f1984166200060a86620003a6565b60005b8281101562000634578489015182556001820191506020850194506020810190506200060d565b8683101562000654578489015162000650601f89168262000544565b8355505b6001600288020188555050505b505050505050565b6114b680620006796000396000f3fe608060405234801561001057600080fd5b50600436106100935760003560e01c8063680465a711610066578063680465a71461011e5780636951988e1461013a57806394a927fe14610156578063a0d1722314610174578063cfb82a251461019057610093565b80631b2b67c71461009857806351d9a224146100c857806361dd7f77146100e45780636454fca114610100575b600080fd5b6100b260048036038101906100ad9190611114565b6101ae565b6040516100bf91906111c0565b60405180910390f35b6100e260048036038101906100dd9190611219565b610340565b005b6100fe60048036038101906100f99190611219565b61055f565b005b61010861077e565b60405161011591906112d6565b60405180910390f35b61013860048036038101906101339190611219565b6108a0565b005b610154600480360381019061014f9190611219565b610abf565b005b61015e610cde565b60405161016b9190611307565b60405180910390f35b61018e60048036038101906101899190611219565b610d98565b005b610198610fb7565b6040516101a591906112d6565b60405180910390f35b6000600260009054906101000a900473ffffffffffffffffffffffffffffffffffffffff1673ffffffffffffffffffffffffffffffffffffffff163373ffffffffffffffffffffffffffffffffffffffff1614610240576040517f08c379a00000000000000000000000000000000000000000000000000000000081526004016102379061136e565b60405180910390fd5b6001820361027257600360009054906101000a900473ffffffffffffffffffffffffffffffffffffffff16905061033b565b600282036102a457600460009054906101000a900473ffffffffffffffffffffffffffffffffffffffff16905061033b565b600382036102d657600560009054906101000a900473ffffffffffffffffffffffffffffffffffffffff16905061033b565b6004820361030857600660009054906101000a900473ffffffffffffffffffffffffffffffffffffffff16905061033b565b6005820361033a57600760009054906101000a900473ffffffffffffffffffffffffffffffffffffffff16905061033b565b5b919050565b600260009054906101000a900473ffffffffffffffffffffffffffffffffffffffff1673ffffffffffffffffffffffffffffffffffffffff163373ffffffffffffffffffffffffffffffffffffffff16146103d0576040517f08c379a00000000000000000000000000000000000000000000000000000000081526004016103c79061136e565b60405180910390fd5b600c60003373ffffffffffffffffffffffffffffffffffffffff1673ffffffffffffffffffffffffffffffffffffffff16815260200190815260200160002060009054906101000a900460ff161561045d576040517f08c379a000000000000000000000000000000000000000000000000000000000815260040161045490611400565b60405180910390fd5b6001600c60003373ffffffffffffffffffffffffffffffffffffffff1673ffffffffffffffffffffffffffffffffffffffff16815260200190815260200160002060006101000a81548160ff021916908315150217905550600081905080600760006101000a81548173ffffffffffffffffffffffffffffffffffffffff021916908373ffffffffffffffffffffffffffffffffffffffff1602179055508073ffffffffffffffffffffffffffffffffffffffff1663a07d792d6040518163ffffffff1660e01b8152600401600060405180830381600087803b15801561054357600080fd5b505af1158015610557573d6000803e3d6000fd5b505050505050565b600260009054906101000a900473ffffffffffffffffffffffffffffffffffffffff1673ffffffffffffffffffffffffffffffffffffffff163373ffffffffffffffffffffffffffffffffffffffff16146105ef576040517f08c379a00000000000000000000000000000000000000000000000000000000081526004016105e69061136e565b60405180910390fd5b600b60003373ffffffffffffffffffffffffffffffffffffffff1673ffffffffffffffffffffffffffffffffffffffff16815260200190815260200160002060009054906101000a900460ff161561067c576040517f08c379a000000000000000000000000000000000000000000000000000000000815260040161067390611400565b60405180910390fd5b6001600b60003373ffffffffffffffffffffffffffffffffffffffff1673ffffffffffffffffffffffffffffffffffffffff16815260200190815260200160002060006101000a81548160ff021916908315150217905550600081905080600660006101000a81548173ffffffffffffffffffffffffffffffffffffffff021916908373ffffffffffffffffffffffffffffffffffffffff1602179055508073ffffffffffffffffffffffffffffffffffffffff1663a07d792d6040518163ffffffff1660e01b8152600401600060405180830381600087803b15801561076257600080fd5b505af1158015610776573d6000803e3d6000fd5b505050505050565b6060600260009054906101000a900473ffffffffffffffffffffffffffffffffffffffff1673ffffffffffffffffffffffffffffffffffffffff163373ffffffffffffffffffffffffffffffffffffffff1614610810576040517f08c379a00000000000000000000000000000000000000000000000000000000081526004016108079061136e565b60405180910390fd5b6001805461081d9061144f565b80601f01602080910402602001604051908101604052809291908181526020018280546108499061144f565b80156108965780601f1061086b57610100808354040283529160200191610896565b820191906000526020600020905b81548152906001019060200180831161087957829003601f168201915b5050505050905090565b600260009054906101000a900473ffffffffffffffffffffffffffffffffffffffff1673ffffffffffffffffffffffffffffffffffffffff163373ffffffffffffffffffffffffffffffffffffffff1614610930576040517f08c379a00000000000000000000000000000000000000000000000000000000081526004016109279061136e565b60405180910390fd5b600a60003373ffffffffffffffffffffffffffffffffffffffff1673ffffffffffffffffffffffffffffffffffffffff16815260200190815260200160002060009054906101000a900460ff16156109bd576040517f08c379a00000000000000000000000000000000000000000000000000000000081526004016109b490611400565b60405180910390fd5b6001600a60003373ffffffffffffffffffffffffffffffffffffffff1673ffffffffffffffffffffffffffffffffffffffff16815260200190815260200160002060006101000a81548160ff021916908315150217905550600081905080600560006101000a81548173ffffffffffffffffffffffffffffffffffffffff021916908373ffffffffffffffffffffffffffffffffffffffff1602179055508073ffffffffffffffffffffffffffffffffffffffff1663a07d792d6040518163ffffffff1660e01b8152600401600060405180830381600087803b158015610aa357600080fd5b505af1158015610ab7573d6000803e3d6000fd5b505050505050565b600260009054906101000a900473ffffffffffffffffffffffffffffffffffffffff1673ffffffffffffffffffffffffffffffffffffffff163373ffffffffffffffffffffffffffffffffffffffff1614610b4f576040517f08c379a0000000000000000000000000000000000000000000000000000000008152600401610b469061136e565b60405180910390fd5b600a60003373ffffffffffffffffffffffffffffffffffffffff1673ffffffffffffffffffffffffffffffffffffffff16815260200190815260200160002060009054906101000a900460ff1615610bdc576040517f08c379a0000000000000000000000000000000000000000000000000000000008152600401610bd390611400565b60405180910390fd5b6001600960003373ffffffffffffffffffffffffffffffffffffffff1673ffffffffffffffffffffffffffffffffffffffff16815260200190815260200160002060006101000a81548160ff021916908315150217905550600081905080600460006101000a81548173ffffffffffffffffffffffffffffffffffffffff021916908373ffffffffffffffffffffffffffffffffffffffff1602179055508073ffffffffffffffffffffffffffffffffffffffff1663a07d792d6040518163ffffffff1660e01b8152600401600060405180830381600087803b158015610cc257600080fd5b505af1158015610cd6573d6000803e3d6000fd5b505050505050565b6000600260009054906101000a900473ffffffffffffffffffffffffffffffffffffffff1673ffffffffffffffffffffffffffffffffffffffff163373ffffffffffffffffffffffffffffffffffffffff1614610d70576040517f08c379a0000000000000000000000000000000000000000000000000000000008152600401610d679061136e565b60405180910390fd5b600260009054906101000a900473ffffffffffffffffffffffffffffffffffffffff16905090565b600260009054906101000a900473ffffffffffffffffffffffffffffffffffffffff1673ffffffffffffffffffffffffffffffffffffffff163373ffffffffffffffffffffffffffffffffffffffff1614610e28576040517f08c379a0000000000000000000000000000000000000000000000000000000008152600401610e1f9061136e565b60405180910390fd5b600860003373ffffffffffffffffffffffffffffffffffffffff1673ffffffffffffffffffffffffffffffffffffffff16815260200190815260200160002060009054906101000a900460ff1615610eb5576040517f08c379a0000000000000000000000000000000000000000000000000000000008152600401610eac90611400565b60405180910390fd5b6001600860003373ffffffffffffffffffffffffffffffffffffffff1673ffffffffffffffffffffffffffffffffffffffff16815260200190815260200160002060006101000a81548160ff021916908315150217905550600081905080600360006101000a81548173ffffffffffffffffffffffffffffffffffffffff021916908373ffffffffffffffffffffffffffffffffffffffff1602179055508073ffffffffffffffffffffffffffffffffffffffff1663a07d792d6040518163ffffffff1660e01b8152600401600060405180830381600087803b158015610f9b57600080fd5b505af1158015610faf573d6000803e3d6000fd5b505050505050565b6060600260009054906101000a900473ffffffffffffffffffffffffffffffffffffffff1673ffffffffffffffffffffffffffffffffffffffff163373ffffffffffffffffffffffffffffffffffffffff1614611049576040517f08c379a00000000000000000000000000000000000000000000000000000000081526004016110409061136e565b60405180910390fd5b600080546110569061144f565b80601f01602080910402602001604051908101604052809291908181526020018280546110829061144f565b80156110cf5780601f106110a4576101008083540402835291602001916110cf565b820191906000526020600020905b8154815290600101906020018083116110b257829003601f168201915b5050505050905090565b600080fd5b6000819050919050565b6110f1816110de565b81146110fc57600080fd5b50565b60008135905061110e816110e8565b92915050565b60006020828403121561112a576111296110d9565b5b6000611138848285016110ff565b91505092915050565b600073ffffffffffffffffffffffffffffffffffffffff82169050919050565b6000819050919050565b600061118661118161117c84611141565b611161565b611141565b9050919050565b60006111988261116b565b9050919050565b60006111aa8261118d565b9050919050565b6111ba8161119f565b82525050565b60006020820190506111d560008301846111b1565b92915050565b60006111e682611141565b9050919050565b6111f6816111db565b811461120157600080fd5b50565b600081359050611213816111ed565b92915050565b60006020828403121561122f5761122e6110d9565b5b600061123d84828501611204565b91505092915050565b600081519050919050565b600082825260208201905092915050565b60005b83811015611280578082015181840152602081019050611265565b60008484015250505050565b6000601f19601f8301169050919050565b60006112a882611246565b6112b28185611251565b93506112c2818560208601611262565b6112cb8161128c565b840191505092915050565b600060208201905081810360008301526112f0818461129d565b905092915050565b611301816111db565b82525050565b600060208201905061131c60008301846112f8565b92915050565b7f4552524f523a20596f75277265206e6f7420746865206f776e65722100000000600082015250565b6000611358601c83611251565b915061136382611322565b602082019050919050565b600060208201905081810360008301526113878161134b565b9050919050565b7f4552524f523a20596f7520616c726561647920766f74656420666f722074686960008201527f7320706f736974696f6e00000000000000000000000000000000000000000000602082015250565b60006113ea602a83611251565b91506113f58261138e565b604082019050919050565b60006020820190508181036000830152611419816113dd565b9050919050565b7f4e487b7100000000000000000000000000000000000000000000000000000000600052602260045260246000fd5b6000600282049050600182168061146757607f821691505b60208210810361147a57611479611420565b5b5091905056fea26469706673582212207c68c008ac92ca9081a7cc0a0d9c0fee22edbae2f8b73a53292e6d82caedff1f64736f6c63430008110033a2646970667358221220c3789340f2c79ea3e591350bb7140edcec08f34fd0a3a0471f71d217311ea44564736f6c63430008110033",
  "linkReferences": {},
  "deployedLinkReferences": {}
}